{
  "_format": "hh-sol-artifact-1",
  "contractName": "Certification",
  "sourceName": "contracts/Certification.sol",
  "abi": [
    {
      "inputs": [
        {
          "internalType": "contract Institution",
          "name": "_institution",
          "type": "address"
        }
      ],
      "stateMutability": "nonpayable",
      "type": "constructor"
    },
    {
      "anonymous": false,
      "inputs": [
        {
          "indexed": false,
          "internalType": "bytes32",
          "name": "_certificateId",
          "type": "bytes32"
        }
      ],
      "name": "certificateGenerated",
      "type": "event"
    },
    {
      "anonymous": false,
      "inputs": [
        {
          "indexed": false,
          "internalType": "bytes32",
          "name": "_certificateId",
          "type": "bytes32"
        }
      ],
      "name": "certificateRevoked",
      "type": "event"
    },
    {
      "inputs": [
        {
          "internalType": "string",
          "name": "_id",
          "type": "string"
        },
        {
          "internalType": "string",
          "name": "_candidate_name",
          "type": "string"
        },
        {
          "internalType": "uint256",
          "name": "_course_index",
          "type": "uint256"
        },
        {
          "internalType": "string",
          "name": "_creation_date",
          "type": "string"
        }
      ],
      "name": "generateCertificate",
      "outputs": [],
      "stateMutability": "nonpayable",
      "type": "function"
    },
    {
      "inputs": [
        {
          "internalType": "string",
          "name": "_id",
          "type": "string"
        }
      ],
      "name": "getData",
      "outputs": [
        {
          "internalType": "string",
          "name": "",
          "type": "string"
        },
        {
          "internalType": "string",
          "name": "",
          "type": "string"
        },
        {
          "internalType": "string",
          "name": "",
          "type": "string"
        },
        {
          "internalType": "string",
          "name": "",
          "type": "string"
        },
        {
          "internalType": "string",
          "name": "",
          "type": "string"
        },
        {
          "internalType": "string",
          "name": "",
          "type": "string"
        },
        {
          "internalType": "bool",
          "name": "",
          "type": "bool"
        }
      ],
      "stateMutability": "view",
      "type": "function"
    },
    {
      "inputs": [],
      "name": "institution",
      "outputs": [
        {
          "internalType": "contract Institution",
          "name": "",
          "type": "address"
        }
      ],
      "stateMutability": "view",
      "type": "function"
    },
    {
      "inputs": [],
      "name": "owner",
      "outputs": [
        {
          "internalType": "address",
          "name": "",
          "type": "address"
        }
      ],
      "stateMutability": "view",
      "type": "function"
    },
    {
      "inputs": [
        {
          "internalType": "string",
          "name": "_id",
          "type": "string"
        }
      ],
      "name": "revokeCertificate",
      "outputs": [],
      "stateMutability": "nonpayable",
      "type": "function"
    }
  ],
  "bytecode": "0x608060405234801561001057600080fd5b50604051611b00380380611b008339818101604052810190610032919061012e565b336000806101000a81548173ffffffffffffffffffffffffffffffffffffffff021916908373ffffffffffffffffffffffffffffffffffffffff16021790555080600160006101000a81548173ffffffffffffffffffffffffffffffffffffffff021916908373ffffffffffffffffffffffffffffffffffffffff1602179055505061015b565b600080fd5b600073ffffffffffffffffffffffffffffffffffffffff82169050919050565b60006100e9826100be565b9050919050565b60006100fb826100de565b9050919050565b61010b816100f0565b811461011657600080fd5b50565b60008151905061012881610102565b92915050565b600060208284031215610144576101436100b9565b5b600061015284828501610119565b91505092915050565b6119968061016a6000396000f3fe608060405234801561001057600080fd5b50600436106100575760003560e01c8063142e15421461005c5780638da5cb5b14610078578063a0e1995e14610096578063ae55c888146100b2578063d1384eb6146100e8575b600080fd5b61007660048036038101906100719190610e28565b610106565b005b610080610347565b60405161008d9190610eb2565b60405180910390f35b6100b060048036038101906100ab9190610f03565b61036b565b005b6100cc60048036038101906100c79190610e28565b610799565b6040516100df9796959493929190611058565b60405180910390f35b6100f0610c7f565b6040516100fd9190611150565b60405180910390f35b60011515600160009054906101000a900473ffffffffffffffffffffffffffffffffffffffff1673ffffffffffffffffffffffffffffffffffffffff1663b350ce3c336040518263ffffffff1660e01b81526004016101659190610eb2565b602060405180830381865afa158015610182573d6000803e3d6000fd5b505050506040513d601f19601f820116820180604052508101906101a69190611197565b1515146101e8576040517f08c379a00000000000000000000000000000000000000000000000000000000081526004016101df90611210565b60405180910390fd5b60006101f382610ca5565b905060006002600083815260200190815260200160002060020180546102189061125f565b80601f01602080910402602001604051908101604052809291908181526020018280546102449061125f565b80156102915780601f1061026657610100808354040283529160200191610291565b820191906000526020600020905b81548152906001019060200180831161027457829003601f168201915b5050505050905060008151036102dc576040517f08c379a00000000000000000000000000000000000000000000000000000000081526004016102d3906112dc565b60405180910390fd5b60016002600084815260200190815260200160002060060160006101000a81548160ff0219169083151502179055507f222e6f0e7dd20e77993dc592413db91f20cfba6c1833b91ee72aeeb0c2dc99ec8260405161033a9190611315565b60405180910390a1505050565b60008054906101000a900473ffffffffffffffffffffffffffffffffffffffff1681565b60011515600160009054906101000a900473ffffffffffffffffffffffffffffffffffffffff1673ffffffffffffffffffffffffffffffffffffffff1663b350ce3c336040518263ffffffff1660e01b81526004016103ca9190610eb2565b602060405180830381865afa1580156103e7573d6000803e3d6000fd5b505050506040513d601f19601f8201168201806040525081019061040b9190611197565b15151461044d576040517f08c379a000000000000000000000000000000000000000000000000000000000815260040161044490611210565b60405180910390fd5b600061045885610ca5565b9050600060026000838152602001908152602001600020600201805461047d9061125f565b80601f01602080910402602001604051908101604052809291908181526020018280546104a99061125f565b80156104f65780601f106104cb576101008083540402835291602001916104f6565b820191906000526020600020905b8154815290600101906020018083116104d957829003601f168201915b505050505090506000815114610541576040517f08c379a0000000000000000000000000000000000000000000000000000000008152600401610538906113a2565b60405180910390fd5b600080600080600160009054906101000a900473ffffffffffffffffffffffffffffffffffffffff1673ffffffffffffffffffffffffffffffffffffffff16637c0edcdf336040518263ffffffff1660e01b81526004016105a29190610eb2565b600060405180830381865afa1580156105bf573d6000803e3d6000fd5b505050506040513d6000823e3d601f19601f820116820180604052508101906105e8919061157a565b9350935093509350600088101580156106015750805188105b610640576040517f08c379a00000000000000000000000000000000000000000000000000000000081526004016106379061169d565b60405180910390fd5b6000818981518110610655576106546116bd565b5b602002602001015160000151905060006040518060e001604052808c81526020018381526020018a8152602001878152602001868152602001858152602001821515815250600260008a815260200190815260200160002060008201518160000190816106c2919061188e565b5060208201518160010190816106d8919061188e565b5060408201518160020190816106ee919061188e565b506060820151816003019081610704919061188e565b50608082015181600401908161071a919061188e565b5060a0820151816005019081610730919061188e565b5060c08201518160060160006101000a81548160ff0219169083151502179055509050507ff54e0f0055ffae318a21890316ed523f8a60aa59aaa279dfdcae7176155ec0db886040516107839190611315565b60405180910390a1505050505050505050505050565b6060806060806060806000806107ae89610ca5565b90506000600260008381526020019081526020016000206040518060e00160405290816000820180546107e09061125f565b80601f016020809104026020016040519081016040528092919081815260200182805461080c9061125f565b80156108595780601f1061082e57610100808354040283529160200191610859565b820191906000526020600020905b81548152906001019060200180831161083c57829003601f168201915b505050505081526020016001820180546108729061125f565b80601f016020809104026020016040519081016040528092919081815260200182805461089e9061125f565b80156108eb5780601f106108c0576101008083540402835291602001916108eb565b820191906000526020600020905b8154815290600101906020018083116108ce57829003601f168201915b505050505081526020016002820180546109049061125f565b80601f01602080910402602001604051908101604052809291908181526020018280546109309061125f565b801561097d5780601f106109525761010080835404028352916020019161097d565b820191906000526020600020905b81548152906001019060200180831161096057829003601f168201915b505050505081526020016003820180546109969061125f565b80601f01602080910402602001604051908101604052809291908181526020018280546109c29061125f565b8015610a0f5780601f106109e457610100808354040283529160200191610a0f565b820191906000526020600020905b8154815290600101906020018083116109f257829003601f168201915b50505050508152602001600482018054610a289061125f565b80601f0160208091040260200160405190810160405280929190818152602001828054610a549061125f565b8015610aa15780601f10610a7657610100808354040283529160200191610aa1565b820191906000526020600020905b815481529060010190602001808311610a8457829003601f168201915b50505050508152602001600582018054610aba9061125f565b80601f0160208091040260200160405190810160405280929190818152602001828054610ae69061125f565b8015610b335780601f10610b0857610100808354040283529160200191610b33565b820191906000526020600020905b815481529060010190602001808311610b1657829003601f168201915b505050505081526020016006820160009054906101000a900460ff16151515158152505090506000600260008481526020019081526020016000206002018054610b7c9061125f565b80601f0160208091040260200160405190810160405280929190818152602001828054610ba89061125f565b8015610bf55780601f10610bca57610100808354040283529160200191610bf5565b820191906000526020600020905b815481529060010190602001808311610bd857829003601f168201915b505050505090506000815103610c40576040517f08c379a0000000000000000000000000000000000000000000000000000000008152600401610c37906112dc565b60405180910390fd5b816000015182602001518360400151846060015185608001518660a001518760c001519950995099509950995099509950505050919395979092949650565b600160009054906101000a900473ffffffffffffffffffffffffffffffffffffffff1681565b6000808290506000815103610cc0576000801b915050610cc9565b60208301519150505b919050565b6000604051905090565b600080fd5b600080fd5b600080fd5b600080fd5b6000601f19601f8301169050919050565b7f4e487b7100000000000000000000000000000000000000000000000000000000600052604160045260246000fd5b610d3582610cec565b810181811067ffffffffffffffff82111715610d5457610d53610cfd565b5b80604052505050565b6000610d67610cce565b9050610d738282610d2c565b919050565b600067ffffffffffffffff821115610d9357610d92610cfd565b5b610d9c82610cec565b9050602081019050919050565b82818337600083830152505050565b6000610dcb610dc684610d78565b610d5d565b905082815260208101848484011115610de757610de6610ce7565b5b610df2848285610da9565b509392505050565b600082601f830112610e0f57610e0e610ce2565b5b8135610e1f848260208601610db8565b91505092915050565b600060208284031215610e3e57610e3d610cd8565b5b600082013567ffffffffffffffff811115610e5c57610e5b610cdd565b5b610e6884828501610dfa565b91505092915050565b600073ffffffffffffffffffffffffffffffffffffffff82169050919050565b6000610e9c82610e71565b9050919050565b610eac81610e91565b82525050565b6000602082019050610ec76000830184610ea3565b92915050565b6000819050919050565b610ee081610ecd565b8114610eeb57600080fd5b50565b600081359050610efd81610ed7565b92915050565b60008060008060808587031215610f1d57610f1c610cd8565b5b600085013567ffffffffffffffff811115610f3b57610f3a610cdd565b5b610f4787828801610dfa565b945050602085013567ffffffffffffffff811115610f6857610f67610cdd565b5b610f7487828801610dfa565b9350506040610f8587828801610eee565b925050606085013567ffffffffffffffff811115610fa657610fa5610cdd565b5b610fb287828801610dfa565b91505092959194509250565b600081519050919050565b600082825260208201905092915050565b60005b83811015610ff8578082015181840152602081019050610fdd565b60008484015250505050565b600061100f82610fbe565b6110198185610fc9565b9350611029818560208601610fda565b61103281610cec565b840191505092915050565b60008115159050919050565b6110528161103d565b82525050565b600060e0820190508181036000830152611072818a611004565b905081810360208301526110868189611004565b9050818103604083015261109a8188611004565b905081810360608301526110ae8187611004565b905081810360808301526110c28186611004565b905081810360a08301526110d68185611004565b90506110e560c0830184611049565b98975050505050505050565b6000819050919050565b600061111661111161110c84610e71565b6110f1565b610e71565b9050919050565b6000611128826110fb565b9050919050565b600061113a8261111d565b9050919050565b61114a8161112f565b82525050565b60006020820190506111656000830184611141565b92915050565b6111748161103d565b811461117f57600080fd5b50565b6000815190506111918161116b565b92915050565b6000602082840312156111ad576111ac610cd8565b5b60006111bb84828501611182565b91505092915050565b7f496e73746974757465206163636f756e7420646f6573206e6f74206578697374600082015250565b60006111fa602083610fc9565b9150611205826111c4565b602082019050919050565b60006020820190508181036000830152611229816111ed565b9050919050565b7f4e487b7100000000000000000000000000000000000000000000000000000000600052602260045260246000fd5b6000600282049050600182168061127757607f821691505b60208210810361128a57611289611230565b5b50919050565b7f436572746966696361746520696420646f6573206e6f74206578697374000000600082015250565b60006112c6601d83610fc9565b91506112d182611290565b602082019050919050565b600060208201905081810360008301526112f5816112b9565b9050919050565b6000819050919050565b61130f816112fc565b82525050565b600060208201905061132a6000830184611306565b92915050565b7f4365727469666963617465207769746820676976656e20696420616c7265616460008201527f7920657869737473000000000000000000000000000000000000000000000000602082015250565b600061138c602883610fc9565b915061139782611330565b604082019050919050565b600060208201905081810360008301526113bb8161137f565b9050919050565b60006113d56113d084610d78565b610d5d565b9050828152602081018484840111156113f1576113f0610ce7565b5b6113fc848285610fda565b509392505050565b600082601f83011261141957611418610ce2565b5b81516114298482602086016113c2565b91505092915050565b600067ffffffffffffffff82111561144d5761144c610cfd565b5b602082029050602081019050919050565b600080fd5b600080fd5b600080fd5b60006020828403121561148357611482611463565b5b61148d6020610d5d565b9050600082015167ffffffffffffffff8111156114ad576114ac611468565b5b6114b984828501611404565b60008301525092915050565b60006114d86114d384611432565b610d5d565b905080838252602082019050602084028301858111156114fb576114fa61145e565b5b835b8181101561154257805167ffffffffffffffff8111156115205761151f610ce2565b5b80860161152d898261146d565b855260208501945050506020810190506114fd565b5050509392505050565b600082601f83011261156157611560610ce2565b5b81516115718482602086016114c5565b91505092915050565b6000806000806080858703121561159457611593610cd8565b5b600085015167ffffffffffffffff8111156115b2576115b1610cdd565b5b6115be87828801611404565b945050602085015167ffffffffffffffff8111156115df576115de610cdd565b5b6115eb87828801611404565b935050604085015167ffffffffffffffff81111561160c5761160b610cdd565b5b61161887828801611404565b925050606085015167ffffffffffffffff81111561163957611638610cdd565b5b6116458782880161154c565b91505092959194509250565b7f496e76616c696420436f7572736520696e646578000000000000000000000000600082015250565b6000611687601483610fc9565b915061169282611651565b602082019050919050565b600060208201905081810360008301526116b68161167a565b9050919050565b7f4e487b7100000000000000000000000000000000000000000000000000000000600052603260045260246000fd5b60008190508160005260206000209050919050565b60006020601f8301049050919050565b600082821b905092915050565b60006008830261174e7fffffffffffffffffffffffffffffffffffffffffffffffffffffffffffffffff82611711565b6117588683611711565b95508019841693508086168417925050509392505050565b600061178b61178661178184610ecd565b6110f1565b610ecd565b9050919050565b6000819050919050565b6117a583611770565b6117b96117b182611792565b84845461171e565b825550505050565b600090565b6117ce6117c1565b6117d981848461179c565b505050565b5b818110156117fd576117f26000826117c6565b6001810190506117df565b5050565b601f82111561184257611813816116ec565b61181c84611701565b8101602085101561182b578190505b61183f61183785611701565b8301826117de565b50505b505050565b600082821c905092915050565b600061186560001984600802611847565b1980831691505092915050565b600061187e8383611854565b9150826002028217905092915050565b61189782610fbe565b67ffffffffffffffff8111156118b0576118af610cfd565b5b6118ba825461125f565b6118c5828285611801565b600060209050601f8311600181146118f857600084156118e6578287015190505b6118f08582611872565b865550611958565b601f198416611906866116ec565b60005b8281101561192e57848901518255600182019150602085019450602081019050611909565b8683101561194b5784890151611947601f891682611854565b8355505b6001600288020188555050505b50505050505056fea2646970667358221220d1bbd858bd0fa03c12321c95ebbd21b3ee33fd41ff2e9e496c60e55a4a5dfc3c64736f6c634300081e0033",
  "linkReferences": {},
  "deployedLinkReferences": {}
}