{
  "_format": "hh-sol-artifact-1",
  "contractName": "Certification",
  "sourceName": "contracts/Certification.sol",
  "abi": [
    {
      "inputs": [
        {
          "internalType": "contract Institution",
          "name": "_institution",
          "type": "address"
        }
      ],
      "stateMutability": "nonpayable",
      "type": "constructor"
    },
    {
      "anonymous": false,
      "inputs": [
        {
          "indexed": false,
          "internalType": "bytes32",
          "name": "_certificateId",
          "type": "bytes32"
        }
      ],
      "name": "certificateGenerated",
      "type": "event"
    },
    {
      "anonymous": false,
      "inputs": [
        {
          "indexed": false,
          "internalType": "bytes32",
          "name": "_certificateId",
          "type": "bytes32"
        }
      ],
      "name": "certificateRevoked",
      "type": "event"
    },
    {
      "inputs": [
        {
          "internalType": "string",
          "name": "_id",
          "type": "string"
        },
        {
          "internalType": "string",
          "name": "_candidate_name",
          "type": "string"
        },
        {
          "internalType": "string",
          "name": "_candidate_id",
          "type": "string"
        },
        {
          "internalType": "string",
          "name": "_father_name",
          "type": "string"
        },
        {
          "internalType": "string",
          "name": "_mother_name",
          "type": "string"
        },
        {
          "internalType": "uint256",
          "name": "_degree_index",
          "type": "uint256"
        },
        {
          "internalType": "uint256",
          "name": "_departments_index",
          "type": "uint256"
        },
        {
          "internalType": "string",
          "name": "_cgpa",
          "type": "string"
        },
        {
          "internalType": "string",
          "name": "_session",
          "type": "string"
        },
        {
          "internalType": "string",
          "name": "_creation_date",
          "type": "string"
        }
      ],
      "name": "generateCertificate",
      "outputs": [],
      "stateMutability": "nonpayable",
      "type": "function"
    },
    {
      "inputs": [
        {
          "internalType": "string",
          "name": "_id",
          "type": "string"
        }
      ],
      "name": "getData",
      "outputs": [
        {
          "internalType": "string",
          "name": "",
          "type": "string"
        },
        {
          "internalType": "string",
          "name": "",
          "type": "string"
        },
        {
          "internalType": "string",
          "name": "",
          "type": "string"
        },
        {
          "internalType": "string",
          "name": "",
          "type": "string"
        },
        {
          "internalType": "string",
          "name": "",
          "type": "string"
        },
        {
          "internalType": "string",
          "name": "",
          "type": "string"
        },
        {
          "internalType": "string",
          "name": "",
          "type": "string"
        },
        {
          "internalType": "string",
          "name": "",
          "type": "string"
        },
        {
          "internalType": "string",
          "name": "",
          "type": "string"
        },
        {
          "internalType": "string",
          "name": "",
          "type": "string"
        },
        {
          "internalType": "string",
          "name": "",
          "type": "string"
        },
        {
          "internalType": "string",
          "name": "",
          "type": "string"
        },
        {
          "internalType": "string",
          "name": "",
          "type": "string"
        },
        {
          "internalType": "bool",
          "name": "",
          "type": "bool"
        }
      ],
      "stateMutability": "view",
      "type": "function"
    },
    {
      "inputs": [],
      "name": "institution",
      "outputs": [
        {
          "internalType": "contract Institution",
          "name": "",
          "type": "address"
        }
      ],
      "stateMutability": "view",
      "type": "function"
    },
    {
      "inputs": [],
      "name": "owner",
      "outputs": [
        {
          "internalType": "address",
          "name": "",
          "type": "address"
        }
      ],
      "stateMutability": "view",
      "type": "function"
    },
    {
      "inputs": [
        {
          "internalType": "string",
          "name": "_id",
          "type": "string"
        }
      ],
      "name": "revokeCertificate",
      "outputs": [],
      "stateMutability": "nonpayable",
      "type": "function"
    }
  ],
  "bytecode": "0x608034607e57601f61109c38819003918201601f19168301916001600160401b03831184841017608357808492602094604052833981010312607e57516001600160a01b03811690819003607e57600080546001600160a01b0319908116331790915560018054909116919091179055604051611002908161009a8239f35b600080fd5b634e487b7160e01b600052604160045260246000fdfe6080604052600436101561001257600080fd5b60003560e01c8063142e1542146100675780638da5cb5b14610062578063ae55c8881461005d578063d1384eb6146100585763ef4ced071461005357600080fd5b6104d4565b6104ab565b6103f7565b61027a565b34610198576100753661024d565b600154610092906001600160a01b03165b6001600160a01b031690565b604051632cd4338f60e21b815233600482015290602090829060249082905afa908115610193577f222e6f0e7dd20e77993dc592413db91f20cfba6c1833b91ee72aeeb0c2dc99ec926100f9600161015f946100fe94600091610164575b5015151461061a565b610fb8565b610128610120600861011a846000526002602052604060002090565b0161069f565b511515610741565b61014f600d610141836000526002602052604060002090565b01805460ff19166001179055565b6040519081529081906020820190565b0390a1005b610186915060203d60201161018c575b61017e81836101b3565b8101906105f6565b876100f0565b503d610174565b61060e565b600080fd5b634e487b7160e01b600052604160045260246000fd5b90601f801991011681019081106001600160401b038211176101d457604052565b61019d565b604051906101e96101c0836101b3565b565b6001600160401b0381116101d457601f01601f191660200190565b81601f820112156101985780359061021d826101eb565b9261022b60405194856101b3565b8284526020838301011161019857816000926020809301838601378301015290565b602060031982011261019857600435906001600160401b0382116101985761027791600401610206565b90565b34610198576000366003190112610198576000546040516001600160a01b039091168152602090f35b60005b8381106102b65750506000910152565b81810151838201526020016102a6565b906020916102df815180928185528580860191016102a3565b601f01601f1916010190565b9e9d9b96988f916103df996101e99f9b610395906101a09f996103ee9f989b6103796103879261036b6103d09f9d61035d6103c19f8d906103b29f61034f906103416103a39f6101c086526101c08601906102c6565b9084820360208601526102c6565b9160408184039101526102c6565b8c810360608e0152906102c6565b908a820360808c01526102c6565b9088820360a08a01526102c6565b9086820360c08801526102c6565b9084820360e08601526102c6565b916101008184039101526102c6565b8d81036101208f0152906102c6565b908b82036101408d01526102c6565b908982036101608b01526102c6565b908782036101808901526102c6565b94019015159052565b34610198576104086100f93661024d565b610440610120600861011a61042f61042a866000526002602052604060002090565b61078d565b946000526002602052604060002090565b80516104a76020830151926040810151906060810151608082015160a083015160c084015160e08501516101008601519161012087015193610140880151956101608901519761049a6101a06101808c01519b0151151590565b9a6040519e8f9e8f6102eb565b0390f35b34610198576000366003190112610198576001546040516001600160a01b039091168152602090f35b3461019857610140366003190112610198576004356001600160401b03811161019857610505903690600401610206565b6024356001600160401b03811161019857610524903690600401610206565b906044356001600160401b03811161019857610544903690600401610206565b6064356001600160401b03811161019857610563903690600401610206565b6084356001600160401b03811161019857610582903690600401610206565b60a43560c4359160e4356001600160401b038111610198576105a8903690600401610206565b93610104356001600160401b038111610198576105c9903690600401610206565b9561012435986001600160401b038a11610198576105ee6105f49a3690600401610206565b98610dab565b005b90816020910312610198575180151581036101985790565b6040513d6000823e3d90fd5b1561062157565b606460405162461bcd60e51b815260206004820152602060248201527f496e73746974757465206163636f756e7420646f6573206e6f742065786973746044820152fd5b90600182811c92168015610695575b602083101461067f57565b634e487b7160e01b600052602260045260246000fd5b91607f1691610674565b90604051918260008254926106b384610665565b808452936001811690811561071f57506001146106d8575b506101e9925003836101b3565b90506000929192526020600020906000915b8183106107035750509060206101e992820101386106cb565b60209193508060019154838589010152019101909184926106ea565b9050602092506101e994915060ff191682840152151560051b820101386106cb565b1561074857565b60405162461bcd60e51b815260206004820152601d60248201527f436572746966696361746520696420646f6573206e6f742065786973740000006044820152606490fd5b906101e9610883600d61079e6101d9565b946107a88161069f565b86526107b66001820161069f565b60208701526107c76002820161069f565b60408701526107d86003820161069f565b60608701526107e96004820161069f565b60808701526107fa6005820161069f565b60a087015261080b6006820161069f565b60c087015261081c6007820161069f565b60e087015261082d6008820161069f565b61010087015261083f6009820161069f565b610120870152610851600a820161069f565b610140870152610863600b820161069f565b610160870152610875600c820161069f565b610180870152015460ff1690565b15156101a0840152565b906108a0602092828151948592016102a3565b0190565b156108ab57565b60405162461bcd60e51b815260206004820152602860248201527f4365727469666963617465207769746820676976656e20696420616c72656164604482015267792065786973747360c01b6064820152608490fd5b81601f82011215610198578051610917816101eb565b9261092560405194856101b3565b818452602082840101116101985761027791602080850191016102a3565b9080601f83011215610198576020825192016001600160401b0383116101d4578260051b602081019361097960405195866101b3565b845260208401908201918383116101985780915b83831061099c57505050505090565b82516001600160401b0381116101985782016000602082880312610a05575060405191602083018381106001600160401b038211176101d4576040528151926001600160401b038411610198576109f888602095869501610901565b815281520192019161098d565b80fd5b9160c0838303126101985782516001600160401b0381116101985782610a2f918501610901565b9260208101516001600160401b0381116101985783610a4f918301610901565b9260408201516001600160401b0381116101985781610a6f918401610901565b9260608301516001600160401b0381116101985782610a8f918501610901565b9260808101516001600160401b0381116101985783610aaf918301610943565b9260a08201516001600160401b038111610198576102779201610943565b15610ad457565b60405162461bcd60e51b8152602060048201526014602482015273092dcecc2d8d2c84088cacee4caca40d2dcc8caf60631b6044820152606490fd5b15610b1757565b60405162461bcd60e51b815260206004820152601860248201527f496e76616c6964204465706172746d656e7420696e64657800000000000000006044820152606490fd5b8051821015610b705760209160051b010190565b634e487b7160e01b600052603260045260246000fd5b601f8211610b9357505050565b6000526020600020906020601f840160051c83019310610bce575b601f0160051c01905b818110610bc2575050565b60008155600101610bb7565b9091508190610bae565b91909182516001600160401b0381116101d457610bff81610bf98454610665565b84610b86565b6020601f8211600114610c40578190610c31939495600092610c35575b50508160011b916000199060031b1c19161790565b9055565b015190503880610c1c565b601f19821690610c5584600052602060002090565b9160005b818110610c9157509583600195969710610c78575b505050811b019055565b015160001960f88460031b161c19169055388080610c6e565b9192602060018192868b015181550194019201610c59565b600d610d986101a06101e994610cc0815186610bd8565b610cd1602082015160018701610bd8565b610ce2604082015160028701610bd8565b610cf3606082015160038701610bd8565b610d04608082015160048701610bd8565b610d1560a082015160058701610bd8565b610d2660c082015160068701610bd8565b610d3760e082015160078701610bd8565b610d4961010082015160088701610bd8565b610d5b61012082015160098701610bd8565b610d6d610140820151600a8701610bd8565b610d7f610160820151600b8701610bd8565b610d91610180820151600c8701610bd8565b0151151590565b91019060ff801983541691151516179055565b9395919897969794929094610dca61008660015460018060a01b031690565b604051632cd4338f60e21b81523360048201529095906020816024818a5afa90811561019357610e0791600191600091610f99575015151461061a565b604051610e2a81610e1c60208201809561088d565b03601f1981018352826101b3565b51902097610e51610e4a600861011a8c6000526002602052604060002090565b51156108a4565b604051637c0edcdf60e01b815233600482015295600090879060249082905afa998a15610193577ff54e0f0055ffae318a21890316ed523f8a60aa59aaa279dfdcae7176155ec0db9b610f539b61014f9a6000968798889a899c8a908b96610f58575b50610ee3929181610eca610edb93518310610acd565b610ed688518510610b10565b610b5c565b515194610b5c565b515193610eee6101d9565b9c8d5260208d015260408c015260608b015260808a015260a089015260c088015260e087015261010086015261012085015261014084015261016083015261018082015260006101a0820152610f4e836000526002602052604060002090565b610ca9565b0390a1565b929a919c5050610ee39c50610edb9a50610f859294503d8091833e610f7d81836101b3565b810190610a08565b919e929d939c50939a909593909291610eb4565b610fb2915060203d60201161018c5761017e81836101b3565b386100f0565b805115610fc6576020015190565b5060009056fea2646970667358221220b25da61728e8c943ac8c50c3481f86cdf9645660904fdddc650aae423112421d64736f6c634300081e0033",
  "linkReferences": {},
  "deployedLinkReferences": {}
}