{
  "_format": "hh-sol-artifact-1",
  "contractName": "Certification",
  "sourceName": "contracts/Certification.sol",
  "abi": [
    {
      "inputs": [
        {
          "internalType": "contract Institution",
          "name": "_institution",
          "type": "address"
        }
      ],
      "stateMutability": "nonpayable",
      "type": "constructor"
    },
    {
      "anonymous": false,
      "inputs": [
        {
          "indexed": true,
          "internalType": "bytes32",
          "name": "certificateId",
          "type": "bytes32"
        },
        {
          "indexed": true,
          "internalType": "address",
          "name": "institute",
          "type": "address"
        },
        {
          "indexed": false,
          "internalType": "string",
          "name": "candidateId",
          "type": "string"
        }
      ],
      "name": "CertificateGenerated",
      "type": "event"
    },
    {
      "anonymous": false,
      "inputs": [
        {
          "indexed": true,
          "internalType": "bytes32",
          "name": "certificateId",
          "type": "bytes32"
        },
        {
          "indexed": false,
          "internalType": "string",
          "name": "ipfsHash",
          "type": "string"
        }
      ],
      "name": "CertificateIpfsUpdated",
      "type": "event"
    },
    {
      "anonymous": false,
      "inputs": [
        {
          "indexed": true,
          "internalType": "bytes32",
          "name": "certificateId",
          "type": "bytes32"
        }
      ],
      "name": "CertificateRevoked",
      "type": "event"
    },
    {
      "anonymous": false,
      "inputs": [
        {
          "indexed": true,
          "internalType": "bytes32",
          "name": "certificateId",
          "type": "bytes32"
        },
        {
          "indexed": false,
          "internalType": "string",
          "name": "field",
          "type": "string"
        }
      ],
      "name": "CertificateUpdated",
      "type": "event"
    },
    {
      "inputs": [
        {
          "internalType": "string[]",
          "name": "_candidateIds",
          "type": "string[]"
        },
        {
          "internalType": "string[]",
          "name": "_candidateNames",
          "type": "string[]"
        },
        {
          "internalType": "string[]",
          "name": "_fatherNames",
          "type": "string[]"
        },
        {
          "internalType": "string[]",
          "name": "_motherNames",
          "type": "string[]"
        },
        {
          "internalType": "string[]",
          "name": "_degreeNames",
          "type": "string[]"
        },
        {
          "internalType": "string[]",
          "name": "_departmentNames",
          "type": "string[]"
        },
        {
          "internalType": "string[]",
          "name": "_cgpas",
          "type": "string[]"
        },
        {
          "internalType": "string[]",
          "name": "_sessions",
          "type": "string[]"
        },
        {
          "internalType": "string[]",
          "name": "_issueDates",
          "type": "string[]"
        }
      ],
      "name": "batchGenerateCertificates",
      "outputs": [],
      "stateMutability": "nonpayable",
      "type": "function"
    },
    {
      "inputs": [
        {
          "internalType": "string",
          "name": "_candidateId",
          "type": "string"
        },
        {
          "internalType": "string",
          "name": "_candidateName",
          "type": "string"
        },
        {
          "internalType": "string",
          "name": "_fatherName",
          "type": "string"
        },
        {
          "internalType": "string",
          "name": "_motherName",
          "type": "string"
        },
        {
          "internalType": "string",
          "name": "_degreeName",
          "type": "string"
        },
        {
          "internalType": "string",
          "name": "_departmentName",
          "type": "string"
        },
        {
          "internalType": "string",
          "name": "_cgpa",
          "type": "string"
        },
        {
          "internalType": "string",
          "name": "_session",
          "type": "string"
        },
        {
          "internalType": "string",
          "name": "_issueDate",
          "type": "string"
        },
        {
          "internalType": "string",
          "name": "_ipfsHash",
          "type": "string"
        }
      ],
      "name": "generateCertificate",
      "outputs": [],
      "stateMutability": "nonpayable",
      "type": "function"
    },
    {
      "inputs": [
        {
          "internalType": "address",
          "name": "instituteAddress",
          "type": "address"
        },
        {
          "internalType": "string",
          "name": "candidateId",
          "type": "string"
        }
      ],
      "name": "generateCertificateId",
      "outputs": [
        {
          "internalType": "bytes32",
          "name": "",
          "type": "bytes32"
        }
      ],
      "stateMutability": "pure",
      "type": "function"
    },
    {
      "inputs": [
        {
          "internalType": "address",
          "name": "instituteAddress",
          "type": "address"
        },
        {
          "internalType": "string",
          "name": "_candidateId",
          "type": "string"
        }
      ],
      "name": "getCertificate",
      "outputs": [
        {
          "components": [
            {
              "internalType": "string",
              "name": "candidateId",
              "type": "string"
            },
            {
              "internalType": "string",
              "name": "candidateName",
              "type": "string"
            },
            {
              "internalType": "string",
              "name": "degreeName",
              "type": "string"
            },
            {
              "internalType": "string",
              "name": "departmentName",
              "type": "string"
            },
            {
              "internalType": "string",
              "name": "instituteAcronym",
              "type": "string"
            },
            {
              "internalType": "string",
              "name": "issueDate",
              "type": "string"
            },
            {
              "internalType": "uint256",
              "name": "timestamp",
              "type": "uint256"
            },
            {
              "internalType": "bool",
              "name": "revoked",
              "type": "bool"
            },
            {
              "internalType": "bool",
              "name": "hasIpfs",
              "type": "bool"
            }
          ],
          "internalType": "struct Certification.Certificate",
          "name": "cert",
          "type": "tuple"
        },
        {
          "components": [
            {
              "internalType": "string",
              "name": "fatherName",
              "type": "string"
            },
            {
              "internalType": "string",
              "name": "motherName",
              "type": "string"
            },
            {
              "internalType": "string",
              "name": "cgpa",
              "type": "string"
            },
            {
              "internalType": "string",
              "name": "session",
              "type": "string"
            },
            {
              "internalType": "string",
              "name": "instituteName",
              "type": "string"
            },
            {
              "internalType": "string",
              "name": "instituteAddress",
              "type": "string"
            },
            {
              "internalType": "string",
              "name": "instituteLink",
              "type": "string"
            }
          ],
          "internalType": "struct Certification.CertificateDetails",
          "name": "details",
          "type": "tuple"
        },
        {
          "internalType": "string",
          "name": "ipfsHash",
          "type": "string"
        },
        {
          "internalType": "bool",
          "name": "exists",
          "type": "bool"
        }
      ],
      "stateMutability": "view",
      "type": "function"
    },
    {
      "inputs": [
        {
          "internalType": "address",
          "name": "instituteAddress",
          "type": "address"
        },
        {
          "internalType": "bytes32",
          "name": "certificateId",
          "type": "bytes32"
        }
      ],
      "name": "getCertificateById",
      "outputs": [
        {
          "components": [
            {
              "internalType": "string",
              "name": "candidateId",
              "type": "string"
            },
            {
              "internalType": "string",
              "name": "candidateName",
              "type": "string"
            },
            {
              "internalType": "string",
              "name": "degreeName",
              "type": "string"
            },
            {
              "internalType": "string",
              "name": "departmentName",
              "type": "string"
            },
            {
              "internalType": "string",
              "name": "instituteAcronym",
              "type": "string"
            },
            {
              "internalType": "string",
              "name": "issueDate",
              "type": "string"
            },
            {
              "internalType": "uint256",
              "name": "timestamp",
              "type": "uint256"
            },
            {
              "internalType": "bool",
              "name": "revoked",
              "type": "bool"
            },
            {
              "internalType": "bool",
              "name": "hasIpfs",
              "type": "bool"
            }
          ],
          "internalType": "struct Certification.Certificate",
          "name": "cert",
          "type": "tuple"
        },
        {
          "components": [
            {
              "internalType": "string",
              "name": "fatherName",
              "type": "string"
            },
            {
              "internalType": "string",
              "name": "motherName",
              "type": "string"
            },
            {
              "internalType": "string",
              "name": "cgpa",
              "type": "string"
            },
            {
              "internalType": "string",
              "name": "session",
              "type": "string"
            },
            {
              "internalType": "string",
              "name": "instituteName",
              "type": "string"
            },
            {
              "internalType": "string",
              "name": "instituteAddress",
              "type": "string"
            },
            {
              "internalType": "string",
              "name": "instituteLink",
              "type": "string"
            }
          ],
          "internalType": "struct Certification.CertificateDetails",
          "name": "details",
          "type": "tuple"
        },
        {
          "internalType": "string",
          "name": "ipfsHash",
          "type": "string"
        },
        {
          "internalType": "bool",
          "name": "exists",
          "type": "bool"
        }
      ],
      "stateMutability": "view",
      "type": "function"
    },
    {
      "inputs": [
        {
          "internalType": "address",
          "name": "instituteAddress",
          "type": "address"
        },
        {
          "internalType": "uint256",
          "name": "offset",
          "type": "uint256"
        },
        {
          "internalType": "uint256",
          "name": "limit",
          "type": "uint256"
        }
      ],
      "name": "getInstituteCertificates",
      "outputs": [
        {
          "internalType": "bytes32[]",
          "name": "",
          "type": "bytes32[]"
        },
        {
          "internalType": "uint256",
          "name": "total",
          "type": "uint256"
        }
      ],
      "stateMutability": "view",
      "type": "function"
    },
    {
      "inputs": [
        {
          "internalType": "address",
          "name": "instituteAddress",
          "type": "address"
        }
      ],
      "name": "getTotalCertificatesCount",
      "outputs": [
        {
          "internalType": "uint256",
          "name": "",
          "type": "uint256"
        }
      ],
      "stateMutability": "view",
      "type": "function"
    },
    {
      "inputs": [],
      "name": "institution",
      "outputs": [
        {
          "internalType": "contract Institution",
          "name": "",
          "type": "address"
        }
      ],
      "stateMutability": "view",
      "type": "function"
    },
    {
      "inputs": [],
      "name": "owner",
      "outputs": [
        {
          "internalType": "address",
          "name": "",
          "type": "address"
        }
      ],
      "stateMutability": "view",
      "type": "function"
    },
    {
      "inputs": [
        {
          "internalType": "string",
          "name": "_candidateId",
          "type": "string"
        }
      ],
      "name": "revokeCertificate",
      "outputs": [],
      "stateMutability": "nonpayable",
      "type": "function"
    },
    {
      "inputs": [
        {
          "internalType": "address",
          "name": "instituteAddress",
          "type": "address"
        },
        {
          "internalType": "string",
          "name": "query",
          "type": "string"
        },
        {
          "internalType": "uint256",
          "name": "offset",
          "type": "uint256"
        },
        {
          "internalType": "uint256",
          "name": "limit",
          "type": "uint256"
        }
      ],
      "name": "searchCertificates",
      "outputs": [
        {
          "internalType": "bytes32[]",
          "name": "",
          "type": "bytes32[]"
        },
        {
          "internalType": "uint256",
          "name": "total",
          "type": "uint256"
        }
      ],
      "stateMutability": "view",
      "type": "function"
    },
    {
      "inputs": [
        {
          "internalType": "string",
          "name": "_candidateId",
          "type": "string"
        },
        {
          "internalType": "string",
          "name": "_ipfsHash",
          "type": "string"
        }
      ],
      "name": "updateCertificateIpfs",
      "outputs": [],
      "stateMutability": "nonpayable",
      "type": "function"
    },
    {
      "inputs": [
        {
          "internalType": "address",
          "name": "instituteAddress",
          "type": "address"
        },
        {
          "internalType": "string",
          "name": "_candidateId",
          "type": "string"
        }
      ],
      "name": "verifyCertificate",
      "outputs": [
        {
          "internalType": "bool",
          "name": "exists",
          "type": "bool"
        },
        {
          "internalType": "bool",
          "name": "valid",
          "type": "bool"
        },
        {
          "internalType": "bool",
          "name": "revoked",
          "type": "bool"
        },
        {
          "internalType": "bool",
          "name": "hasIpfs",
          "type": "bool"
        },
        {
          "internalType": "string",
          "name": "instituteAcronym",
          "type": "string"
        }
      ],
      "stateMutability": "view",
      "type": "function"
    }
  ],
  "bytecode": "0x608034607e57601f6140a538819003918201601f19168301916001600160401b03831184841017608357808492602094604052833981010312607e57516001600160a01b03811690819003607e57600080546001600160a01b031990811633179091556001805490911691909117905560405161400b908161009a8239f35b600080fd5b634e487b7160e01b600052604160045260246000fdfe60c0604052600436101561001257600080fd5b60003560e01c8063030ef9021461358157806303c6a84314613260578063142e1542146130ce57806314c855e01461309457806326bf0f031461303257806332cc82b314612f775780634421999814612f3e5780635e59cbf514611a355780637f18b371146118895780638da5cb5b14611860578063d1384eb614611837578063f1db14a11461167f5763f2919dbc146100ab57600080fd5b3461167257610120366003190112611672576004356001600160401b038111611672576100dc9036906004016138d2565b6024356001600160401b038111611672576100fb9036906004016138d2565b906044356001600160401b0381116116725761011b9036906004016138d2565b916064356001600160401b0381116116725761013b9036906004016138d2565b6084356001600160401b0381116116725761015a9036906004016138d2565b60a4356001600160401b038111611672576101799036906004016138d2565b9060c4356001600160401b038111611672576101999036906004016138d2565b9260e4356001600160401b038111611672576101b99036906004016138d2565b96610104356001600160401b038111611672576101da9036906004016138d2565b600154604051632cd4338f60e21b815233600482015291979190602090829060249082906001600160a01b03165afa80156115bc5760009061163f575b61022191506139ac565b60148851116116085787518151036115ca5760005b88518110156115c8578088888888888f968f8061025f6102588d948d94613c31565b5133613950565b3360005260026020526040600020906000526020526102826040600020546139f8565b1561029a575b50505050505050506001915001610236565b9688998998978998978998978998978998978998976102ba8a809a613c31565b519f6102c591613c31565b519d6102d091613c31565b519b6102db91613c31565b51996102e691613c31565b51976102f191613c31565b51956102fc91613c31565b519261030791613c31565b519261031291613c31565b51602060a081905260405198919061032a908a6135ef565b600089526103388a33613950565b608052600154604051637c0edcdf60e01b81523360048201529290839081906001600160a01b03165a92602491600094fa9182156115bc578b92600097889989928a978b91611581575b5061038c90613de9565b8d511515946040519661039e886135b8565b875260a05187015260408601526060850152608084015260a08301524260c0830152600060e083015261010082015233600052600260a05152604060002060805160005260a05152604060002081518051906001600160401b038211610ae357819061040a84546139f8565b601f811161152c575b5060a05190601f83116001146114be576000926114b3575b50508160011b916000199060031b1c19161781555b60a0518201518051906001600160401b038211610ae357819061046660018501546139f8565b601f811161145b575b5060a05190601f83116001146113e7576000926113dc575b50508160011b916000199060031b1c19161760018201555b60408201518051906001600160401b038211610ae35781906104c460028501546139f8565b601f8111611384575b5060a05190601f831160011461131057600092611305575b50508160011b916000199060031b1c19161760028201555b60608201518051906001600160401b038211610ae357819061052260038501546139f8565b601f81116112ad575b5060a05190601f83116001146112395760009261122e575b50508160011b916000199060031b1c19161760038201555b60808201518051906001600160401b038211610ae357819061058060048501546139f8565b601f81116111d6575b5060a05190601f831160011461116257600092611157575b50508160011b916000199060031b1c19161760048201555b60a08201518051906001600160401b038211610ae3576105dc60058401546139f8565b601f811161110a575b5060a05190601f831160011461108e579282610100936007936106639796600092611083575b50508160011b916000199060031b1c19161760058201555b60c08401516006820155019161064b60e08201511515849060ff801983541691151516179055565b0151815461ff00191690151560081b61ff0016179055565b60405196610670886135d4565b875260a051870195865260408701918252606087019283526080870193845260a0870194855260c087015233600052600360a05152604060002060805160005260a0515260406000209486518051906001600160401b038211610ae35781906106d989546139f8565b601f811161102e575b5060a05190601f8311600114610fc057600092610fb5575b50508160011b916000199060031b1c19161786555b518051906001600160401b038211610ae357819061073060018901546139f8565b601f8111610f5d575b5060a05190601f8311600114610ee957600092610ede575b50508160011b916000199060031b1c19161760018601555b51805160028601916001600160401b038211610ae357819061078b84546139f8565b601f8111610e89575b5060a05190601f8311600114610e2157600092610e16575b50508160011b916000199060031b1c19161790555b51805160038501916001600160401b038211610ae35781906107e384546139f8565b601f8111610dc1575b5060a05190601f8311600114610d5957600092610d4e575b50508160011b916000199060031b1c19161790555b51805160048401916001600160401b038211610ae357819061083b84546139f8565b601f8111610cf9575b5060a05190601f8311600114610c9157600092610c86575b50508160011b916000199060031b1c19161790555b51805160058301916001600160401b038211610ae35761089183546139f8565b601f8111610c3c575b5060a05190601f8311600114610bcc5791806006949260c09694600092610bc1575b50508160011b916000199060031b1c19161790555b019101518051906001600160401b038211610ae35781906108f284546139f8565b601f8111610b6c575b5060a05190601f8311600114610b0457600092610af9575b50508160011b916000199060031b1c19161790555b80516109a1575b509060019133600052600560a0515261094e6080516040600020613e35565b6040519060a05182527f58a5052eff362f1c838fce97c06205f2581b3498aeefb19d0bea99edea20cd9633928061098d6080519460a0518301906136d7565b0390a38a91508888888888888f8990610288565b33600052600460a05152604060002060805160005260a051526040600020908051906001600160401b038211610ae3576109db83546139f8565b601f8111610a99575b5060a05190601f8311600114610a2a576001959493929160009183610a1f575b5050600019600383901b1c191690851b1790555b909161092f565b015190503880610a04565b90601f198316918460005260a0516000209260005b818110610a8057509160019796959492918389959310610a67575b505050811b019055610a18565b015160001960f88460031b161c19169055388080610a5a565b82840151855560a0516001909501949384019301610a3f565b8360005260a051600020601f840160051c81019160a0518510610ad9575b601f0160051c01905b818110610acd57506109e4565b60008155600101610ac0565b9091508190610ab7565b634e487b7160e01b600052604160045260246000fd5b015190503880610913565b600085815260a05181209350601f198516905b818110610b535750908460019594939210610b3a575b505050811b019055610928565b015160001960f88460031b161c19169055388080610b2d565b82840151855560a0516001909501949384019301610b17565b9091508360005260a051600020601f840160051c81019160a0518510610bb7575b90601f859493920160051c01905b818110610ba857506108fb565b60008155849350600101610b9b565b9091508190610b8d565b0151905038806108bc565b90601f198316918460005260a0516000209260005b818110610c23575092600192859260c098966006989610610c0a575b505050811b0190556108d1565b015160001960f88460031b161c19169055388080610bfd565b82840151855560a0516001909501949384019301610be1565b8360005260a051600020601f840160051c81019160a0518510610c7c575b601f0160051c01905b818110610c70575061089a565b60008155600101610c63565b9091508190610c5a565b01519050388061085c565b600085815260a05181209350601f198516905b818110610ce05750908460019594939210610cc7575b505050811b019055610871565b015160001960f88460031b161c19169055388080610cba565b82840151855560a0516001909501949384019301610ca4565b9091508360005260a051600020601f840160051c81019160a0518510610d44575b90601f859493920160051c01905b818110610d355750610844565b60008155849350600101610d28565b9091508190610d1a565b015190503880610804565b600085815260a05181209350601f198516905b818110610da85750908460019594939210610d8f575b505050811b019055610819565b015160001960f88460031b161c19169055388080610d82565b82840151855560a0516001909501949384019301610d6c565b9091508360005260a051600020601f840160051c81019160a0518510610e0c575b90601f859493920160051c01905b818110610dfd57506107ec565b60008155849350600101610df0565b9091508190610de2565b0151905038806107ac565b600085815260a05181209350601f198516905b818110610e705750908460019594939210610e57575b505050811b0190556107c1565b015160001960f88460031b161c19169055388080610e4a565b82840151855560a0516001909501949384019301610e34565b9091508360005260a051600020601f840160051c81019160a0518510610ed4575b90601f859493920160051c01905b818110610ec55750610794565b60008155849350600101610eb8565b9091508190610eaa565b015190503880610751565b92506001880160005260a051600020906000935b601f1984168510610f41576001945083601f19811610610f28575b505050811b016001860155610769565b015160001960f88460031b161c19169055388080610f18565b81810151835560a0519485019460019093019290910190610efd565b9091506001880160005260a051600020601f840160051c81019160a0518510610fab575b90601f859493920160051c01905b818110610f9c5750610739565b60008155849350600101610f8f565b9091508190610f81565b0151905038806106fa565b92508860005260a051600020906000935b601f1984168510611012576001945083601f19811610610ff9575b505050811b01865561070f565b015160001960f88460031b161c19169055388080610fec565b81810151835560a0519485019460019093019290910190610fd1565b9091508860005260a051600020601f840160051c81019160a0518510611079575b90601f859493920160051c01905b81811061106a57506106e2565b6000815584935060010161105d565b909150819061104f565b01519050388061060b565b906005840160005260a0516000209160005b601f19851681106110f157508360079361066397969360019361010097601f198116106110d8575b505050811b016005820155610623565b015160001960f88460031b161c191690553880806110c8565b81830151845560a05160019094019392830192016110a0565b6005840160005260a051600020601f840160051c81019160a051851061114d575b601f0160051c01905b81811061114157506105e5565b60008155600101611134565b909150819061112b565b0151905038806105a1565b92506004840160005260a051600020906000935b601f19841685106111ba576001945083601f198116106111a1575b505050811b0160048201556105b9565b015160001960f88460031b161c19169055388080611191565b81810151835560a0519485019460019093019290910190611176565b9091506004840160005260a051600020601f840160051c81019160a0518510611224575b90601f859493920160051c01905b8181106112155750610589565b60008155849350600101611208565b90915081906111fa565b015190503880610543565b92506003840160005260a051600020906000935b601f1984168510611291576001945083601f19811610611278575b505050811b01600382015561055b565b015160001960f88460031b161c19169055388080611268565b81810151835560a051948501946001909301929091019061124d565b9091506003840160005260a051600020601f840160051c81019160a05185106112fb575b90601f859493920160051c01905b8181106112ec575061052b565b600081558493506001016112df565b90915081906112d1565b0151905038806104e5565b92506002840160005260a051600020906000935b601f1984168510611368576001945083601f1981161061134f575b505050811b0160028201556104fd565b015160001960f88460031b161c1916905538808061133f565b81810151835560a0519485019460019093019290910190611324565b9091506002840160005260a051600020601f840160051c81019160a05185106113d2575b90601f859493920160051c01905b8181106113c357506104cd565b600081558493506001016113b6565b90915081906113a8565b015190503880610487565b92506001840160005260a051600020906000935b601f198416851061143f576001945083601f19811610611426575b505050811b01600182015561049f565b015160001960f88460031b161c19169055388080611416565b81810151835560a05194850194600190930192909101906113fb565b9091506001840160005260a051600020601f840160051c81019160a05185106114a9575b90601f859493920160051c01905b81811061149a575061046f565b6000815584935060010161148d565b909150819061147f565b01519050388061042b565b92508360005260a051600020906000935b601f1984168510611510576001945083601f198116106114f7575b505050811b018155610440565b015160001960f88460031b161c191690553880806114ea565b81810151835560a05194850194600190930192909101906114cf565b9091508360005260a051600020601f840160051c81019160a0518510611577575b90601f859493920160051c01905b8181106115685750610413565b6000815584935060010161155b565b909150819061154d565b929750509861038c9a506115a792503d8091833e61159f81836135ef565b810190613d38565b5050505097929a919b90939a9b939790610382565b6040513d6000823e3d90fd5b005b60405162461bcd60e51b8152602060048201526016602482015275082e4e4c2f2e640d8cadccee8d040dad2e6dac2e8c6d60531b6044820152606490fd5b60405162461bcd60e51b815260206004820152600f60248201526e426174636820746f6f206c6172676560881b6044820152606490fd5b506020813d602011611677575b81611659602093836135ef565b810103126116725761166d6102219161399f565b610217565b600080fd5b3d915061164c565b34611672576040366003190112611672576116986135a2565b602435906116a4613a7e565b506116ad613ac7565b5060018060a01b03169081600052600260205260406000208160005260205260406000209060ff6007604051936116e3856135b8565b6116ec81613afd565b85526116fa60018201613afd565b602086015261170b60028201613afd565b604086015261171c60038201613afd565b606086015261172d60048201613afd565b608086015261173e60058201613afd565b60a0860152600681015460c08601520154818116151560e085015260081c1615156101008301528260005260036020526040600020816000526020526040600020926117f8600660405195611792876135d4565b61179b81613afd565b87526117a960018201613afd565b60208801526117ba60028201613afd565b60408801526117cb60038201613afd565b60608801526117dc60048201613afd565b60808801526117ed60058201613afd565b60a088015201613afd565b60c085015260005260046020526040600020906000526020526118336118216040600020613afd565b825151151590604051948594856136fc565b0390f35b34611672576000366003190112611672576001546040516001600160a01b039091168152602090f35b34611672576000366003190112611672576000546040516001600160a01b039091168152602090f35b34611672576080366003190112611672576118a26135a2565b6024356001600160401b038111611672576118c190369060040161362b565b6001600160a01b03909116600081815260056020526040902060643591906118e883613ba1565b936000928384958454965b8781106119df57506044355b878110806119d6575b1561198f5783600052600260205260406000206119258288613c03565b90549060031b1c60005260205261194b856119466001604060002001613afd565b613f34565b61195e575b61195990613e6f565b6118ff565b95611987611959916119708989613c03565b90549060031b1c611981828d613c31565b52613e6f565b969050611950565b88838861199b81613ba1565b9060005b8181106119b757505061183360405192839283613876565b806119c460019287613c31565b516119cf8286613c31565b520161199f565b50818710611908565b8387526002602052604087206119f58288613c03565b90549060031b1c8852602052611a1485611946600160408b2001613afd565b611a21575b6001016118f3565b91611a2d600191613e6f565b929050611a19565b3461167257610140366003190112611672576004356001600160401b03811161167257611a6690369060040161362b565b6024356001600160401b03811161167257611a8590369060040161362b565b6044356001600160401b03811161167257611aa490369060040161362b565b906064356001600160401b03811161167257611ac490369060040161362b565b906084356001600160401b03811161167257611ae490369060040161362b565b9260a4356001600160401b03811161167257611b0490369060040161362b565b9160c4356001600160401b03811161167257611b2490369060040161362b565b9060e4356001600160401b03811161167257611b4490369060040161362b565b610104356001600160401b03811161167257611b6490369060040161362b565b92610124356001600160401b03811161167257611b8590369060040161362b565b9660018060a01b036001541696604051632cd4338f60e21b81523360048201526020816024818c5afa80156115bc57600090612f03575b611bc691506139ac565b60038b5110612ec55760328b5111612e8857611be28b33613950565b9933600052600260205260406000208b600052602052611c066040600020546139f8565b612e4357611c1384613e8f565b15612e085760006024996040519a8b8092637c0edcdf60e01b82523360048301525afa9182156115bc5760009687988894899c8a8b918c93612dcb575b50611c5a90613de9565b15612d865715612d41578d948f938e5115159560405195611c7a876135b8565b86526020860194855260408601908152606086019182526080860192835260a0860193845260c086019442865260e087019860008a526101008801988952336000526002602052604060002090600052602052604060002096518051906001600160401b038211610ae3578190611cf18a546139f8565b601f8111612cee575b50602090601f8311600114612c8957600092612c7e575b50508160011b916000199060031b1c19161787555b51805160018801916001600160401b038211610ae3578190611d4884546139f8565b601f8111612c2b575b50602090601f8311600114612bc657600092612bbb575b50508160011b916000199060031b1c19161790555b51805160028701916001600160401b038211610ae3578190611d9f84546139f8565b601f8111612b68575b50602090601f8311600114612b0357600092612af8575b50508160011b916000199060031b1c19161790555b51805160038601916001600160401b038211610ae3578190611df684546139f8565b601f8111612aa5575b50602090601f8311600114612a4057600092612a35575b50508160011b916000199060031b1c19161790555b51805160048501916001600160401b038211610ae3578190611e4d84546139f8565b601f81116129e2575b50602090601f831160011461297d57600092612972575b50508160011b916000199060031b1c19161790555b51805160058401916001600160401b038211610ae357611ea283546139f8565b601f811161292a575b50602090601f83116001146128b6579282611f1c98979693611f0596936007966000926128ab575b50508160011b916000199060031b1c19161790555b5160068201550192511515839060ff801983541691151516179055565b51815461ff00191690151560081b61ff0016179055565b60405195611f29876135d4565b86526020860190815260408601918252606086019283526080860193845260a0860194855260c08601968752336000526003602052604060002089600052602052604060002095518051906001600160401b038211610ae3578190611f8e89546139f8565b601f8111612858575b50602090601f83116001146127f3576000926127e8575b50508160011b916000199060031b1c19161786555b51805160018701916001600160401b038211610ae3578190611fe584546139f8565b601f8111612795575b50602090601f831160011461273057600092612725575b50508160011b916000199060031b1c19161790555b51805160028601916001600160401b038211610ae357819061203c84546139f8565b601f81116126d2575b50602090601f831160011461266d57600092612662575b50508160011b916000199060031b1c19161790555b51805160038501916001600160401b038211610ae357819061209384546139f8565b601f811161260f575b50602090601f83116001146125aa5760009261259f575b50508160011b916000199060031b1c19161790555b51805160048401916001600160401b038211610ae35781906120ea84546139f8565b601f811161254c575b50602090601f83116001146124e7576000926124dc575b50508160011b916000199060031b1c19161790555b51805160058301916001600160401b038211610ae35761213f83546139f8565b601f8111612494575b50602090601f8311600114612429576006949392916000918361241e575b50508160011b916000199060031b1c19161790555b0190518051906001600160401b038211610ae357819061219b84546139f8565b601f81116123cb575b50602090601f83116001146123665760009261235b575b50508160011b916000199060031b1c19161790555b805161222c575b503360005260056020526121ef816040600020613e35565b7f58a5052eff362f1c838fce97c06205f2581b3498aeefb19d0bea99edea20cd966040516020815280612227339560208301906136d7565b0390a3005b9190336000526004602052604060002081600052602052604060002083516001600160401b038111610ae35761226282546139f8565b601f8111612313575b50602094601f82116001146122ae579481929394956000926122a3575b50508160011b916000199060031b1c19161790555b826121d7565b015190508580612288565b601f1982169583600052806000209160005b8881106122fb575083600195969798106122e2575b505050811b01905561229d565b015160001960f88460031b161c191690558580806122d5565b919260206001819286850151815501940192016122c0565b826000526020600020601f830160051c81019160208410612351575b601f0160051c01905b818110612345575061226b565b60008155600101612338565b909150819061232f565b0151905086806121bb565b60008581528281209350601f198516905b8181106123b3575090846001959493921061239a575b505050811b0190556121d0565b015160001960f88460031b161c1916905586808061238d565b92936020600181928786015181550195019301612377565b909150836000526020600020601f840160051c81019160208510612414575b90601f859493920160051c01905b81811061240557506121a4565b600081558493506001016123f8565b90915081906123ea565b015190508980612166565b90601f1983169184600052816000209260005b81811061247c575091600193918560069897969410612463575b505050811b01905561217b565b015160001960f88460031b161c19169055898080612456565b9293602060018192878601518155019501930161243c565b836000526020600020601f840160051c810191602085106124d2575b601f0160051c01905b8181106124c65750612148565b600081556001016124b9565b90915081906124b0565b01519050898061210a565b60008581528281209350601f198516905b818110612534575090846001959493921061251b575b505050811b01905561211f565b015160001960f88460031b161c1916905589808061250e565b929360206001819287860151815501950193016124f8565b909150836000526020600020601f840160051c81019160208510612595575b90601f859493920160051c01905b81811061258657506120f3565b60008155849350600101612579565b909150819061256b565b015190508a806120b3565b60008581528281209350601f198516905b8181106125f757509084600195949392106125de575b505050811b0190556120c8565b015160001960f88460031b161c191690558a80806125d1565b929360206001819287860151815501950193016125bb565b909150836000526020600020601f840160051c81019160208510612658575b90601f859493920160051c01905b818110612649575061209c565b6000815584935060010161263c565b909150819061262e565b015190508b8061205c565b60008581528281209350601f198516905b8181106126ba57509084600195949392106126a1575b505050811b019055612071565b015160001960f88460031b161c191690558b8080612694565b9293602060018192878601518155019501930161267e565b909150836000526020600020601f840160051c8101916020851061271b575b90601f859493920160051c01905b81811061270c5750612045565b600081558493506001016126ff565b90915081906126f1565b015190508c80612005565b60008581528281209350601f198516905b81811061277d5750908460019594939210612764575b505050811b01905561201a565b015160001960f88460031b161c191690558c8080612757565b92936020600181928786015181550195019301612741565b909150836000526020600020601f840160051c810191602085106127de575b90601f859493920160051c01905b8181106127cf5750611fee565b600081558493506001016127c2565b90915081906127b4565b015190508c80611fae565b60008a81528281209350601f198516905b8181106128405750908460019594939210612827575b505050811b018655611fc3565b015160001960f88460031b161c191690558c808061281a565b92936020600181928786015181550195019301612804565b909150886000526020600020601f840160051c810191602085106128a1575b90601f859493920160051c01905b8181106128925750611f97565b60008155849350600101612885565b9091508190612877565b015190503880611ed3565b90601f1983169184600052816000209260005b818110612912575093611f0596936007969360019383611f1c9d9c9b98106128f9575b505050811b019055611ee8565b015160001960f88460031b161c191690553880806128ec565b929360206001819287860151815501950193016128c9565b836000526020600020601f840160051c81019160208510612968575b601f0160051c01905b81811061295c5750611eab565b6000815560010161294f565b9091508190612946565b015190503880611e6d565b60008581528281209350601f198516905b8181106129ca57509084600195949392106129b1575b505050811b019055611e82565b015160001960f88460031b161c191690553880806129a4565b9293602060018192878601518155019501930161298e565b909150836000526020600020601f840160051c81019160208510612a2b575b90601f859493920160051c01905b818110612a1c5750611e56565b60008155849350600101612a0f565b9091508190612a01565b015190503880611e16565b60008581528281209350601f198516905b818110612a8d5750908460019594939210612a74575b505050811b019055611e2b565b015160001960f88460031b161c19169055388080612a67565b92936020600181928786015181550195019301612a51565b909150836000526020600020601f840160051c81019160208510612aee575b90601f859493920160051c01905b818110612adf5750611dff565b60008155849350600101612ad2565b9091508190612ac4565b015190503880611dbf565b60008581528281209350601f198516905b818110612b505750908460019594939210612b37575b505050811b019055611dd4565b015160001960f88460031b161c19169055388080612b2a565b92936020600181928786015181550195019301612b14565b909150836000526020600020601f840160051c81019160208510612bb1575b90601f859493920160051c01905b818110612ba25750611da8565b60008155849350600101612b95565b9091508190612b87565b015190503880611d68565b60008581528281209350601f198516905b818110612c135750908460019594939210612bfa575b505050811b019055611d7d565b015160001960f88460031b161c19169055388080612bed565b92936020600181928786015181550195019301612bd7565b909150836000526020600020601f840160051c81019160208510612c74575b90601f859493920160051c01905b818110612c655750611d51565b60008155849350600101612c58565b9091508190612c4a565b015190503880611d11565b60008b81528281209350601f198516905b818110612cd65750908460019594939210612cbd575b505050811b018755611d26565b015160001960f88460031b161c19169055388080612cb0565b92936020600181928786015181550195019301612c9a565b909150896000526020600020601f840160051c81019160208510612d37575b90601f859493920160051c01905b818110612d285750611cfa565b60008155849350600101612d1b565b9091508190612d0d565b60405162461bcd60e51b815260206004820152601c60248201527f496e7374697475746520686173206e6f206465706172746d656e7473000000006044820152606490fd5b60405162461bcd60e51b815260206004820152601860248201527f496e7374697475746520686173206e6f206465677265657300000000000000006044820152606490fd5b949e5050505097611c5a9950612dec9294503d8091833e61159f81836135ef565b93925093989690509e949b939c909e9b9c979e92919290611c50565b60405162461bcd60e51b8152602060048201526013602482015272125b9d985b1a590810d1d41048199bdc9b585d606a1b6044820152606490fd5b60405162461bcd60e51b815260206004820152601a60248201527f436572746966696361746520616c7265616479206578697374730000000000006044820152606490fd5b60405162461bcd60e51b815260206004820152601560248201527443616e64696461746520494420746f6f206c6f6e6760581b6044820152606490fd5b60405162461bcd60e51b815260206004820152601660248201527510d85b991a59185d19481251081d1bdbc81cda1bdc9d60521b6044820152606490fd5b506020813d602011612f36575b81612f1d602093836135ef565b8101031261167257612f31611bc69161399f565b611bbc565b3d9150612f10565b3461167257606036600319011261167257612f67612f5a6135a2565b6044359060243590613c45565b9061183360405192839283613876565b3461167257612f8536613672565b906000916000918290612f9a60609382613950565b9060018060a01b031684526002602052604084209084526020526040832092612fc384546139f8565b15159384613001575b50906118339291604051958695865215156020860152151560408501521515606084015260a0608084015260a08301906136d7565b945050505061183360078301549260ff841690613029600460ff84159760081c169201613afd565b92919091612fcc565b346116725761305e61304336613672565b61304e929192613a7e565b50613057613ac7565b5082613950565b9060018060a01b03169081600052600260205260406000208160005260205260406000209060ff6007604051936116e3856135b8565b34611672576020366003190112611672576001600160a01b036130b56135a2565b1660005260056020526020604060002054604051908152f35b34611672576020366003190112611672576004356001600160401b03811161167257613100602491369060040161362b565b600154604051632cd4338f60e21b81523360048201529260209184919082906001600160a01b03165afa9182156115bc5760009261321f575b50613146613183926139ac565b6131508133613950565b33600052600260205260406000209060005260205261317d6131766040600020546139f8565b1515613a32565b33613950565b3360005260026020526040600020816000526020526007604060002001805460ff81166131da5760ff191660011790557f44d80a438cb4fa3b5aedbe551ce3d9382e37f446917b783e1dee70a03b4180e3600080a2005b60405162461bcd60e51b815260206004820152601b60248201527f436572746966696361746520616c7265616479207265766f6b656400000000006044820152606490fd5b91506020823d602011613258575b8161323a602093836135ef565b81010312611672576131466132516131839361399f565b9250613139565b3d915061322d565b34611672576040366003190112611672576004356001600160401b0381116116725761329090369060040161362b565b6024356001600160401b038111611672576132b1602491369060040161362b565b600154604051632cd4338f60e21b81523360048201529193919260209184919082906001600160a01b03165afa9182156115bc57600092613540575b506131466132fa926139ac565b90336000526002602052604060002082600052602052600760406000200160ff815416613502578151156134bd57336000526004602052604060002083600052602052604060002082516001600160401b038111610ae35761335c82546139f8565b601f8111613475575b506020601f82116001146133ea5791816133da94927f95f50f4d9ab0ad4105193b40ad68af3f5c3eec45f287f87f47cd1062a33950e396946000916133df575b508160011b916000199060031b1c19161790555b61010061ff00198254161790556040519182916020835260208301906136d7565b0390a2005b9050840151886133a5565b601f1982169083600052806000209160005b81811061345d5750927f95f50f4d9ab0ad4105193b40ad68af3f5c3eec45f287f87f47cd1062a33950e3969492600192826133da989610613444575b5050811b0190556133b9565b86015160001960f88460031b161c191690558880613438565b9192602060018192868b0151815501940192016133fc565b826000526020600020601f830160051c810191602084106134b3575b601f0160051c01905b8181106134a75750613365565b6000815560010161349a565b9091508190613491565b60405162461bcd60e51b815260206004820152601960248201527f4950465320686173682063616e6e6f7420626520656d707479000000000000006044820152606490fd5b60405162461bcd60e51b815260206004820152601660248201527510d95c9d1a599a58d85d19481a5cc81c995d9bdad95960521b6044820152606490fd5b91506020823d602011613579575b8161355b602093836135ef565b81010312611672576131466135726132fa9361399f565b92506132ed565b3d915061354e565b3461167257602061359a61359436613672565b90613950565b604051908152f35b600435906001600160a01b038216820361167257565b61012081019081106001600160401b03821117610ae357604052565b60e081019081106001600160401b03821117610ae357604052565b90601f801991011681019081106001600160401b03821117610ae357604052565b6001600160401b038111610ae357601f01601f191660200190565b81601f820112156116725780359061364282613610565b9261365060405194856135ef565b8284526020838301011161167257816000926020809301838601378301015290565b906040600319830112611672576004356001600160a01b03811681036116725791602435906001600160401b038211611672576136b19160040161362b565b90565b60005b8381106136c75750506000910152565b81810151838201526020016136b7565b906020916136f0815180928185528580860191016136b4565b601f01601f1916010190565b9261386060609361386e93979697608087526101006137a861379161377c6137676137516137398d6101a0895191610120608082015201906136d7565b8d60208901519060a0607f19828503019101526136d7565b60408701518d8203607f190160c08f01526136d7565b858b01518c8203607f190160e08e01526136d7565b60808501518b8203607f1901858d01526136d7565b60a08401518a8203607f19016101208c01526136d7565b9160c08101516101408a015260e081015115156101608a015201511515610180880152868103602088015260c061384f61383d61382b61381b6138096137f7885160e0895260e08901906136d7565b602089015188820360208a01526136d7565b604088015187820360408901526136d7565b8a8701518682038c8801526136d7565b608086015185820360808701526136d7565b60a085015184820360a08601526136d7565b9201519060c08184039101526136d7565b9084820360408601526136d7565b931515910152565b929190604084019060408552805180925260206060860191019160005b8181106138a557505060209150930152565b8351835260209384019390920191600101613893565b6001600160401b038111610ae35760051b60200190565b9080601f830112156116725781356138e9816138bb565b926138f760405194856135ef565b81845260208085019260051b820101918383116116725760208201905b83821061392357505050505090565b81356001600160401b038111611672576020916139458784809488010161362b565b815201910190613914565b906139996034604051809360208201956bffffffffffffffffffffffff199060601b16865261398881518092602086860191016136b4565b81010301601f1981018352826135ef565b51902090565b5190811515820361167257565b156139b357565b60405162461bcd60e51b815260206004820152601a60248201527f4e6f742061207265676973746572656420696e737469747574650000000000006044820152606490fd5b90600182811c92168015613a28575b6020831014613a1257565b634e487b7160e01b600052602260045260246000fd5b91607f1691613a07565b15613a3957565b60405162461bcd60e51b815260206004820152601a60248201527f436572746966696361746520646f6573206e6f742065786973740000000000006044820152606490fd5b60405190613a8b826135b8565b60006101008360608152606060208201526060604082015260608082015260606080820152606060a08201528260c08201528260e08201520152565b60405190613ad4826135d4565b606060c08382815282602082015282604082015282808201528260808201528260a08201520152565b9060405191826000825492613b11846139f8565b8084529360018116908115613b7f5750600114613b38575b50613b36925003836135ef565b565b90506000929192526020600020906000915b818310613b63575050906020613b369282010138613b29565b6020919350806001915483858901015201910190918492613b4a565b905060209250613b3694915060ff191682840152151560051b82010138613b29565b90613bab826138bb565b613bb860405191826135ef565b8281528092613bc9601f19916138bb565b0190602036910137565b91908201809211613be057565b634e487b7160e01b600052601160045260246000fd5b91908203918211613be057565b8054821015613c1b5760005260206000200190600090565b634e487b7160e01b600052603260045260246000fd5b8051821015613c1b5760209160051b010190565b6001600160a01b031660009081526005602052604090208054939290919084821015613cd857613c759082613bd3565b90848211613cd0575b613c90613c8b8284613bf6565b613ba1565b92815b838110613ca257505050509190565b80613caf60019284613c03565b90549060031b1c613cc9613cc38684613bf6565b88613c31565b5201613c93565b849150613c7e565b505050604051613ce96020826135ef565b6000815260003681379190565b81601f82011215611672578051613d0c81613610565b92613d1a60405194856135ef565b81845260208284010111611672576136b191602080850191016136b4565b9190610120838203126116725782516001600160401b0381116116725781613d61918501613cf6565b9260208101516001600160401b0381116116725782613d81918301613cf6565b9260408201516001600160401b0381116116725783613da1918401613cf6565b926060830151906001600160401b03821161167257613dc1918401613cf6565b91613dce6080820161399f565b9160a08201519160c08101519161010060e083015192015190565b15613df057565b60405162461bcd60e51b815260206004820152601760248201527f496e73746974757465206973206e6f74206163746976650000000000000000006044820152606490fd5b805468010000000000000000811015610ae357613e5791600182018155613c03565b819291549060031b91821b91600019901b1916179055565b6000198114613be05760010190565b908151811015613c1b570160200190565b80518015908115613f29575b50613f23576000805b8251821015613f1b576001600160f81b0319613ec08385613e7e565b5116600360fc1b81101580613f0d575b15613ee1575b509060010190613ea4565b601760f91b03613f0557613ef490613e6f565b9060018211613f0557906001613ed6565b505050600090565b50603960f81b811115613ed0565b505050600190565b50600090565b600591501138613e9b565b90805182518111613f055715613fce576000905b613f558351825190613bf6565b8211613f055760019260005b8251811015613fc4576001600160f81b0319613f86613f808387613bd3565b84613e7e565b51166001600160f81b0319613f9b8386613e7e565b511603613faa57600101613f61565b5092509060005b613f1b57613fbe90613e6f565b90613f48565b5092919091613fb1565b505060019056fea2646970667358221220fc74648ecb740e24ce644917b6fa5429a28a9e11e5461ba22956c079277285b264736f6c634300081e0033",
  "linkReferences": {},
  "deployedLinkReferences": {}
}