{
  "_format": "hh-sol-artifact-1",
  "contractName": "Institution",
  "sourceName": "contracts/Institution.sol",
  "abi": [
    {
      "inputs": [],
      "stateMutability": "nonpayable",
      "type": "constructor"
    },
    {
      "anonymous": false,
      "inputs": [
        {
          "indexed": false,
          "internalType": "string",
          "name": "_instituteName",
          "type": "string"
        }
      ],
      "name": "instituteAdded",
      "type": "event"
    },
    {
      "inputs": [
        {
          "internalType": "address",
          "name": "_address",
          "type": "address"
        },
        {
          "internalType": "string",
          "name": "_institute_name",
          "type": "string"
        },
        {
          "internalType": "string",
          "name": "_institute_acronym",
          "type": "string"
        },
        {
          "internalType": "string",
          "name": "_institute_link",
          "type": "string"
        },
        {
          "components": [
            {
              "internalType": "string",
              "name": "course_name",
              "type": "string"
            }
          ],
          "internalType": "struct Institution.Course[]",
          "name": "_institute_courses",
          "type": "tuple[]"
        }
      ],
      "name": "addInstitute",
      "outputs": [
        {
          "internalType": "bool",
          "name": "",
          "type": "bool"
        }
      ],
      "stateMutability": "nonpayable",
      "type": "function"
    },
    {
      "inputs": [
        {
          "internalType": "address",
          "name": "_address",
          "type": "address"
        }
      ],
      "name": "checkInstitutePermission",
      "outputs": [
        {
          "internalType": "bool",
          "name": "",
          "type": "bool"
        }
      ],
      "stateMutability": "view",
      "type": "function"
    },
    {
      "inputs": [],
      "name": "getInstituteData",
      "outputs": [
        {
          "internalType": "string",
          "name": "",
          "type": "string"
        },
        {
          "internalType": "string",
          "name": "",
          "type": "string"
        },
        {
          "internalType": "string",
          "name": "",
          "type": "string"
        },
        {
          "components": [
            {
              "internalType": "string",
              "name": "course_name",
              "type": "string"
            }
          ],
          "internalType": "struct Institution.Course[]",
          "name": "",
          "type": "tuple[]"
        }
      ],
      "stateMutability": "view",
      "type": "function"
    },
    {
      "inputs": [
        {
          "internalType": "address",
          "name": "_address",
          "type": "address"
        }
      ],
      "name": "getInstituteData",
      "outputs": [
        {
          "internalType": "string",
          "name": "",
          "type": "string"
        },
        {
          "internalType": "string",
          "name": "",
          "type": "string"
        },
        {
          "internalType": "string",
          "name": "",
          "type": "string"
        },
        {
          "components": [
            {
              "internalType": "string",
              "name": "course_name",
              "type": "string"
            }
          ],
          "internalType": "struct Institution.Course[]",
          "name": "",
          "type": "tuple[]"
        }
      ],
      "stateMutability": "view",
      "type": "function"
    },
    {
      "inputs": [],
      "name": "owner",
      "outputs": [
        {
          "internalType": "address",
          "name": "",
          "type": "address"
        }
      ],
      "stateMutability": "view",
      "type": "function"
    },
    {
      "inputs": [
        {
          "internalType": "string",
          "name": "_newName",
          "type": "string"
        }
      ],
      "name": "updateInstituteName",
      "outputs": [],
      "stateMutability": "nonpayable",
      "type": "function"
    }
  ],
  "bytecode": "0x6080604052348015600f57600080fd5b50336000806101000a81548173ffffffffffffffffffffffffffffffffffffffff021916908373ffffffffffffffffffffffffffffffffffffffff160217905550611e528061005f6000396000f3fe608060405234801561001057600080fd5b50600436106100625760003560e01c80630334917c14610067578063086f5a14146100975780636dc80569146100b85780637c0edcdf146100d45780638da5cb5b14610107578063b350ce3c14610125575b600080fd5b610081600480360381019061007c919061133e565b610155565b60405161008e9190611444565b60405180910390f35b61009f6104d2565b6040516100af9493929190611614565b60405180910390f35b6100d260048036038101906100cd9190611675565b61086e565b005b6100ee60048036038101906100e991906116be565b610952565b6040516100fe9493929190611614565b60405180910390f35b61010f610deb565b60405161011c91906116fa565b60405180910390f35b61013f600480360381019061013a91906116be565b610e0f565b60405161014c9190611444565b60405180910390f35b60008060009054906101000a900473ffffffffffffffffffffffffffffffffffffffff1673ffffffffffffffffffffffffffffffffffffffff163373ffffffffffffffffffffffffffffffffffffffff16146101e6576040517f08c379a00000000000000000000000000000000000000000000000000000000081526004016101dd90611787565b60405180910390fd5b6000600160008873ffffffffffffffffffffffffffffffffffffffff1673ffffffffffffffffffffffffffffffffffffffff1681526020019081526020016000206000018054610235906117d6565b80601f0160208091040260200160405190810160405280929190818152602001828054610261906117d6565b80156102ae5780601f10610283576101008083540402835291602001916102ae565b820191906000526020600020905b81548152906001019060200180831161029157829003601f168201915b5050505050905060008151146102f9576040517f08c379a00000000000000000000000000000000000000000000000000000000081526004016102f090611879565b60405180910390fd5b600083511161033d576040517f08c379a0000000000000000000000000000000000000000000000000000000008152600401610334906118e5565b60405180910390fd5b604051806060016040528087815260200186815260200185815250600160008973ffffffffffffffffffffffffffffffffffffffff1673ffffffffffffffffffffffffffffffffffffffff16815260200190815260200160002060008201518160000190816103ac9190611abb565b5060208201518160010190816103c29190611abb565b5060408201518160020190816103d89190611abb565b5090505060005b835181101561048c57600260008973ffffffffffffffffffffffffffffffffffffffff1673ffffffffffffffffffffffffffffffffffffffff16815260200190815260200160002084828151811061043a57610439611b8d565b5b602002602001015190806001815401808255809150506001900390600052602060002001600090919091909150600082015181600001908161047c9190611abb565b50505080806001019150506103df565b507fcc7604fcd5c45ed3c7605e263d6c59f75739c368ef78098126fa9f54443b314f866040516104bc9190611bbc565b60405180910390a1600191505095945050505050565b6060806060806000600160003373ffffffffffffffffffffffffffffffffffffffff1673ffffffffffffffffffffffffffffffffffffffff168152602001908152602001600020604051806060016040529081600082018054610534906117d6565b80601f0160208091040260200160405190810160405280929190818152602001828054610560906117d6565b80156105ad5780601f10610582576101008083540402835291602001916105ad565b820191906000526020600020905b81548152906001019060200180831161059057829003601f168201915b505050505081526020016001820180546105c6906117d6565b80601f01602080910402602001604051908101604052809291908181526020018280546105f2906117d6565b801561063f5780601f106106145761010080835404028352916020019161063f565b820191906000526020600020905b81548152906001019060200180831161062257829003601f168201915b50505050508152602001600282018054610658906117d6565b80601f0160208091040260200160405190810160405280929190818152602001828054610684906117d6565b80156106d15780601f106106a6576101008083540402835291602001916106d1565b820191906000526020600020905b8154815290600101906020018083116106b457829003601f168201915b50505050508152505090506000816000015190506000815111610729576040517f08c379a000000000000000000000000000000000000000000000000000000000815260040161072090611c50565b60405180910390fd5b816000015182602001518360400151600260003373ffffffffffffffffffffffffffffffffffffffff1673ffffffffffffffffffffffffffffffffffffffff16815260200190815260200160002080805480602002602001604051908101604052809291908181526020016000905b82821015610858578382906000526020600020016040518060200160405290816000820180546107c7906117d6565b80601f01602080910402602001604051908101604052809291908181526020018280546107f3906117d6565b80156108405780601f1061081557610100808354040283529160200191610840565b820191906000526020600020905b81548152906001019060200180831161082357829003601f168201915b50505050508152505081526020019060010190610798565b5050505090509550955095509550505090919293565b6000600160003373ffffffffffffffffffffffffffffffffffffffff1673ffffffffffffffffffffffffffffffffffffffff16815260200190815260200160002060000180546108bd906117d6565b9050116108ff576040517f08c379a00000000000000000000000000000000000000000000000000000000081526004016108f690611cbc565b60405180910390fd5b80600160003373ffffffffffffffffffffffffffffffffffffffff1673ffffffffffffffffffffffffffffffffffffffff168152602001908152602001600020600001908161094e9190611abb565b5050565b60608060608060008054906101000a900473ffffffffffffffffffffffffffffffffffffffff1673ffffffffffffffffffffffffffffffffffffffff163373ffffffffffffffffffffffffffffffffffffffff16638da5cb5b6040518163ffffffff1660e01b8152600401602060405180830381865afa1580156109da573d6000803e3d6000fd5b505050506040513d601f19601f820116820180604052508101906109fe9190611cf1565b73ffffffffffffffffffffffffffffffffffffffff1614610a54576040517f08c379a0000000000000000000000000000000000000000000000000000000008152600401610a4b90611d90565b60405180910390fd5b6000600160008773ffffffffffffffffffffffffffffffffffffffff1673ffffffffffffffffffffffffffffffffffffffff168152602001908152602001600020604051806060016040529081600082018054610ab0906117d6565b80601f0160208091040260200160405190810160405280929190818152602001828054610adc906117d6565b8015610b295780601f10610afe57610100808354040283529160200191610b29565b820191906000526020600020905b815481529060010190602001808311610b0c57829003601f168201915b50505050508152602001600182018054610b42906117d6565b80601f0160208091040260200160405190810160405280929190818152602001828054610b6e906117d6565b8015610bbb5780601f10610b9057610100808354040283529160200191610bbb565b820191906000526020600020905b815481529060010190602001808311610b9e57829003601f168201915b50505050508152602001600282018054610bd4906117d6565b80601f0160208091040260200160405190810160405280929190818152602001828054610c00906117d6565b8015610c4d5780601f10610c2257610100808354040283529160200191610c4d565b820191906000526020600020905b815481529060010190602001808311610c3057829003601f168201915b50505050508152505090506000816000015190506000815111610ca5576040517f08c379a0000000000000000000000000000000000000000000000000000000008152600401610c9c90611dfc565b60405180910390fd5b816000015182602001518360400151600260008b73ffffffffffffffffffffffffffffffffffffffff1673ffffffffffffffffffffffffffffffffffffffff16815260200190815260200160002080805480602002602001604051908101604052809291908181526020016000905b82821015610dd457838290600052602060002001604051806020016040529081600082018054610d43906117d6565b80601f0160208091040260200160405190810160405280929190818152602001828054610d6f906117d6565b8015610dbc5780601f10610d9157610100808354040283529160200191610dbc565b820191906000526020600020905b815481529060010190602001808311610d9f57829003601f168201915b50505050508152505081526020019060010190610d14565b505050509050955095509550955050509193509193565b60008054906101000a900473ffffffffffffffffffffffffffffffffffffffff1681565b600080600160008473ffffffffffffffffffffffffffffffffffffffff1673ffffffffffffffffffffffffffffffffffffffff168152602001908152602001600020604051806060016040529081600082018054610e6c906117d6565b80601f0160208091040260200160405190810160405280929190818152602001828054610e98906117d6565b8015610ee55780601f10610eba57610100808354040283529160200191610ee5565b820191906000526020600020905b815481529060010190602001808311610ec857829003601f168201915b50505050508152602001600182018054610efe906117d6565b80601f0160208091040260200160405190810160405280929190818152602001828054610f2a906117d6565b8015610f775780601f10610f4c57610100808354040283529160200191610f77565b820191906000526020600020905b815481529060010190602001808311610f5a57829003601f168201915b50505050508152602001600282018054610f90906117d6565b80601f0160208091040260200160405190810160405280929190818152602001828054610fbc906117d6565b80156110095780601f10610fde57610100808354040283529160200191611009565b820191906000526020600020905b815481529060010190602001808311610fec57829003601f168201915b505050505081525050905060008160000151905060008151111561103257600192505050611039565b6000925050505b919050565b6000604051905090565b600080fd5b600080fd5b600073ffffffffffffffffffffffffffffffffffffffff82169050919050565b600061107d82611052565b9050919050565b61108d81611072565b811461109857600080fd5b50565b6000813590506110aa81611084565b92915050565b600080fd5b600080fd5b6000601f19601f8301169050919050565b7f4e487b7100000000000000000000000000000000000000000000000000000000600052604160045260246000fd5b611103826110ba565b810181811067ffffffffffffffff82111715611122576111216110cb565b5b80604052505050565b600061113561103e565b905061114182826110fa565b919050565b600067ffffffffffffffff821115611161576111606110cb565b5b61116a826110ba565b9050602081019050919050565b82818337600083830152505050565b600061119961119484611146565b61112b565b9050828152602081018484840111156111b5576111b46110b5565b5b6111c0848285611177565b509392505050565b600082601f8301126111dd576111dc6110b0565b5b81356111ed848260208601611186565b91505092915050565b600067ffffffffffffffff821115611211576112106110cb565b5b602082029050602081019050919050565b600080fd5b600080fd5b600080fd5b60006020828403121561124757611246611227565b5b611251602061112b565b9050600082013567ffffffffffffffff8111156112715761127061122c565b5b61127d848285016111c8565b60008301525092915050565b600061129c611297846111f6565b61112b565b905080838252602082019050602084028301858111156112bf576112be611222565b5b835b8181101561130657803567ffffffffffffffff8111156112e4576112e36110b0565b5b8086016112f18982611231565b855260208501945050506020810190506112c1565b5050509392505050565b600082601f830112611325576113246110b0565b5b8135611335848260208601611289565b91505092915050565b600080600080600060a0868803121561135a57611359611048565b5b60006113688882890161109b565b955050602086013567ffffffffffffffff8111156113895761138861104d565b5b611395888289016111c8565b945050604086013567ffffffffffffffff8111156113b6576113b561104d565b5b6113c2888289016111c8565b935050606086013567ffffffffffffffff8111156113e3576113e261104d565b5b6113ef888289016111c8565b925050608086013567ffffffffffffffff8111156114105761140f61104d565b5b61141c88828901611310565b9150509295509295909350565b60008115159050919050565b61143e81611429565b82525050565b60006020820190506114596000830184611435565b92915050565b600081519050919050565b600082825260208201905092915050565b60005b8381101561149957808201518184015260208101905061147e565b60008484015250505050565b60006114b08261145f565b6114ba818561146a565b93506114ca81856020860161147b565b6114d3816110ba565b840191505092915050565b600081519050919050565b600082825260208201905092915050565b6000819050602082019050919050565b600082825260208201905092915050565b60006115268261145f565b611530818561150a565b935061154081856020860161147b565b611549816110ba565b840191505092915050565b60006020830160008301518482036000860152611571828261151b565b9150508091505092915050565b600061158a8383611554565b905092915050565b6000602082019050919050565b60006115aa826114de565b6115b481856114e9565b9350836020820285016115c6856114fa565b8060005b8581101561160257848403895281516115e3858261157e565b94506115ee83611592565b925060208a019950506001810190506115ca565b50829750879550505050505092915050565b6000608082019050818103600083015261162e81876114a5565b9050818103602083015261164281866114a5565b9050818103604083015261165681856114a5565b9050818103606083015261166a818461159f565b905095945050505050565b60006020828403121561168b5761168a611048565b5b600082013567ffffffffffffffff8111156116a9576116a861104d565b5b6116b5848285016111c8565b91505092915050565b6000602082840312156116d4576116d3611048565b5b60006116e28482850161109b565b91505092915050565b6116f481611072565b82525050565b600060208201905061170f60008301846116eb565b92915050565b7f43616c6c6572206d75737420626520746865206f776e6572202d206f6e6c792060008201527f6f776e65722063616e2061646420616e20696e73746974757465000000000000602082015250565b6000611771603a8361146a565b915061177c82611715565b604082019050919050565b600060208201905081810360008301526117a081611764565b9050919050565b7f4e487b7100000000000000000000000000000000000000000000000000000000600052602260045260246000fd5b600060028204905060018216806117ee57607f821691505b602082108103611801576118006117a7565b5b50919050565b7f496e73746974757465207769746820746f6b656e20616c72656164792065786960008201527f7374730000000000000000000000000000000000000000000000000000000000602082015250565b600061186360238361146a565b915061186e82611807565b604082019050919050565b6000602082019050818103600083015261189281611856565b9050919050565b7f41746c65617374206f6e6520636f75727365206d757374206265206164646564600082015250565b60006118cf60208361146a565b91506118da82611899565b602082019050919050565b600060208201905081810360008301526118fe816118c2565b9050919050565b60008190508160005260206000209050919050565b60006020601f8301049050919050565b600082821b905092915050565b6000600883026119677fffffffffffffffffffffffffffffffffffffffffffffffffffffffffffffffff8261192a565b611971868361192a565b95508019841693508086168417925050509392505050565b6000819050919050565b6000819050919050565b60006119b86119b36119ae84611989565b611993565b611989565b9050919050565b6000819050919050565b6119d28361199d565b6119e66119de826119bf565b848454611937565b825550505050565b600090565b6119fb6119ee565b611a068184846119c9565b505050565b5b81811015611a2a57611a1f6000826119f3565b600181019050611a0c565b5050565b601f821115611a6f57611a4081611905565b611a498461191a565b81016020851015611a58578190505b611a6c611a648561191a565b830182611a0b565b50505b505050565b600082821c905092915050565b6000611a9260001984600802611a74565b1980831691505092915050565b6000611aab8383611a81565b9150826002028217905092915050565b611ac48261145f565b67ffffffffffffffff811115611add57611adc6110cb565b5b611ae782546117d6565b611af2828285611a2e565b600060209050601f831160018114611b255760008415611b13578287015190505b611b1d8582611a9f565b865550611b85565b601f198416611b3386611905565b60005b82811015611b5b57848901518255600182019150602085019450602081019050611b36565b86831015611b785784890151611b74601f891682611a81565b8355505b6001600288020188555050505b505050505050565b7f4e487b7100000000000000000000000000000000000000000000000000000000600052603260045260246000fd5b60006020820190508181036000830152611bd681846114a5565b905092915050565b7f496e73746974757465206163636f756e7420646f6573206e6f7420657869737460008201527f2100000000000000000000000000000000000000000000000000000000000000602082015250565b6000611c3a60218361146a565b9150611c4582611bde565b604082019050919050565b60006020820190508181036000830152611c6981611c2d565b9050919050565b7f496e73746974757465206e6f7420666f756e6400000000000000000000000000600082015250565b6000611ca660138361146a565b9150611cb182611c70565b602082019050919050565b60006020820190508181036000830152611cd581611c99565b9050919050565b600081519050611ceb81611084565b92915050565b600060208284031215611d0757611d06611048565b5b6000611d1584828501611cdc565b91505092915050565b7f496e636f727265637420736d61727420636f6e7472616374202620617574686f60008201527f72697a6174696f6e732100000000000000000000000000000000000000000000602082015250565b6000611d7a602a8361146a565b9150611d8582611d1e565b604082019050919050565b60006020820190508181036000830152611da981611d6d565b9050919050565b7f496e7374697475746520646f6573206e6f742065786973742100000000000000600082015250565b6000611de660198361146a565b9150611df182611db0565b602082019050919050565b60006020820190508181036000830152611e1581611dd9565b905091905056fea26469706673582212201ac1421092532555426228b8d2977a2dc1ed2dfe8c3cf3402dc05e923c45f46c64736f6c634300081e0033",
  "linkReferences": {},
  "deployedLinkReferences": {}
}