{
  "_format": "hh-sol-artifact-1",
  "contractName": "Institution",
  "sourceName": "contracts/Institution.sol",
  "abi": [
    {
      "inputs": [],
      "stateMutability": "nonpayable",
      "type": "constructor"
    },
    {
      "anonymous": false,
      "inputs": [
        {
          "indexed": false,
          "internalType": "string",
          "name": "_instituteName",
          "type": "string"
        }
      ],
      "name": "instituteAdded",
      "type": "event"
    },
    {
      "inputs": [
        {
          "internalType": "address",
          "name": "_address",
          "type": "address"
        },
        {
          "internalType": "string",
          "name": "_institute_name",
          "type": "string"
        },
        {
          "internalType": "string",
          "name": "_institute_acronym",
          "type": "string"
        },
        {
          "internalType": "string",
          "name": "_institute_link",
          "type": "string"
        },
        {
          "components": [
            {
              "internalType": "string",
              "name": "course_name",
              "type": "string"
            }
          ],
          "internalType": "struct Institution.Course[]",
          "name": "_institute_courses",
          "type": "tuple[]"
        }
      ],
      "name": "addInstitute",
      "outputs": [
        {
          "internalType": "bool",
          "name": "",
          "type": "bool"
        }
      ],
      "stateMutability": "nonpayable",
      "type": "function"
    },
    {
      "inputs": [
        {
          "internalType": "address",
          "name": "_address",
          "type": "address"
        }
      ],
      "name": "checkInstitutePermission",
      "outputs": [
        {
          "internalType": "bool",
          "name": "",
          "type": "bool"
        }
      ],
      "stateMutability": "view",
      "type": "function"
    },
    {
      "inputs": [],
      "name": "getInstituteCount",
      "outputs": [
        {
          "internalType": "uint256",
          "name": "",
          "type": "uint256"
        }
      ],
      "stateMutability": "view",
      "type": "function"
    },
    {
      "inputs": [],
      "name": "getInstituteData",
      "outputs": [
        {
          "internalType": "string",
          "name": "",
          "type": "string"
        },
        {
          "internalType": "string",
          "name": "",
          "type": "string"
        },
        {
          "internalType": "string",
          "name": "",
          "type": "string"
        },
        {
          "components": [
            {
              "internalType": "string",
              "name": "course_name",
              "type": "string"
            }
          ],
          "internalType": "struct Institution.Course[]",
          "name": "",
          "type": "tuple[]"
        }
      ],
      "stateMutability": "view",
      "type": "function"
    },
    {
      "inputs": [
        {
          "internalType": "address",
          "name": "_address",
          "type": "address"
        }
      ],
      "name": "getInstituteData",
      "outputs": [
        {
          "internalType": "string",
          "name": "",
          "type": "string"
        },
        {
          "internalType": "string",
          "name": "",
          "type": "string"
        },
        {
          "internalType": "string",
          "name": "",
          "type": "string"
        },
        {
          "components": [
            {
              "internalType": "string",
              "name": "course_name",
              "type": "string"
            }
          ],
          "internalType": "struct Institution.Course[]",
          "name": "",
          "type": "tuple[]"
        }
      ],
      "stateMutability": "view",
      "type": "function"
    },
    {
      "inputs": [
        {
          "internalType": "uint256",
          "name": "",
          "type": "uint256"
        }
      ],
      "name": "instituteAddresses",
      "outputs": [
        {
          "internalType": "address",
          "name": "",
          "type": "address"
        }
      ],
      "stateMutability": "view",
      "type": "function"
    },
    {
      "inputs": [],
      "name": "owner",
      "outputs": [
        {
          "internalType": "address",
          "name": "",
          "type": "address"
        }
      ],
      "stateMutability": "view",
      "type": "function"
    }
  ],
  "bytecode": "0x6080604052348015600f57600080fd5b50336000806101000a81548173ffffffffffffffffffffffffffffffffffffffff021916908373ffffffffffffffffffffffffffffffffffffffff160217905550611e388061005f6000396000f3fe608060405234801561001057600080fd5b506004361061007d5760003560e01c806360e7bb0d1161005b57806360e7bb0d146101035780637c0edcdf146101215780638da5cb5b14610154578063b350ce3c146101725761007d565b80630334917c14610082578063086f5a14146100b25780631b8c3d5b146100d3575b600080fd5b61009c60048036038101906100979190611356565b6101a2565b6040516100a9919061145c565b60405180910390f35b6100ba610582565b6040516100ca949392919061162c565b60405180910390f35b6100ed60048036038101906100e891906116c3565b61091e565b6040516100fa91906116ff565b60405180910390f35b61010b61095d565b6040516101189190611729565b60405180910390f35b61013b60048036038101906101369190611744565b61096a565b60405161014b949392919061162c565b60405180910390f35b61015c610e03565b60405161016991906116ff565b60405180910390f35b61018c60048036038101906101879190611744565b610e27565b604051610199919061145c565b60405180910390f35b60008060009054906101000a900473ffffffffffffffffffffffffffffffffffffffff1673ffffffffffffffffffffffffffffffffffffffff163373ffffffffffffffffffffffffffffffffffffffff1614610233576040517f08c379a000000000000000000000000000000000000000000000000000000000815260040161022a906117e3565b60405180910390fd5b6000600160008873ffffffffffffffffffffffffffffffffffffffff1673ffffffffffffffffffffffffffffffffffffffff168152602001908152602001600020600001805461028290611832565b80601f01602080910402602001604051908101604052809291908181526020018280546102ae90611832565b80156102fb5780601f106102d0576101008083540402835291602001916102fb565b820191906000526020600020905b8154815290600101906020018083116102de57829003601f168201915b505050505090506000815114610346576040517f08c379a000000000000000000000000000000000000000000000000000000000815260040161033d906118d5565b60405180910390fd5b600083511161038a576040517f08c379a000000000000000000000000000000000000000000000000000000000815260040161038190611941565b60405180910390fd5b604051806060016040528087815260200186815260200185815250600160008973ffffffffffffffffffffffffffffffffffffffff1673ffffffffffffffffffffffffffffffffffffffff16815260200190815260200160002060008201518160000190816103f99190611b0d565b50602082015181600101908161040f9190611b0d565b5060408201518160020190816104259190611b0d565b5090505060005b83518110156104d957600260008973ffffffffffffffffffffffffffffffffffffffff1673ffffffffffffffffffffffffffffffffffffffff16815260200190815260200160002084828151811061048757610486611bdf565b5b60200260200101519080600181540180825580915050600190039060005260206000200160009091909190915060008201518160000190816104c99190611b0d565b505050808060010191505061042c565b506003879080600181540180825580915050600190039060005260206000200160009091909190916101000a81548173ffffffffffffffffffffffffffffffffffffffff021916908373ffffffffffffffffffffffffffffffffffffffff1602179055507fcc7604fcd5c45ed3c7605e263d6c59f75739c368ef78098126fa9f54443b314f8660405161056c9190611c0e565b60405180910390a1600191505095945050505050565b6060806060806000600160003373ffffffffffffffffffffffffffffffffffffffff1673ffffffffffffffffffffffffffffffffffffffff1681526020019081526020016000206040518060600160405290816000820180546105e490611832565b80601f016020809104026020016040519081016040528092919081815260200182805461061090611832565b801561065d5780601f106106325761010080835404028352916020019161065d565b820191906000526020600020905b81548152906001019060200180831161064057829003601f168201915b5050505050815260200160018201805461067690611832565b80601f01602080910402602001604051908101604052809291908181526020018280546106a290611832565b80156106ef5780601f106106c4576101008083540402835291602001916106ef565b820191906000526020600020905b8154815290600101906020018083116106d257829003601f168201915b5050505050815260200160028201805461070890611832565b80601f016020809104026020016040519081016040528092919081815260200182805461073490611832565b80156107815780601f1061075657610100808354040283529160200191610781565b820191906000526020600020905b81548152906001019060200180831161076457829003601f168201915b505050505081525050905060008160000151905060008151116107d9576040517f08c379a00000000000000000000000000000000000000000000000000000000081526004016107d090611ca2565b60405180910390fd5b816000015182602001518360400151600260003373ffffffffffffffffffffffffffffffffffffffff1673ffffffffffffffffffffffffffffffffffffffff16815260200190815260200160002080805480602002602001604051908101604052809291908181526020016000905b828210156109085783829060005260206000200160405180602001604052908160008201805461087790611832565b80601f01602080910402602001604051908101604052809291908181526020018280546108a390611832565b80156108f05780601f106108c5576101008083540402835291602001916108f0565b820191906000526020600020905b8154815290600101906020018083116108d357829003601f168201915b50505050508152505081526020019060010190610848565b5050505090509550955095509550505090919293565b6003818154811061092e57600080fd5b906000526020600020016000915054906101000a900473ffffffffffffffffffffffffffffffffffffffff1681565b6000600380549050905090565b60608060608060008054906101000a900473ffffffffffffffffffffffffffffffffffffffff1673ffffffffffffffffffffffffffffffffffffffff163373ffffffffffffffffffffffffffffffffffffffff16638da5cb5b6040518163ffffffff1660e01b8152600401602060405180830381865afa1580156109f2573d6000803e3d6000fd5b505050506040513d601f19601f82011682018060405250810190610a169190611cd7565b73ffffffffffffffffffffffffffffffffffffffff1614610a6c576040517f08c379a0000000000000000000000000000000000000000000000000000000008152600401610a6390611d76565b60405180910390fd5b6000600160008773ffffffffffffffffffffffffffffffffffffffff1673ffffffffffffffffffffffffffffffffffffffff168152602001908152602001600020604051806060016040529081600082018054610ac890611832565b80601f0160208091040260200160405190810160405280929190818152602001828054610af490611832565b8015610b415780601f10610b1657610100808354040283529160200191610b41565b820191906000526020600020905b815481529060010190602001808311610b2457829003601f168201915b50505050508152602001600182018054610b5a90611832565b80601f0160208091040260200160405190810160405280929190818152602001828054610b8690611832565b8015610bd35780601f10610ba857610100808354040283529160200191610bd3565b820191906000526020600020905b815481529060010190602001808311610bb657829003601f168201915b50505050508152602001600282018054610bec90611832565b80601f0160208091040260200160405190810160405280929190818152602001828054610c1890611832565b8015610c655780601f10610c3a57610100808354040283529160200191610c65565b820191906000526020600020905b815481529060010190602001808311610c4857829003601f168201915b50505050508152505090506000816000015190506000815111610cbd576040517f08c379a0000000000000000000000000000000000000000000000000000000008152600401610cb490611de2565b60405180910390fd5b816000015182602001518360400151600260008b73ffffffffffffffffffffffffffffffffffffffff1673ffffffffffffffffffffffffffffffffffffffff16815260200190815260200160002080805480602002602001604051908101604052809291908181526020016000905b82821015610dec57838290600052602060002001604051806020016040529081600082018054610d5b90611832565b80601f0160208091040260200160405190810160405280929190818152602001828054610d8790611832565b8015610dd45780601f10610da957610100808354040283529160200191610dd4565b820191906000526020600020905b815481529060010190602001808311610db757829003601f168201915b50505050508152505081526020019060010190610d2c565b505050509050955095509550955050509193509193565b60008054906101000a900473ffffffffffffffffffffffffffffffffffffffff1681565b600080600160008473ffffffffffffffffffffffffffffffffffffffff1673ffffffffffffffffffffffffffffffffffffffff168152602001908152602001600020604051806060016040529081600082018054610e8490611832565b80601f0160208091040260200160405190810160405280929190818152602001828054610eb090611832565b8015610efd5780601f10610ed257610100808354040283529160200191610efd565b820191906000526020600020905b815481529060010190602001808311610ee057829003601f168201915b50505050508152602001600182018054610f1690611832565b80601f0160208091040260200160405190810160405280929190818152602001828054610f4290611832565b8015610f8f5780601f10610f6457610100808354040283529160200191610f8f565b820191906000526020600020905b815481529060010190602001808311610f7257829003601f168201915b50505050508152602001600282018054610fa890611832565b80601f0160208091040260200160405190810160405280929190818152602001828054610fd490611832565b80156110215780601f10610ff657610100808354040283529160200191611021565b820191906000526020600020905b81548152906001019060200180831161100457829003601f168201915b505050505081525050905060008160000151905060008151111561104a57600192505050611051565b6000925050505b919050565b6000604051905090565b600080fd5b600080fd5b600073ffffffffffffffffffffffffffffffffffffffff82169050919050565b60006110958261106a565b9050919050565b6110a58161108a565b81146110b057600080fd5b50565b6000813590506110c28161109c565b92915050565b600080fd5b600080fd5b6000601f19601f8301169050919050565b7f4e487b7100000000000000000000000000000000000000000000000000000000600052604160045260246000fd5b61111b826110d2565b810181811067ffffffffffffffff8211171561113a576111396110e3565b5b80604052505050565b600061114d611056565b90506111598282611112565b919050565b600067ffffffffffffffff821115611179576111786110e3565b5b611182826110d2565b9050602081019050919050565b82818337600083830152505050565b60006111b16111ac8461115e565b611143565b9050828152602081018484840111156111cd576111cc6110cd565b5b6111d884828561118f565b509392505050565b600082601f8301126111f5576111f46110c8565b5b813561120584826020860161119e565b91505092915050565b600067ffffffffffffffff821115611229576112286110e3565b5b602082029050602081019050919050565b600080fd5b600080fd5b600080fd5b60006020828403121561125f5761125e61123f565b5b6112696020611143565b9050600082013567ffffffffffffffff81111561128957611288611244565b5b611295848285016111e0565b60008301525092915050565b60006112b46112af8461120e565b611143565b905080838252602082019050602084028301858111156112d7576112d661123a565b5b835b8181101561131e57803567ffffffffffffffff8111156112fc576112fb6110c8565b5b8086016113098982611249565b855260208501945050506020810190506112d9565b5050509392505050565b600082601f83011261133d5761133c6110c8565b5b813561134d8482602086016112a1565b91505092915050565b600080600080600060a0868803121561137257611371611060565b5b6000611380888289016110b3565b955050602086013567ffffffffffffffff8111156113a1576113a0611065565b5b6113ad888289016111e0565b945050604086013567ffffffffffffffff8111156113ce576113cd611065565b5b6113da888289016111e0565b935050606086013567ffffffffffffffff8111156113fb576113fa611065565b5b611407888289016111e0565b925050608086013567ffffffffffffffff81111561142857611427611065565b5b61143488828901611328565b9150509295509295909350565b60008115159050919050565b61145681611441565b82525050565b6000602082019050611471600083018461144d565b92915050565b600081519050919050565b600082825260208201905092915050565b60005b838110156114b1578082015181840152602081019050611496565b60008484015250505050565b60006114c882611477565b6114d28185611482565b93506114e2818560208601611493565b6114eb816110d2565b840191505092915050565b600081519050919050565b600082825260208201905092915050565b6000819050602082019050919050565b600082825260208201905092915050565b600061153e82611477565b6115488185611522565b9350611558818560208601611493565b611561816110d2565b840191505092915050565b600060208301600083015184820360008601526115898282611533565b9150508091505092915050565b60006115a2838361156c565b905092915050565b6000602082019050919050565b60006115c2826114f6565b6115cc8185611501565b9350836020820285016115de85611512565b8060005b8581101561161a57848403895281516115fb8582611596565b9450611606836115aa565b925060208a019950506001810190506115e2565b50829750879550505050505092915050565b6000608082019050818103600083015261164681876114bd565b9050818103602083015261165a81866114bd565b9050818103604083015261166e81856114bd565b9050818103606083015261168281846115b7565b905095945050505050565b6000819050919050565b6116a08161168d565b81146116ab57600080fd5b50565b6000813590506116bd81611697565b92915050565b6000602082840312156116d9576116d8611060565b5b60006116e7848285016116ae565b91505092915050565b6116f98161108a565b82525050565b600060208201905061171460008301846116f0565b92915050565b6117238161168d565b82525050565b600060208201905061173e600083018461171a565b92915050565b60006020828403121561175a57611759611060565b5b6000611768848285016110b3565b91505092915050565b7f43616c6c6572206d75737420626520746865206f776e6572202d206f6e6c792060008201527f6f776e65722063616e2061646420616e20696e73746974757465000000000000602082015250565b60006117cd603a83611482565b91506117d882611771565b604082019050919050565b600060208201905081810360008301526117fc816117c0565b9050919050565b7f4e487b7100000000000000000000000000000000000000000000000000000000600052602260045260246000fd5b6000600282049050600182168061184a57607f821691505b60208210810361185d5761185c611803565b5b50919050565b7f496e73746974757465207769746820746f6b656e20616c72656164792065786960008201527f7374730000000000000000000000000000000000000000000000000000000000602082015250565b60006118bf602383611482565b91506118ca82611863565b604082019050919050565b600060208201905081810360008301526118ee816118b2565b9050919050565b7f41746c65617374206f6e6520636f75727365206d757374206265206164646564600082015250565b600061192b602083611482565b9150611936826118f5565b602082019050919050565b6000602082019050818103600083015261195a8161191e565b9050919050565b60008190508160005260206000209050919050565b60006020601f8301049050919050565b600082821b905092915050565b6000600883026119c37fffffffffffffffffffffffffffffffffffffffffffffffffffffffffffffffff82611986565b6119cd8683611986565b95508019841693508086168417925050509392505050565b6000819050919050565b6000611a0a611a05611a008461168d565b6119e5565b61168d565b9050919050565b6000819050919050565b611a24836119ef565b611a38611a3082611a11565b848454611993565b825550505050565b600090565b611a4d611a40565b611a58818484611a1b565b505050565b5b81811015611a7c57611a71600082611a45565b600181019050611a5e565b5050565b601f821115611ac157611a9281611961565b611a9b84611976565b81016020851015611aaa578190505b611abe611ab685611976565b830182611a5d565b50505b505050565b600082821c905092915050565b6000611ae460001984600802611ac6565b1980831691505092915050565b6000611afd8383611ad3565b9150826002028217905092915050565b611b1682611477565b67ffffffffffffffff811115611b2f57611b2e6110e3565b5b611b398254611832565b611b44828285611a80565b600060209050601f831160018114611b775760008415611b65578287015190505b611b6f8582611af1565b865550611bd7565b601f198416611b8586611961565b60005b82811015611bad57848901518255600182019150602085019450602081019050611b88565b86831015611bca5784890151611bc6601f891682611ad3565b8355505b6001600288020188555050505b505050505050565b7f4e487b7100000000000000000000000000000000000000000000000000000000600052603260045260246000fd5b60006020820190508181036000830152611c2881846114bd565b905092915050565b7f496e73746974757465206163636f756e7420646f6573206e6f7420657869737460008201527f2100000000000000000000000000000000000000000000000000000000000000602082015250565b6000611c8c602183611482565b9150611c9782611c30565b604082019050919050565b60006020820190508181036000830152611cbb81611c7f565b9050919050565b600081519050611cd18161109c565b92915050565b600060208284031215611ced57611cec611060565b5b6000611cfb84828501611cc2565b91505092915050565b7f496e636f727265637420736d61727420636f6e7472616374202620617574686f60008201527f72697a6174696f6e732100000000000000000000000000000000000000000000602082015250565b6000611d60602a83611482565b9150611d6b82611d04565b604082019050919050565b60006020820190508181036000830152611d8f81611d53565b9050919050565b7f496e7374697475746520646f6573206e6f742065786973742100000000000000600082015250565b6000611dcc601983611482565b9150611dd782611d96565b602082019050919050565b60006020820190508181036000830152611dfb81611dbf565b905091905056fea2646970667358221220cb04ba494781e4b4f5800654f6a4dc73d2aa0281683a489775af08d12f3f0c0464736f6c634300081e0033",
  "linkReferences": {},
  "deployedLinkReferences": {}
}