{
  "_format": "hh-sol-artifact-1",
  "contractName": "Institution",
  "sourceName": "contracts/Institution.sol",
  "abi": [
    {
      "inputs": [],
      "stateMutability": "nonpayable",
      "type": "constructor"
    },
    {
      "anonymous": false,
      "inputs": [
        {
          "indexed": false,
          "internalType": "string",
          "name": "_instituteName",
          "type": "string"
        }
      ],
      "name": "instituteAdded",
      "type": "event"
    },
    {
      "inputs": [
        {
          "internalType": "address",
          "name": "_address",
          "type": "address"
        },
        {
          "internalType": "string",
          "name": "_institute_name",
          "type": "string"
        },
        {
          "internalType": "string",
          "name": "_institute_acronym",
          "type": "string"
        },
        {
          "internalType": "string",
          "name": "_institute_link",
          "type": "string"
        },
        {
          "components": [
            {
              "internalType": "string",
              "name": "course_name",
              "type": "string"
            }
          ],
          "internalType": "struct Institution.Course[]",
          "name": "_institute_courses",
          "type": "tuple[]"
        }
      ],
      "name": "addInstitute",
      "outputs": [
        {
          "internalType": "bool",
          "name": "",
          "type": "bool"
        }
      ],
      "stateMutability": "nonpayable",
      "type": "function"
    },
    {
      "inputs": [
        {
          "internalType": "address",
          "name": "_address",
          "type": "address"
        }
      ],
      "name": "checkInstitutePermission",
      "outputs": [
        {
          "internalType": "bool",
          "name": "",
          "type": "bool"
        }
      ],
      "stateMutability": "view",
      "type": "function"
    },
    {
      "inputs": [],
      "name": "getInstituteData",
      "outputs": [
        {
          "internalType": "string",
          "name": "",
          "type": "string"
        },
        {
          "internalType": "string",
          "name": "",
          "type": "string"
        },
        {
          "internalType": "string",
          "name": "",
          "type": "string"
        },
        {
          "components": [
            {
              "internalType": "string",
              "name": "course_name",
              "type": "string"
            }
          ],
          "internalType": "struct Institution.Course[]",
          "name": "",
          "type": "tuple[]"
        }
      ],
      "stateMutability": "view",
      "type": "function"
    },
    {
      "inputs": [
        {
          "internalType": "address",
          "name": "_address",
          "type": "address"
        }
      ],
      "name": "getInstituteData",
      "outputs": [
        {
          "internalType": "string",
          "name": "",
          "type": "string"
        },
        {
          "internalType": "string",
          "name": "",
          "type": "string"
        },
        {
          "internalType": "string",
          "name": "",
          "type": "string"
        },
        {
          "components": [
            {
              "internalType": "string",
              "name": "course_name",
              "type": "string"
            }
          ],
          "internalType": "struct Institution.Course[]",
          "name": "",
          "type": "tuple[]"
        }
      ],
      "stateMutability": "view",
      "type": "function"
    },
    {
      "inputs": [],
      "name": "owner",
      "outputs": [
        {
          "internalType": "address",
          "name": "",
          "type": "address"
        }
      ],
      "stateMutability": "view",
      "type": "function"
    }
  ],
  "bytecode": "0x6080604052348015600f57600080fd5b50336000806101000a81548173ffffffffffffffffffffffffffffffffffffffff021916908373ffffffffffffffffffffffffffffffffffffffff160217905550611c928061005f6000396000f3fe608060405234801561001057600080fd5b50600436106100575760003560e01c80630334917c1461005c578063086f5a141461008c5780637c0edcdf146100ad5780638da5cb5b146100e0578063b350ce3c146100fe575b600080fd5b61007660048036038101906100719190611233565b61012e565b6040516100839190611339565b60405180910390f35b6100946104ab565b6040516100a49493929190611509565b60405180910390f35b6100c760048036038101906100c2919061156a565b610847565b6040516100d79493929190611509565b60405180910390f35b6100e8610ce0565b6040516100f591906115a6565b60405180910390f35b6101186004803603810190610113919061156a565b610d04565b6040516101259190611339565b60405180910390f35b60008060009054906101000a900473ffffffffffffffffffffffffffffffffffffffff1673ffffffffffffffffffffffffffffffffffffffff163373ffffffffffffffffffffffffffffffffffffffff16146101bf576040517f08c379a00000000000000000000000000000000000000000000000000000000081526004016101b690611633565b60405180910390fd5b6000600160008873ffffffffffffffffffffffffffffffffffffffff1673ffffffffffffffffffffffffffffffffffffffff168152602001908152602001600020600001805461020e90611682565b80601f016020809104026020016040519081016040528092919081815260200182805461023a90611682565b80156102875780601f1061025c57610100808354040283529160200191610287565b820191906000526020600020905b81548152906001019060200180831161026a57829003601f168201915b5050505050905060008151146102d2576040517f08c379a00000000000000000000000000000000000000000000000000000000081526004016102c990611725565b60405180910390fd5b6000835111610316576040517f08c379a000000000000000000000000000000000000000000000000000000000815260040161030d90611791565b60405180910390fd5b604051806060016040528087815260200186815260200185815250600160008973ffffffffffffffffffffffffffffffffffffffff1673ffffffffffffffffffffffffffffffffffffffff16815260200190815260200160002060008201518160000190816103859190611967565b50602082015181600101908161039b9190611967565b5060408201518160020190816103b19190611967565b5090505060005b835181101561046557600260008973ffffffffffffffffffffffffffffffffffffffff1673ffffffffffffffffffffffffffffffffffffffff16815260200190815260200160002084828151811061041357610412611a39565b5b60200260200101519080600181540180825580915050600190039060005260206000200160009091909190915060008201518160000190816104559190611967565b50505080806001019150506103b8565b507fcc7604fcd5c45ed3c7605e263d6c59f75739c368ef78098126fa9f54443b314f866040516104959190611a68565b60405180910390a1600191505095945050505050565b6060806060806000600160003373ffffffffffffffffffffffffffffffffffffffff1673ffffffffffffffffffffffffffffffffffffffff16815260200190815260200160002060405180606001604052908160008201805461050d90611682565b80601f016020809104026020016040519081016040528092919081815260200182805461053990611682565b80156105865780601f1061055b57610100808354040283529160200191610586565b820191906000526020600020905b81548152906001019060200180831161056957829003601f168201915b5050505050815260200160018201805461059f90611682565b80601f01602080910402602001604051908101604052809291908181526020018280546105cb90611682565b80156106185780601f106105ed57610100808354040283529160200191610618565b820191906000526020600020905b8154815290600101906020018083116105fb57829003601f168201915b5050505050815260200160028201805461063190611682565b80601f016020809104026020016040519081016040528092919081815260200182805461065d90611682565b80156106aa5780601f1061067f576101008083540402835291602001916106aa565b820191906000526020600020905b81548152906001019060200180831161068d57829003601f168201915b50505050508152505090506000816000015190506000815111610702576040517f08c379a00000000000000000000000000000000000000000000000000000000081526004016106f990611afc565b60405180910390fd5b816000015182602001518360400151600260003373ffffffffffffffffffffffffffffffffffffffff1673ffffffffffffffffffffffffffffffffffffffff16815260200190815260200160002080805480602002602001604051908101604052809291908181526020016000905b82821015610831578382906000526020600020016040518060200160405290816000820180546107a090611682565b80601f01602080910402602001604051908101604052809291908181526020018280546107cc90611682565b80156108195780601f106107ee57610100808354040283529160200191610819565b820191906000526020600020905b8154815290600101906020018083116107fc57829003601f168201915b50505050508152505081526020019060010190610771565b5050505090509550955095509550505090919293565b60608060608060008054906101000a900473ffffffffffffffffffffffffffffffffffffffff1673ffffffffffffffffffffffffffffffffffffffff163373ffffffffffffffffffffffffffffffffffffffff16638da5cb5b6040518163ffffffff1660e01b8152600401602060405180830381865afa1580156108cf573d6000803e3d6000fd5b505050506040513d601f19601f820116820180604052508101906108f39190611b31565b73ffffffffffffffffffffffffffffffffffffffff1614610949576040517f08c379a000000000000000000000000000000000000000000000000000000000815260040161094090611bd0565b60405180910390fd5b6000600160008773ffffffffffffffffffffffffffffffffffffffff1673ffffffffffffffffffffffffffffffffffffffff1681526020019081526020016000206040518060600160405290816000820180546109a590611682565b80601f01602080910402602001604051908101604052809291908181526020018280546109d190611682565b8015610a1e5780601f106109f357610100808354040283529160200191610a1e565b820191906000526020600020905b815481529060010190602001808311610a0157829003601f168201915b50505050508152602001600182018054610a3790611682565b80601f0160208091040260200160405190810160405280929190818152602001828054610a6390611682565b8015610ab05780601f10610a8557610100808354040283529160200191610ab0565b820191906000526020600020905b815481529060010190602001808311610a9357829003601f168201915b50505050508152602001600282018054610ac990611682565b80601f0160208091040260200160405190810160405280929190818152602001828054610af590611682565b8015610b425780601f10610b1757610100808354040283529160200191610b42565b820191906000526020600020905b815481529060010190602001808311610b2557829003601f168201915b50505050508152505090506000816000015190506000815111610b9a576040517f08c379a0000000000000000000000000000000000000000000000000000000008152600401610b9190611c3c565b60405180910390fd5b816000015182602001518360400151600260008b73ffffffffffffffffffffffffffffffffffffffff1673ffffffffffffffffffffffffffffffffffffffff16815260200190815260200160002080805480602002602001604051908101604052809291908181526020016000905b82821015610cc957838290600052602060002001604051806020016040529081600082018054610c3890611682565b80601f0160208091040260200160405190810160405280929190818152602001828054610c6490611682565b8015610cb15780601f10610c8657610100808354040283529160200191610cb1565b820191906000526020600020905b815481529060010190602001808311610c9457829003601f168201915b50505050508152505081526020019060010190610c09565b505050509050955095509550955050509193509193565b60008054906101000a900473ffffffffffffffffffffffffffffffffffffffff1681565b600080600160008473ffffffffffffffffffffffffffffffffffffffff1673ffffffffffffffffffffffffffffffffffffffff168152602001908152602001600020604051806060016040529081600082018054610d6190611682565b80601f0160208091040260200160405190810160405280929190818152602001828054610d8d90611682565b8015610dda5780601f10610daf57610100808354040283529160200191610dda565b820191906000526020600020905b815481529060010190602001808311610dbd57829003601f168201915b50505050508152602001600182018054610df390611682565b80601f0160208091040260200160405190810160405280929190818152602001828054610e1f90611682565b8015610e6c5780601f10610e4157610100808354040283529160200191610e6c565b820191906000526020600020905b815481529060010190602001808311610e4f57829003601f168201915b50505050508152602001600282018054610e8590611682565b80601f0160208091040260200160405190810160405280929190818152602001828054610eb190611682565b8015610efe5780601f10610ed357610100808354040283529160200191610efe565b820191906000526020600020905b815481529060010190602001808311610ee157829003601f168201915b5050505050815250509050600081600001519050600081511115610f2757600192505050610f2e565b6000925050505b919050565b6000604051905090565b600080fd5b600080fd5b600073ffffffffffffffffffffffffffffffffffffffff82169050919050565b6000610f7282610f47565b9050919050565b610f8281610f67565b8114610f8d57600080fd5b50565b600081359050610f9f81610f79565b92915050565b600080fd5b600080fd5b6000601f19601f8301169050919050565b7f4e487b7100000000000000000000000000000000000000000000000000000000600052604160045260246000fd5b610ff882610faf565b810181811067ffffffffffffffff8211171561101757611016610fc0565b5b80604052505050565b600061102a610f33565b90506110368282610fef565b919050565b600067ffffffffffffffff82111561105657611055610fc0565b5b61105f82610faf565b9050602081019050919050565b82818337600083830152505050565b600061108e6110898461103b565b611020565b9050828152602081018484840111156110aa576110a9610faa565b5b6110b584828561106c565b509392505050565b600082601f8301126110d2576110d1610fa5565b5b81356110e284826020860161107b565b91505092915050565b600067ffffffffffffffff82111561110657611105610fc0565b5b602082029050602081019050919050565b600080fd5b600080fd5b600080fd5b60006020828403121561113c5761113b61111c565b5b6111466020611020565b9050600082013567ffffffffffffffff81111561116657611165611121565b5b611172848285016110bd565b60008301525092915050565b600061119161118c846110eb565b611020565b905080838252602082019050602084028301858111156111b4576111b3611117565b5b835b818110156111fb57803567ffffffffffffffff8111156111d9576111d8610fa5565b5b8086016111e68982611126565b855260208501945050506020810190506111b6565b5050509392505050565b600082601f83011261121a57611219610fa5565b5b813561122a84826020860161117e565b91505092915050565b600080600080600060a0868803121561124f5761124e610f3d565b5b600061125d88828901610f90565b955050602086013567ffffffffffffffff81111561127e5761127d610f42565b5b61128a888289016110bd565b945050604086013567ffffffffffffffff8111156112ab576112aa610f42565b5b6112b7888289016110bd565b935050606086013567ffffffffffffffff8111156112d8576112d7610f42565b5b6112e4888289016110bd565b925050608086013567ffffffffffffffff81111561130557611304610f42565b5b61131188828901611205565b9150509295509295909350565b60008115159050919050565b6113338161131e565b82525050565b600060208201905061134e600083018461132a565b92915050565b600081519050919050565b600082825260208201905092915050565b60005b8381101561138e578082015181840152602081019050611373565b60008484015250505050565b60006113a582611354565b6113af818561135f565b93506113bf818560208601611370565b6113c881610faf565b840191505092915050565b600081519050919050565b600082825260208201905092915050565b6000819050602082019050919050565b600082825260208201905092915050565b600061141b82611354565b61142581856113ff565b9350611435818560208601611370565b61143e81610faf565b840191505092915050565b600060208301600083015184820360008601526114668282611410565b9150508091505092915050565b600061147f8383611449565b905092915050565b6000602082019050919050565b600061149f826113d3565b6114a981856113de565b9350836020820285016114bb856113ef565b8060005b858110156114f757848403895281516114d88582611473565b94506114e383611487565b925060208a019950506001810190506114bf565b50829750879550505050505092915050565b60006080820190508181036000830152611523818761139a565b90508181036020830152611537818661139a565b9050818103604083015261154b818561139a565b9050818103606083015261155f8184611494565b905095945050505050565b6000602082840312156115805761157f610f3d565b5b600061158e84828501610f90565b91505092915050565b6115a081610f67565b82525050565b60006020820190506115bb6000830184611597565b92915050565b7f43616c6c6572206d75737420626520746865206f776e6572202d206f6e6c792060008201527f6f776e65722063616e2061646420616e20696e73746974757465000000000000602082015250565b600061161d603a8361135f565b9150611628826115c1565b604082019050919050565b6000602082019050818103600083015261164c81611610565b9050919050565b7f4e487b7100000000000000000000000000000000000000000000000000000000600052602260045260246000fd5b6000600282049050600182168061169a57607f821691505b6020821081036116ad576116ac611653565b5b50919050565b7f496e73746974757465207769746820746f6b656e20616c72656164792065786960008201527f7374730000000000000000000000000000000000000000000000000000000000602082015250565b600061170f60238361135f565b915061171a826116b3565b604082019050919050565b6000602082019050818103600083015261173e81611702565b9050919050565b7f41746c65617374206f6e6520636f75727365206d757374206265206164646564600082015250565b600061177b60208361135f565b915061178682611745565b602082019050919050565b600060208201905081810360008301526117aa8161176e565b9050919050565b60008190508160005260206000209050919050565b60006020601f8301049050919050565b600082821b905092915050565b6000600883026118137fffffffffffffffffffffffffffffffffffffffffffffffffffffffffffffffff826117d6565b61181d86836117d6565b95508019841693508086168417925050509392505050565b6000819050919050565b6000819050919050565b600061186461185f61185a84611835565b61183f565b611835565b9050919050565b6000819050919050565b61187e83611849565b61189261188a8261186b565b8484546117e3565b825550505050565b600090565b6118a761189a565b6118b2818484611875565b505050565b5b818110156118d6576118cb60008261189f565b6001810190506118b8565b5050565b601f82111561191b576118ec816117b1565b6118f5846117c6565b81016020851015611904578190505b611918611910856117c6565b8301826118b7565b50505b505050565b600082821c905092915050565b600061193e60001984600802611920565b1980831691505092915050565b6000611957838361192d565b9150826002028217905092915050565b61197082611354565b67ffffffffffffffff81111561198957611988610fc0565b5b6119938254611682565b61199e8282856118da565b600060209050601f8311600181146119d157600084156119bf578287015190505b6119c9858261194b565b865550611a31565b601f1984166119df866117b1565b60005b82811015611a07578489015182556001820191506020850194506020810190506119e2565b86831015611a245784890151611a20601f89168261192d565b8355505b6001600288020188555050505b505050505050565b7f4e487b7100000000000000000000000000000000000000000000000000000000600052603260045260246000fd5b60006020820190508181036000830152611a82818461139a565b905092915050565b7f496e73746974757465206163636f756e7420646f6573206e6f7420657869737460008201527f2100000000000000000000000000000000000000000000000000000000000000602082015250565b6000611ae660218361135f565b9150611af182611a8a565b604082019050919050565b60006020820190508181036000830152611b1581611ad9565b9050919050565b600081519050611b2b81610f79565b92915050565b600060208284031215611b4757611b46610f3d565b5b6000611b5584828501611b1c565b91505092915050565b7f496e636f727265637420736d61727420636f6e7472616374202620617574686f60008201527f72697a6174696f6e732100000000000000000000000000000000000000000000602082015250565b6000611bba602a8361135f565b9150611bc582611b5e565b604082019050919050565b60006020820190508181036000830152611be981611bad565b9050919050565b7f496e7374697475746520646f6573206e6f742065786973742100000000000000600082015250565b6000611c2660198361135f565b9150611c3182611bf0565b602082019050919050565b60006020820190508181036000830152611c5581611c19565b905091905056fea2646970667358221220faa5c415f27da3bf9ec6a3017dc8a544e9d9d4e025ddf300d5663f1b65afb66f64736f6c634300081e0033",
  "linkReferences": {},
  "deployedLinkReferences": {}
}