{
  "_format": "hh-sol-artifact-1",
  "contractName": "Institution",
  "sourceName": "contracts/Institution.sol",
  "abi": [
    {
      "inputs": [],
      "stateMutability": "nonpayable",
      "type": "constructor"
    },
    {
      "anonymous": false,
      "inputs": [
        {
          "indexed": true,
          "internalType": "address",
          "name": "instituteAddress",
          "type": "address"
        },
        {
          "indexed": false,
          "internalType": "string",
          "name": "degreeName",
          "type": "string"
        },
        {
          "indexed": false,
          "internalType": "uint256",
          "name": "index",
          "type": "uint256"
        }
      ],
      "name": "DegreeAdded",
      "type": "event"
    },
    {
      "anonymous": false,
      "inputs": [
        {
          "indexed": true,
          "internalType": "address",
          "name": "instituteAddress",
          "type": "address"
        },
        {
          "indexed": false,
          "internalType": "uint256",
          "name": "index",
          "type": "uint256"
        }
      ],
      "name": "DegreeRemoved",
      "type": "event"
    },
    {
      "anonymous": false,
      "inputs": [
        {
          "indexed": true,
          "internalType": "address",
          "name": "instituteAddress",
          "type": "address"
        },
        {
          "indexed": false,
          "internalType": "string",
          "name": "departmentName",
          "type": "string"
        },
        {
          "indexed": false,
          "internalType": "uint256",
          "name": "index",
          "type": "uint256"
        }
      ],
      "name": "DepartmentAdded",
      "type": "event"
    },
    {
      "anonymous": false,
      "inputs": [
        {
          "indexed": true,
          "internalType": "address",
          "name": "instituteAddress",
          "type": "address"
        },
        {
          "indexed": false,
          "internalType": "uint256",
          "name": "index",
          "type": "uint256"
        }
      ],
      "name": "DepartmentRemoved",
      "type": "event"
    },
    {
      "anonymous": false,
      "inputs": [
        {
          "indexed": true,
          "internalType": "address",
          "name": "instituteAddress",
          "type": "address"
        },
        {
          "indexed": false,
          "internalType": "string",
          "name": "name",
          "type": "string"
        },
        {
          "indexed": false,
          "internalType": "string",
          "name": "acronym",
          "type": "string"
        }
      ],
      "name": "InstituteAdded",
      "type": "event"
    },
    {
      "anonymous": false,
      "inputs": [
        {
          "indexed": true,
          "internalType": "address",
          "name": "instituteAddress",
          "type": "address"
        },
        {
          "indexed": false,
          "internalType": "string",
          "name": "field",
          "type": "string"
        },
        {
          "indexed": false,
          "internalType": "uint256",
          "name": "timestamp",
          "type": "uint256"
        }
      ],
      "name": "InstituteUpdated",
      "type": "event"
    },
    {
      "inputs": [
        {
          "internalType": "address",
          "name": "instituteAddress",
          "type": "address"
        },
        {
          "internalType": "string",
          "name": "degreeName",
          "type": "string"
        }
      ],
      "name": "addDegree",
      "outputs": [],
      "stateMutability": "nonpayable",
      "type": "function"
    },
    {
      "inputs": [
        {
          "internalType": "address",
          "name": "instituteAddress",
          "type": "address"
        },
        {
          "internalType": "string[]",
          "name": "degreeNames",
          "type": "string[]"
        }
      ],
      "name": "addDegrees",
      "outputs": [],
      "stateMutability": "nonpayable",
      "type": "function"
    },
    {
      "inputs": [
        {
          "internalType": "address",
          "name": "instituteAddress",
          "type": "address"
        },
        {
          "internalType": "string",
          "name": "departmentName",
          "type": "string"
        }
      ],
      "name": "addDepartment",
      "outputs": [],
      "stateMutability": "nonpayable",
      "type": "function"
    },
    {
      "inputs": [
        {
          "internalType": "address",
          "name": "instituteAddress",
          "type": "address"
        },
        {
          "internalType": "string[]",
          "name": "departmentNames",
          "type": "string[]"
        }
      ],
      "name": "addDepartments",
      "outputs": [],
      "stateMutability": "nonpayable",
      "type": "function"
    },
    {
      "inputs": [
        {
          "internalType": "address",
          "name": "instituteAddress",
          "type": "address"
        },
        {
          "internalType": "string",
          "name": "name",
          "type": "string"
        },
        {
          "internalType": "string",
          "name": "addressLine",
          "type": "string"
        },
        {
          "internalType": "string",
          "name": "acronym",
          "type": "string"
        },
        {
          "internalType": "string",
          "name": "website",
          "type": "string"
        },
        {
          "internalType": "string[]",
          "name": "initialDegrees",
          "type": "string[]"
        },
        {
          "internalType": "string[]",
          "name": "initialDepartments",
          "type": "string[]"
        }
      ],
      "name": "addInstitute",
      "outputs": [],
      "stateMutability": "nonpayable",
      "type": "function"
    },
    {
      "inputs": [
        {
          "internalType": "address",
          "name": "instituteAddress",
          "type": "address"
        }
      ],
      "name": "checkInstitutePermission",
      "outputs": [
        {
          "internalType": "bool",
          "name": "",
          "type": "bool"
        }
      ],
      "stateMutability": "view",
      "type": "function"
    },
    {
      "inputs": [
        {
          "internalType": "address",
          "name": "instituteAddress",
          "type": "address"
        }
      ],
      "name": "clearDegrees",
      "outputs": [],
      "stateMutability": "nonpayable",
      "type": "function"
    },
    {
      "inputs": [
        {
          "internalType": "address",
          "name": "instituteAddress",
          "type": "address"
        }
      ],
      "name": "clearDepartments",
      "outputs": [],
      "stateMutability": "nonpayable",
      "type": "function"
    },
    {
      "inputs": [
        {
          "internalType": "address",
          "name": "instituteAddress",
          "type": "address"
        }
      ],
      "name": "deactivateInstitute",
      "outputs": [],
      "stateMutability": "nonpayable",
      "type": "function"
    },
    {
      "inputs": [],
      "name": "getAllInstitutes",
      "outputs": [
        {
          "internalType": "address[]",
          "name": "",
          "type": "address[]"
        }
      ],
      "stateMutability": "view",
      "type": "function"
    },
    {
      "inputs": [
        {
          "internalType": "address",
          "name": "instituteAddress",
          "type": "address"
        },
        {
          "internalType": "uint256",
          "name": "index",
          "type": "uint256"
        }
      ],
      "name": "getDegree",
      "outputs": [
        {
          "internalType": "string",
          "name": "degreeName",
          "type": "string"
        },
        {
          "internalType": "uint256",
          "name": "addedAt",
          "type": "uint256"
        }
      ],
      "stateMutability": "view",
      "type": "function"
    },
    {
      "inputs": [
        {
          "internalType": "address",
          "name": "instituteAddress",
          "type": "address"
        }
      ],
      "name": "getDegrees",
      "outputs": [
        {
          "internalType": "string[]",
          "name": "",
          "type": "string[]"
        },
        {
          "internalType": "uint256[]",
          "name": "",
          "type": "uint256[]"
        }
      ],
      "stateMutability": "view",
      "type": "function"
    },
    {
      "inputs": [
        {
          "internalType": "address",
          "name": "instituteAddress",
          "type": "address"
        }
      ],
      "name": "getDegreesCount",
      "outputs": [
        {
          "internalType": "uint256",
          "name": "",
          "type": "uint256"
        }
      ],
      "stateMutability": "view",
      "type": "function"
    },
    {
      "inputs": [
        {
          "internalType": "address",
          "name": "instituteAddress",
          "type": "address"
        },
        {
          "internalType": "uint256",
          "name": "index",
          "type": "uint256"
        }
      ],
      "name": "getDepartment",
      "outputs": [
        {
          "internalType": "string",
          "name": "departmentName",
          "type": "string"
        },
        {
          "internalType": "uint256",
          "name": "addedAt",
          "type": "uint256"
        }
      ],
      "stateMutability": "view",
      "type": "function"
    },
    {
      "inputs": [
        {
          "internalType": "address",
          "name": "instituteAddress",
          "type": "address"
        }
      ],
      "name": "getDepartments",
      "outputs": [
        {
          "internalType": "string[]",
          "name": "",
          "type": "string[]"
        },
        {
          "internalType": "uint256[]",
          "name": "",
          "type": "uint256[]"
        }
      ],
      "stateMutability": "view",
      "type": "function"
    },
    {
      "inputs": [
        {
          "internalType": "address",
          "name": "instituteAddress",
          "type": "address"
        }
      ],
      "name": "getDepartmentsCount",
      "outputs": [
        {
          "internalType": "uint256",
          "name": "",
          "type": "uint256"
        }
      ],
      "stateMutability": "view",
      "type": "function"
    },
    {
      "inputs": [
        {
          "internalType": "uint256",
          "name": "index",
          "type": "uint256"
        }
      ],
      "name": "getInstituteByIndex",
      "outputs": [
        {
          "internalType": "address",
          "name": "instituteAddress",
          "type": "address"
        },
        {
          "internalType": "string",
          "name": "name",
          "type": "string"
        },
        {
          "internalType": "string",
          "name": "acronym",
          "type": "string"
        },
        {
          "internalType": "bool",
          "name": "isActive",
          "type": "bool"
        }
      ],
      "stateMutability": "view",
      "type": "function"
    },
    {
      "inputs": [],
      "name": "getInstituteCount",
      "outputs": [
        {
          "internalType": "uint256",
          "name": "",
          "type": "uint256"
        }
      ],
      "stateMutability": "view",
      "type": "function"
    },
    {
      "inputs": [
        {
          "internalType": "address",
          "name": "instituteAddress",
          "type": "address"
        }
      ],
      "name": "getInstituteData",
      "outputs": [
        {
          "internalType": "string",
          "name": "name",
          "type": "string"
        },
        {
          "internalType": "string",
          "name": "addressLine",
          "type": "string"
        },
        {
          "internalType": "string",
          "name": "acronym",
          "type": "string"
        },
        {
          "internalType": "string",
          "name": "website",
          "type": "string"
        },
        {
          "internalType": "bool",
          "name": "isActive",
          "type": "bool"
        },
        {
          "internalType": "uint256",
          "name": "registrationDate",
          "type": "uint256"
        },
        {
          "internalType": "uint256",
          "name": "lastUpdated",
          "type": "uint256"
        },
        {
          "internalType": "uint256",
          "name": "degreesCount",
          "type": "uint256"
        },
        {
          "internalType": "uint256",
          "name": "departmentsCount",
          "type": "uint256"
        }
      ],
      "stateMutability": "view",
      "type": "function"
    },
    {
      "inputs": [
        {
          "internalType": "address",
          "name": "instituteAddress",
          "type": "address"
        }
      ],
      "name": "getInstituteDetailedInfo",
      "outputs": [
        {
          "internalType": "string",
          "name": "name",
          "type": "string"
        },
        {
          "internalType": "string",
          "name": "addressLine",
          "type": "string"
        },
        {
          "internalType": "string",
          "name": "acronym",
          "type": "string"
        },
        {
          "internalType": "string",
          "name": "website",
          "type": "string"
        },
        {
          "internalType": "string[]",
          "name": "degreeNames",
          "type": "string[]"
        },
        {
          "internalType": "string[]",
          "name": "departmentNames",
          "type": "string[]"
        }
      ],
      "stateMutability": "view",
      "type": "function"
    },
    {
      "inputs": [
        {
          "internalType": "address",
          "name": "instituteAddress",
          "type": "address"
        }
      ],
      "name": "getInstituteInfo",
      "outputs": [
        {
          "internalType": "string",
          "name": "name",
          "type": "string"
        },
        {
          "internalType": "string",
          "name": "acronym",
          "type": "string"
        },
        {
          "internalType": "string",
          "name": "website",
          "type": "string"
        },
        {
          "internalType": "bool",
          "name": "isActive",
          "type": "bool"
        }
      ],
      "stateMutability": "view",
      "type": "function"
    },
    {
      "inputs": [],
      "name": "owner",
      "outputs": [
        {
          "internalType": "address",
          "name": "",
          "type": "address"
        }
      ],
      "stateMutability": "view",
      "type": "function"
    },
    {
      "inputs": [
        {
          "internalType": "address",
          "name": "instituteAddress",
          "type": "address"
        }
      ],
      "name": "reactivateInstitute",
      "outputs": [],
      "stateMutability": "nonpayable",
      "type": "function"
    },
    {
      "inputs": [
        {
          "internalType": "address",
          "name": "instituteAddress",
          "type": "address"
        },
        {
          "internalType": "uint256",
          "name": "index",
          "type": "uint256"
        }
      ],
      "name": "removeDegree",
      "outputs": [],
      "stateMutability": "nonpayable",
      "type": "function"
    },
    {
      "inputs": [
        {
          "internalType": "address",
          "name": "instituteAddress",
          "type": "address"
        },
        {
          "internalType": "uint256",
          "name": "index",
          "type": "uint256"
        }
      ],
      "name": "removeDepartment",
      "outputs": [],
      "stateMutability": "nonpayable",
      "type": "function"
    },
    {
      "inputs": [
        {
          "internalType": "string",
          "name": "query",
          "type": "string"
        }
      ],
      "name": "searchInstitute",
      "outputs": [
        {
          "internalType": "address[]",
          "name": "",
          "type": "address[]"
        },
        {
          "internalType": "string[]",
          "name": "",
          "type": "string[]"
        },
        {
          "internalType": "string[]",
          "name": "",
          "type": "string[]"
        }
      ],
      "stateMutability": "view",
      "type": "function"
    },
    {
      "inputs": [
        {
          "internalType": "address",
          "name": "instituteAddress",
          "type": "address"
        },
        {
          "internalType": "string",
          "name": "newAcronym",
          "type": "string"
        }
      ],
      "name": "updateAcronym",
      "outputs": [],
      "stateMutability": "nonpayable",
      "type": "function"
    },
    {
      "inputs": [
        {
          "internalType": "address",
          "name": "instituteAddress",
          "type": "address"
        },
        {
          "internalType": "string",
          "name": "newAddress",
          "type": "string"
        }
      ],
      "name": "updateAddress",
      "outputs": [],
      "stateMutability": "nonpayable",
      "type": "function"
    },
    {
      "inputs": [
        {
          "internalType": "address",
          "name": "instituteAddress",
          "type": "address"
        },
        {
          "internalType": "uint256",
          "name": "index",
          "type": "uint256"
        },
        {
          "internalType": "string",
          "name": "newDegreeName",
          "type": "string"
        }
      ],
      "name": "updateDegree",
      "outputs": [],
      "stateMutability": "nonpayable",
      "type": "function"
    },
    {
      "inputs": [
        {
          "internalType": "address",
          "name": "instituteAddress",
          "type": "address"
        },
        {
          "internalType": "uint256",
          "name": "index",
          "type": "uint256"
        },
        {
          "internalType": "string",
          "name": "newDepartmentName",
          "type": "string"
        }
      ],
      "name": "updateDepartment",
      "outputs": [],
      "stateMutability": "nonpayable",
      "type": "function"
    },
    {
      "inputs": [
        {
          "internalType": "address",
          "name": "instituteAddress",
          "type": "address"
        },
        {
          "internalType": "string",
          "name": "newName",
          "type": "string"
        }
      ],
      "name": "updateName",
      "outputs": [],
      "stateMutability": "nonpayable",
      "type": "function"
    },
    {
      "inputs": [
        {
          "internalType": "address",
          "name": "instituteAddress",
          "type": "address"
        },
        {
          "internalType": "string",
          "name": "newWebsite",
          "type": "string"
        }
      ],
      "name": "updateWebsite",
      "outputs": [],
      "stateMutability": "nonpayable",
      "type": "function"
    }
  ],
  "bytecode": "0x60a0806040523460375733608052613563908161003d8239608051818181610348015281816116460152818161175e0152611b280152f35b600080fdfe6080604052600436101561001257600080fd5b60003560e01c806314794b371461270f57806314bbe737146126b95780631dc2ae3814612564578063329e5fc01461240f57806335235551146123d55780633b1f6ce5146122fc5780633db264081461215857806357bea49b14611fbc57806358668a9914611d78578063609d3f3c14611cdc57806360e7bb0d14611cbe5780636383838d14611c2a5780636e0b6d1d14611b095780636e30d86114611a8b5780637ba5dca314611a175780637c0edcdf146119155780637edd4a971461178d5780638da5cb5b1461174857806393988b70146116275780639811c3f8146115815780639817c3c0146114db578063a2ea871c1461143e578063b25d59b5146112af578063b262c125146111a7578063b350ce3c14611165578063b53f8a5014611031578063b9308d9e14610ee2578063b9d6268314610ea8578063cc1cdbf214610d1b578063e3af595c14610a24578063ed2d12291461026c5763f8f1505a1461017c57600080fd5b34610267576020366003190112610267576001600160a01b0361019d61279b565b168060005260006020526101bb60ff60046040600020015416612ae4565b80600052600160205260406000208054906000815581610217575b8260008051602061350e833981519152608060405160408152600f60408201526e191959dc99595cd7d8db19585c9959608a1b6060820152426020820152a2005b6001600160ff1b03821682036102515760005260206000209060011b8101905b818110156101d6578061024b600292612d9f565b01610237565b634e487b7160e01b600052601160045260246000fd5b600080fd5b346102675760e03660031901126102675761028561279b565b6024356001600160401b038111610267576102a49036906004016127ed565b6044356001600160401b038111610267576102c39036906004016127ed565b6064356001600160401b038111610267576102e29036906004016127ed565b6084356001600160401b038111610267576103019036906004016127ed565b9160a4356001600160401b03811161026757610321903690600401612900565b9260c4356001600160401b03811161026757610341903690600401612900565b91610376337f00000000000000000000000000000000000000000000000000000000000000006001600160a01b031614612f1f565b6001600160a01b0387169161038c831515612f58565b82600052600060205260ff600460406000200154166109df57604051916103d560ff875194602081818b01976103c381838b612885565b81016003815203019020541615613157565b60028851106109a957600581511061097057600286511061093757600a8651116108ff5760058251106108c6576040519160e083018381106001600160401b038211176106fc576040528883526020830191825260408301908782526060840190815260808401906001825260a085019242845260c0860194428652886000526000602052604060002096518051906001600160401b0382116106fc57610486826104808b54612c65565b8b612d5a565b602090601f831160011461085f576104b7929160009183610712575b50508160011b916000199060031b1c19161790565b87555b51805160018801916001600160401b0382116106fc576104e4826104de8554612c65565b85612d5a565b602090601f83116001146107f8576105149291600091836107125750508160011b916000199060031b1c19161790565b90555b51805160028701916001600160401b0382116106fc5761053b826104de8554612c65565b602090601f83116001146107915761056b9291600091836107125750508160011b916000199060031b1c19161790565b90555b51805160038601916001600160401b0382116106fc57610592826104de8554612c65565b602090601f831160011461071d57926105d0836020999794600697946106029c9a976000926107125750508160011b916000199060031b1c19161790565b90555b600485019051151560ff8019835416911617905551600584015551910155604051809381928851928391612885565b81016003815203019020600160ff19825416179055600454600160401b8110156106fc578060016106369201600455612ef5565b81546001600160a01b0360039290921b91821b19169083901b17905560005b845181101561067c578061067561066e60019388612e19565b51896132f5565b5001610655565b508593508460005b83518110156106ab57806106a461069d60019387612e19565b51886133e3565b5001610684565b506106e97f031441df7ef9dcf99f910793e6582352bedb6a53a99c88765318ffe258c26f04916106f7866040519384936040855260408501906128a8565b9083820360208501526128a8565b0390a2005b634e487b7160e01b600052604160045260246000fd5b0151905038806104a2565b90601f1983169184600052816000209260005b818110610779575093600696936106029b9996936001938360209d9b9810610760575b505050811b0190556105d3565b015160001960f88460031b161c19169055388080610753565b92936020600181928786015181550195019301610730565b90601f1983169184600052816000209260005b8181106107e057509084600195949392106107c7575b505050811b01905561056e565b015160001960f88460031b161c191690558f80806107ba565b929360206001819287860151815501950193016107a4565b90601f1983169184600052816000209260005b818110610847575090846001959493921061082e575b505050811b019055610517565b015160001960f88460031b161c19169055388080610821565b9293602060018192878601518155019501930161080b565b90601f198316918a600052816000209260005b8181106108ae5750908460019594939210610895575b505050811b0187556104ba565b015160001960f88460031b161c19169055388080610888565b92936020600181928786015181550195019301610872565b60405162461bcd60e51b815260206004820152601160248201527015d9589cda5d19481d1bdbc81cda1bdc9d607a1b6044820152606490fd5b60405162461bcd60e51b815260206004820152601060248201526f4163726f6e796d20746f6f206c6f6e6760801b6044820152606490fd5b60405162461bcd60e51b81526020600482015260116024820152701058dc9bdb9e5b481d1bdbc81cda1bdc9d607a1b6044820152606490fd5b60405162461bcd60e51b81526020600482015260116024820152701059191c995cdcc81d1bdbc81cda1bdc9d607a1b6044820152606490fd5b60405162461bcd60e51b815260206004820152600e60248201526d13985b59481d1bdbc81cda1bdc9d60921b6044820152606490fd5b60405162461bcd60e51b815260206004820152601860248201527f496e7374697475746520616c72656164792065786973747300000000000000006044820152606490fd5b3461026757610a3236612843565b9060018060a01b03811690816000526000602052610a5a60ff60046040600020015416612ae4565b610a68600184511015612b30565b610a7761010084511115612b6f565b60405160ff84519160208181880194610a91818388612885565b810160038152030190205416158015610cc8575b610aae90613157565b6040516020810190610ada6020828851610ac9818789612885565b81010301601f1981018352826127cc565b5190208360005260006020526002604060002001604051610b1181610b036020820180956130e9565b03601f1981018352826127cc565b51902003610c66575b50816000526000602052600260406000200183516001600160401b0381116106fc57610b5081610b4a8454612c65565b84612d5a565b6020601f8211600114610be5579080610b8492610ba29697600092610bda5750508160011b916000199060031b1c19161790565b905560018060a01b0316600052600060205242600660406000200155565b60008051602061350e83398151915260806040516040815260076040820152666163726f6e796d60c81b6060820152426020820152a2005b0151905087806104a2565b601f1982169583600052816000209660005b818110610c4e575091610ba2969791846001959410610c35575b505050811b01905560018060a01b0316600052600060205242600660406000200155565b015160001960f88460031b161c19169055868080610c11565b83830151895560019098019760209384019301610bf7565b6020610cad918460005260008252610c8c826002604060002001604051928380926130e9565b600381520301902060ff198154169055604051809381928851928391612885565b81016003815203019020600160ff1982541617905583610b1a565b50610aae6040516020810190610ce76020828951610ac981878a612885565b5190208460005260006020526002604060002001604051610d1081610b036020820180956130e9565b519020149050610aa5565b34610267576020366003190112610267576001600160a01b03610d3c61279b565b168060005260006020526040600020610d5b60ff600483015416612fa4565b816000526001602052604060002091600052600260205260406000208254610d8281612eab565b91805491610d8f83612eab565b9560005b828110610e7c5750505060005b828110610e4a57610e0085610e4688610e3888610e2a610dbf86612c9f565b95610e1c610dcf60018301612c9f565b91610e0e610deb6003610de460028501612c9f565b9301612c9f565b936040519b8c9b60c08d5260c08d01906128a8565b908b820360208d01526128a8565b9089820360408b01526128a8565b9087820360608901526128a8565b9085820360808701526129fa565b9083820360a08501526129fa565b0390f35b80610e60610e5a60019385612c33565b50612c9f565b610e6a8289612e19565b52610e758188612e19565b5001610da0565b80610e8c610e5a60019385612c33565b610e968289612e19565b52610ea18188612e19565b5001610d93565b34610267576020366003190112610267576001600160a01b03610ec961279b565b1660005260016020526020604060002054604051908152f35b3461026757610ef036612843565b9060018060a01b03811690816000526000602052610f1860ff60046040600020015416612ae4565b610f26600184511015612b30565b610f3561010084511115612b6f565b816000526000602052604060002083516001600160401b0381116106fc57610f6181610b4a8454612c65565b6020601f8211600114610fca579080610b8492610f959697600092610bda5750508160011b916000199060031b1c19161790565b60008051602061350e83398151915260806040516040815260046040820152636e616d6560e01b6060820152426020820152a2005b601f1982169583600052816000209660005b818110611019575091610f95969791846001959410610c3557505050811b01905560018060a01b0316600052600060205242600660406000200155565b83830151895560019098019760209384019301610fdc565b346102675760403660031901126102675761104a61279b565b6001600160a01b0316600081815260208190526040902060040154602435906110759060ff16612ae4565b81600052600160205261108e6040600020548210612bf1565b816000526001602052604060002054600019810190811161025157808203611127575b508160005260016020526040600020908154908115611111577f86e2808743ae9329412004923e34df6cf2e7eda11b184bfdfb6f9eb8243821629260209260001901906111076111018383612c33565b90612df5565b55604051908152a2005b634e487b7160e01b600052603160045260246000fd5b61114161115f918460005260016020526040600020612c33565b50836000526001602052611159836040600020612c33565b906130c3565b826110b1565b34610267576020366003190112610267576001600160a01b0361118661279b565b166000526000602052602060ff600460406000200154166040519015158152f35b34610267576040366003190112610267576111c061279b565b6001600160a01b0316600081815260208190526040902060040154602435906111eb9060ff16612ae4565b8160005260026020526112046040600020548210612bf1565b816000526002602052604060002054600019810190811161025157808203611277575b508160005260026020526040600020908154908115611111577f1250de7e9a8911a5dab804859122b823974c7db8740239620a4e0383e84cee1b9260209260001901906111076111018383612c33565b6112916112a9918460005260026020526040600020612c33565b50836000526002602052611159836040600020612c33565b82611227565b34610267576113446112c036612a53565b929061133161132b8560018060a01b038616958660005260006020526112f060ff60046040600020015416612ae4565b6112fe600183511015612b30565b61130d61010083511115612b6f565b8660005260016020526113266040600020548610612bf1565b61319a565b15612bad565b8260005260016020526040600020612c33565b5082516001600160401b0381116106fc5761136381610b4a8454612c65565b6020601f82116001146113d95781906113949394956000926113ce5750508160011b916000199060031b1c19161790565b90555b60008051602061350e833981519152608060405160408152600660408201526564656772656560d01b6060820152426020820152a2005b0151905085806104a2565b601f1982169083600052806000209160005b8181106114265750958360019596971061140d575b505050811b019055611397565b015160001960f88460031b161c19169055848080611400565b9192602060018192868b0151815501940192016113eb565b34610267576020366003190112610267576114676004356114626004548210612bf1565b612ef5565b60018060a01b0391549060031b1c1680600052600060205260406000209060ff6004830154166114cf6114a5600261149e86612c9f565b9501612c9f565b6114c160405195869586526080602087015260808601906128a8565b9084820360408601526128a8565b90151560608301520390f35b34610267576020366003190112610267576001600160a01b036114fc61279b565b1660005260016020526040600020805461151581612eab565b9061151f81612e79565b9260005b82811061153c57505050610e4660405192839283612a95565b8061154c610e5a60019385612c33565b6115568287612e19565b526115618186612e19565b508161156d8285612c33565b50015461157a8288612e19565b5201611523565b34610267576020366003190112610267576001600160a01b036115a261279b565b166000526002602052604060002080546115bb81612eab565b906115c581612e79565b9260005b8281106115e257505050610e4660405192839283612a95565b806115f2610e5a60019385612c33565b6115fc8287612e19565b526116078186612e19565b50816116138285612c33565b5001546116208288612e19565b52016115c9565b346102675760203660031901126102675761164061279b565b611674337f00000000000000000000000000000000000000000000000000000000000000006001600160a01b031614612f1f565b6001600160a01b0381169061168a821515612f58565b81600052600060205260ff6004604060002001541661171257600082815260208190526040808220600401805460ff191660011790556001600160a01b03909216815220426006919091015560008051602061350e833981519152608060405160408152600b60408201526a1c995858dd1a5d985d195960aa1b6060820152426020820152a2005b60405162461bcd60e51b815260206004820152600e60248201526d416c72656164792061637469766560901b6044820152606490fd5b34610267576000366003190112610267576040517f00000000000000000000000000000000000000000000000000000000000000006001600160a01b03168152602090f35b346102675761182261179e36612a53565b929061180f6118098560018060a01b038616958660005260006020526117ce60ff60046040600020015416612ae4565b6117dc600183511015612b30565b6117eb61010083511115612b6f565b8660005260026020526118046040600020548610612bf1565b613367565b15612e2d565b8260005260026020526040600020612c33565b5082516001600160401b0381116106fc5761184181610b4a8454612c65565b6020601f82116001146118b05781906118729394956000926113ce5750508160011b916000199060031b1c19161790565b90555b60008051602061350e833981519152608060405160408152600a60408201526919195c185c9d1b595b9d60b21b6060820152426020820152a2005b601f1982169083600052806000209160005b8181106118fd575095836001959697106118e4575b505050811b019055611875565b015160001960f88460031b161c191690558480806118d7565b9192602060018192868b0151815501940192016118c2565b34610267576020366003190112610267576001600160a01b0361193661279b565b1680600052600060205261012060406000209160ff6004840154169061195b82612fa4565b6005840154906006850154816000526001602052604060002054916000526002602052604060002054926119f661199188612c9f565b976119e86119a160018301612c9f565b916119da6119b66003610de460028501612c9f565b936119cc6040519d8d8f9e8f90815201906128a8565b8c810360208e0152906128a8565b908a820360408c01526128a8565b9088820360608a01526128a8565b941515608087015260a086015260c085015260e08401526101008301520390f35b3461026757604036600319011261026757611a6d611a3361279b565b6001600160a01b03166000818152600160205260409020546024359190611a5b908310612bf1565b60005260016020526040600020612c33565b50611a7c600182015491612c9f565b610e46604051928392836128cd565b34610267576020366003190112610267576001600160a01b03611aac61279b565b166000526000602052611afb604060002060ff6004820154166114cf611ad183612c9f565b926114c1611ae66003610de460028501612c9f565b916040519687966080885260808801906128a8565b9086820360208801526128a8565b3461026757602036600319011261026757611b2261279b565b611b56337f00000000000000000000000000000000000000000000000000000000000000006001600160a01b031614612f1f565b6001600160a01b03811690611b6c821515612f58565b81600052600060205260ff6004604060002001541615611bf257600082815260208190526040808220600401805460ff191690556001600160a01b03909216815220426006919091015560008051602061350e833981519152608060405160408152600b60408201526a19195858dd1a5d985d195960aa1b6060820152426020820152a2005b60405162461bcd60e51b815260206004820152601060248201526f416c726561647920696e61637469766560801b6044820152606490fd5b346102675760003660031901126102675760405180602060045491828152019060046000527f8a35acfbc15ff81a39ae7d344fd709f28e8600b4aa8c65c6b64bfe7fe36bd19b9060005b818110611c9f57610e4685611c8b818703826127cc565b6040519182916020835260208301906129bd565b82546001600160a01b0316845260209093019260019283019201611c74565b34610267576000366003190112610267576020600454604051908152f35b34610267577fc0cbda98c770e984b87c20fa098d7dcf766870de1078972165d1f3d47a117687611d0b36612843565b611d688160018060a09695961b03851694856000526000602052611d3960ff60046040600020015416612ae4565b611d47600183511015612b30565b611d5661010083511115612b6f565b611d636118098383613367565b6133e3565b906106f7604051928392836128cd565b34610267576020366003190112610267576004356001600160401b03811161026757611da89036906004016127ed565b6002815110611f8557600454611dbd81612e79565b91611dc782612eab565b90611dd183612eab565b92600091825b828110611eaf57505050611dea81612e79565b92611df482612eab565b92611dfe83612eab565b9560005b848110611e4557611e2987610e468a611e378a6040519586956060875260608701906129bd565b9085820360208701526129fa565b9083820360408501526129fa565b6001906001600160a01b03611e5a8285612e19565b5116611e66828a612e19565b52611e718185612e19565b51611e7c8289612e19565b52611e878188612e19565b50611e928186612e19565b51611e9d828b612e19565b52611ea8818a612e19565b5001611e02565b611eb881612ef5565b60018060a01b0391549060031b1c168060005260006020526040600020908860ff60048401541680611f57575b611ef5575b505050600101611dd7565b6002611f4e938893611f0d6001979a611f3395612e19565b52611f1781612c9f565b611f21858c612e19565b52611f2c848b612e19565b5001612c9f565b611f3d828a612e19565b52611f488189612e19565b50612f10565b93908888611eea565b50611f6a85611f6585612c9f565b613460565b80611ee55750611f8085611f6560028601612c9f565b611ee5565b60405162461bcd60e51b815260206004820152600f60248201526e145d595c9e481d1bdbc81cda1bdc9d608a1b6044820152606490fd5b3461026757611fca3661297e565b9060018060a01b038116806000526000602052611ff160ff60046040600020015416612ae4565b82511561211d5760148351116120d85760005b83518110156120d6576120178185612e19565b515115612091578061203861132b61203160019488612e19565b518661319a565b827fb136982c275000a7691250fccb9341b20067e44fd126ce287c3e49965ad4cd9d61206e6120678489612e19565b51876132f5565b6120788489612e19565b51612088604051928392836128cd565b0390a201612004565b60405162461bcd60e51b815260206004820152601b60248201527f446567726565206e616d652063616e6e6f7420626520656d70747900000000006044820152606490fd5b005b60405162461bcd60e51b815260206004820152601860248201527f546f6f206d616e792064656772656573206174206f6e636500000000000000006044820152606490fd5b60405162461bcd60e51b8152602060048201526013602482015272139bc8191959dc99595cc81c1c9bdd9a591959606a1b6044820152606490fd5b34610267576121663661297e565b9060018060a01b03811680600052600060205261218d60ff60046040600020015416612ae4565b8251156122b75760148351116122725760005b83518110156120d6576121b38185612e19565b51511561222d57806121d46118096121cd60019488612e19565b5186613367565b827fc0cbda98c770e984b87c20fa098d7dcf766870de1078972165d1f3d47a11768761220a6122038489612e19565b51876133e3565b6122148489612e19565b51612224604051928392836128cd565b0390a2016121a0565b60405162461bcd60e51b815260206004820152601f60248201527f4465706172746d656e74206e616d652063616e6e6f7420626520656d707479006044820152606490fd5b60405162461bcd60e51b815260206004820152601c60248201527f546f6f206d616e79206465706172746d656e7473206174206f6e6365000000006044820152606490fd5b60405162461bcd60e51b815260206004820152601760248201527f4e6f206465706172746d656e74732070726f76696465640000000000000000006044820152606490fd5b34610267576020366003190112610267576001600160a01b0361231d61279b565b1680600052600060205261233b60ff60046040600020015416612ae4565b8060005260026020526040600020805490600081558161239b575b8260008051602061350e833981519152608060405160408152601360408201527219195c185c9d1b595b9d1cd7d8db19585c9959606a1b6060820152426020820152a2005b6001600160ff1b03821682036102515760005260206000209060011b8101905b8181101561235657806123cf600292612d9f565b016123bb565b34610267576020366003190112610267576001600160a01b036123f661279b565b1660005260026020526020604060002054604051908152f35b346102675761241d36612843565b9060018060a01b0381169081600052600060205261244560ff60046040600020015416612ae4565b612453600184511015612b30565b61246261010084511115612b6f565b816000526000602052600160406000200183516001600160401b0381116106fc5761249181610b4a8454612c65565b6020601f82116001146124fd579080610b84926124c59697600092610bda5750508160011b916000199060031b1c19161790565b60008051602061350e83398151915260806040516040815260076040820152666164647265737360c81b6060820152426020820152a2005b601f1982169583600052816000209660005b81811061254c5750916124c5969791846001959410610c3557505050811b01905560018060a01b0316600052600060205242600660406000200155565b8383015189556001909801976020938401930161250f565b346102675761257236612843565b9060018060a01b0381169081600052600060205261259a60ff60046040600020015416612ae4565b6125a8600184511015612b30565b6125b761010084511115612b6f565b816000526000602052600360406000200183516001600160401b0381116106fc576125e681610b4a8454612c65565b6020601f8211600114612652579080610b849261261a9697600092610bda5750508160011b916000199060031b1c19161790565b60008051602061350e83398151915260806040516040815260076040820152667765627369746560c81b6060820152426020820152a2005b601f1982169583600052816000209660005b8181106126a157509161261a969791846001959410610c3557505050811b01905560018060a01b0316600052600060205242600660406000200155565b83830151895560019098019760209384019301612664565b3461026757604036600319011261026757611a6d6126d561279b565b6001600160a01b031660008181526002602052604090205460243591906126fd908310612bf1565b60005260026020526040600020612c33565b34610267577fb136982c275000a7691250fccb9341b20067e44fd126ce287c3e49965ad4cd9d61273e36612843565b611d688160018060a09695961b0385169485600052600060205261276c60ff60046040600020015416612ae4565b61277a600183511015612b30565b61278961010083511115612b6f565b61279661132b838361319a565b6132f5565b600435906001600160a01b038216820361026757565b604081019081106001600160401b038211176106fc57604052565b90601f801991011681019081106001600160401b038211176106fc57604052565b81601f82011215610267578035906001600160401b0382116106fc5760405192612821601f8401601f1916602001856127cc565b8284526020838301011161026757816000926020809301838601378301015290565b906040600319830112610267576004356001600160a01b03811681036102675791602435906001600160401b03821161026757612882916004016127ed565b90565b60005b8381106128985750506000910152565b8181015183820152602001612888565b906020916128c181518092818552858086019101612885565b601f01601f1916010190565b9291906128e46020916040865260408601906128a8565b930152565b6001600160401b0381116106fc5760051b60200190565b9080601f83011215610267578135612917816128e9565b9261292560405194856127cc565b81845260208085019260051b820101918383116102675760208201905b83821061295157505050505090565b81356001600160401b03811161026757602091612973878480948801016127ed565b815201910190612942565b906040600319830112610267576004356001600160a01b03811681036102675791602435906001600160401b0382116102675761288291600401612900565b906020808351928381520192019060005b8181106129db5750505090565b82516001600160a01b03168452602093840193909201916001016129ce565b9080602083519182815201916020808360051b8301019401926000915b838310612a2657505050505090565b9091929394602080612a44600193601f1986820301875289516128a8565b97019301930191939290612a17565b6060600319820112610267576004356001600160a01b0381168103610267579160243591604435906001600160401b03821161026757612882916004016127ed565b90612aa8906040835260408301906129fa565b9060208183039101526020808351928381520192019060005b818110612ace5750505090565b8251845260209384019390920191600101612ac1565b15612aeb57565b60405162461bcd60e51b815260206004820152601760248201527f4e6f7420616e2061637469766520696e737469747574650000000000000000006044820152606490fd5b15612b3757565b60405162461bcd60e51b815260206004820152601060248201526f14dd1c9a5b99c81d1bdbc81cda1bdc9d60821b6044820152606490fd5b15612b7657565b60405162461bcd60e51b815260206004820152600f60248201526e537472696e6720746f6f206c6f6e6760881b6044820152606490fd5b15612bb457565b60405162461bcd60e51b815260206004820152601560248201527444656772656520616c72656164792065786973747360581b6044820152606490fd5b15612bf857565b60405162461bcd60e51b8152602060048201526013602482015272496e646578206f7574206f6620626f756e647360681b6044820152606490fd5b8054821015612c4f5760005260206000209060011b0190600090565b634e487b7160e01b600052603260045260246000fd5b90600182811c92168015612c95575b6020831014612c7f57565b634e487b7160e01b600052602260045260246000fd5b91607f1691612c74565b9060405191826000825492612cb384612c65565b8084529360018116908115612d215750600114612cda575b50612cd8925003836127cc565b565b90506000929192526020600020906000915b818310612d05575050906020612cd89282010138612ccb565b6020919350806001915483858901015201910190918492612cec565b905060209250612cd894915060ff191682840152151560051b82010138612ccb565b818110612d4e575050565b60008155600101612d43565b9190601f8111612d6957505050565b612cd8926000526020600020906020601f840160051c83019310612d95575b601f0160051c0190612d43565b9091508190612d88565b6001600091612dae8154612c65565b80612db857500155565b601f81118314612dca57508281550155565b81845260208420612de591601f0160051c8101908401612d43565b8083528260208120818355550155565b90612e0357612cd890612d9f565b634e487b7160e01b600052600060045260246000fd5b8051821015612c4f5760209160051b010190565b15612e3457565b60405162461bcd60e51b815260206004820152601960248201527f4465706172746d656e7420616c726561647920657869737473000000000000006044820152606490fd5b90612e83826128e9565b612e9060405191826127cc565b8281528092612ea1601f19916128e9565b0190602036910137565b90612eb5826128e9565b612ec260405191826127cc565b8281528092612ed3601f19916128e9565b019060005b828110612ee457505050565b806060602080938501015201612ed8565b600454811015612c4f57600460005260206000200190600090565b60001981146102515760010190565b15612f2657565b60405162461bcd60e51b815260206004820152600a60248201526927b7363c9037bbb732b960b11b6044820152606490fd5b15612f5f57565b60405162461bcd60e51b815260206004820152601860248201527f5a65726f2061646472657373206e6f7420616c6c6f77656400000000000000006044820152606490fd5b15612fab57565b60405162461bcd60e51b8152602060048201526014602482015273496e73746974757465206e6f742061637469766560601b6044820152606490fd5b9190918281146130be57612ffb8354612c65565b6001600160401b0381116106fc5761301781610b4a8454612c65565b600093601f821160011461305857613049929394829160009261304d5750508160011b916000199060031b1c19161790565b9055565b0154905038806104a2565b845260208085208386529085209094601f198316815b8181106130a65750958360019596971061308d575b505050811b019055565b015460001960f88460031b161c19169055388080613083565b9192600180602092868b01548155019401920161306e565b509050565b9190612e03578082036130d4575050565b6001816130e2829385612fe7565b0154910155565b600092918154916130f983612c65565b9260018116908115613144575060011461311257505050565b909192935060005260206000206000905b8382106131305750500190565b600181602092548486015201910190613123565b60ff191683525050811515909102019150565b1561315e57565b60405162461bcd60e51b81526020600482015260146024820152731058dc9bdb9e5b48185b1c9958591e481d5cd95960621b6044820152606490fd5b6001600160a01b03166000908152600160205260408120805492915b8381106131c65750505050600090565b6131d08183612c33565b506040516131e681610b036020820180956130e9565b51902060405160208101906132066020828851610ac98187858d01612885565b51902014613216576001016131b6565b50505050600190565b90929192612e035782519283516001600160401b0381116106fc57613248816104de8554612c65565b6020601f821160011461328957816020939261327f9260019697986000926107125750508160011b916000199060031b1c19161790565b84555b0151910155565b601f1982169084600052806000209160005b8181106132dd57509183916001969798602096958895106132c4575b505050811b018455613282565b015160001960f88460031b161c191690553880806132b7565b9192602060018192868c01518155019401920161329b565b60018060a01b0316908160005260016020526040600020906040519061331a826127b1565b8152426020820152815491600160401b8310156106fc578261334491600161334a95018155612c33565b9061321f565b600052600160205260406000205460001981019081116102515790565b6001600160a01b03166000908152600260205260408120805492915b8381106133935750505050600090565b61339d8183612c33565b506040516133b381610b036020820180956130e9565b51902060405160208101906133d36020828851610ac98187858d01612885565b5190201461321657600101613383565b60018060a01b03169081600052600260205260406000209060405190613408826127b1565b8152426020820152815491600160401b8310156106fc578261334491600161343295018155612c33565b600052600260205260406000205460001981019081116102515790565b908151811015612c4f570160200190565b908051825110613506576000905b8251815181039081116102515782116134fe5760019260005b82518110156134f457808401808511610251576001600160f81b0319906134ae908461344f565b51166001600160f81b03196134c3838661344f565b5116036134d257600101613487565b5092509060005b6134ec576134e690612f10565b9061346e565b505050600190565b50929190916134d9565b505050600090565b505060009056feed7f481816bb695e466cdd368dde5c0e789bfc5bb6b0884d1c12e5f6fcaeccb4a2646970667358221220b902ce999b5a2a7d97ef6b3a3e52bf0c5d9aba6381cb1abf25ebb9e8efa248c364736f6c634300081e0033",
  "linkReferences": {},
  "deployedLinkReferences": {}
}