{
  "_format": "hh-sol-artifact-1",
  "contractName": "Institution",
  "sourceName": "contracts/Institution.sol",
  "abi": [
    {
      "inputs": [],
      "stateMutability": "nonpayable",
      "type": "constructor"
    },
    {
      "anonymous": false,
      "inputs": [
        {
          "indexed": false,
          "internalType": "string",
          "name": "_instituteName",
          "type": "string"
        }
      ],
      "name": "instituteAdded",
      "type": "event"
    },
    {
      "inputs": [
        {
          "internalType": "address",
          "name": "_address",
          "type": "address"
        },
        {
          "internalType": "string",
          "name": "_institute_name",
          "type": "string"
        },
        {
          "internalType": "string",
          "name": "_institute_address",
          "type": "string"
        },
        {
          "internalType": "string",
          "name": "_institute_acronym",
          "type": "string"
        },
        {
          "internalType": "string",
          "name": "_institute_link",
          "type": "string"
        },
        {
          "components": [
            {
              "internalType": "string",
              "name": "degree_name",
              "type": "string"
            }
          ],
          "internalType": "struct Institution.Degree[]",
          "name": "_institute_degrees",
          "type": "tuple[]"
        },
        {
          "components": [
            {
              "internalType": "string",
              "name": "department_name",
              "type": "string"
            }
          ],
          "internalType": "struct Institution.Department[]",
          "name": "_institute_departments",
          "type": "tuple[]"
        }
      ],
      "name": "addInstitute",
      "outputs": [
        {
          "internalType": "bool",
          "name": "",
          "type": "bool"
        }
      ],
      "stateMutability": "nonpayable",
      "type": "function"
    },
    {
      "inputs": [
        {
          "internalType": "address",
          "name": "_address",
          "type": "address"
        }
      ],
      "name": "checkInstitutePermission",
      "outputs": [
        {
          "internalType": "bool",
          "name": "",
          "type": "bool"
        }
      ],
      "stateMutability": "view",
      "type": "function"
    },
    {
      "inputs": [],
      "name": "getInstituteData",
      "outputs": [
        {
          "internalType": "string",
          "name": "",
          "type": "string"
        },
        {
          "internalType": "string",
          "name": "",
          "type": "string"
        },
        {
          "internalType": "string",
          "name": "",
          "type": "string"
        },
        {
          "internalType": "string",
          "name": "",
          "type": "string"
        },
        {
          "components": [
            {
              "internalType": "string",
              "name": "degree_name",
              "type": "string"
            }
          ],
          "internalType": "struct Institution.Degree[]",
          "name": "",
          "type": "tuple[]"
        },
        {
          "components": [
            {
              "internalType": "string",
              "name": "department_name",
              "type": "string"
            }
          ],
          "internalType": "struct Institution.Department[]",
          "name": "",
          "type": "tuple[]"
        }
      ],
      "stateMutability": "view",
      "type": "function"
    },
    {
      "inputs": [
        {
          "internalType": "address",
          "name": "_address",
          "type": "address"
        }
      ],
      "name": "getInstituteData",
      "outputs": [
        {
          "internalType": "string",
          "name": "",
          "type": "string"
        },
        {
          "internalType": "string",
          "name": "",
          "type": "string"
        },
        {
          "internalType": "string",
          "name": "",
          "type": "string"
        },
        {
          "internalType": "string",
          "name": "",
          "type": "string"
        },
        {
          "components": [
            {
              "internalType": "string",
              "name": "degree_name",
              "type": "string"
            }
          ],
          "internalType": "struct Institution.Degree[]",
          "name": "",
          "type": "tuple[]"
        },
        {
          "components": [
            {
              "internalType": "string",
              "name": "department_name",
              "type": "string"
            }
          ],
          "internalType": "struct Institution.Department[]",
          "name": "",
          "type": "tuple[]"
        }
      ],
      "stateMutability": "view",
      "type": "function"
    },
    {
      "inputs": [],
      "name": "owner",
      "outputs": [
        {
          "internalType": "address",
          "name": "",
          "type": "address"
        }
      ],
      "stateMutability": "view",
      "type": "function"
    },
    {
      "inputs": [
        {
          "internalType": "string",
          "name": "_newName",
          "type": "string"
        }
      ],
      "name": "updateInstituteName",
      "outputs": [],
      "stateMutability": "nonpayable",
      "type": "function"
    }
  ],
  "bytecode": "0x60808060405234602757600080546001600160a01b0319163317905561141f908161002d8239f35b600080fdfe608080604052600436101561001357600080fd5b60003560e01c908163086f5a1414610cca575080632696c23b146104ae5780636dc80569146102fa5780637c0edcdf146100bc5780638da5cb5b146100935763b350ce3c1461006157600080fd5b3461008e57602036600319011261008e57602061008461007f610f41565b611357565b6040519015158152f35b600080fd5b3461008e57600036600319011261008e576000546040516001600160a01b039091168152602090f35b3461008e57602036600319011261008e576100d5610f41565b604051638da5cb5b60e01b8152602081600481335afa9081156102ee576000916102a5575b506000546001600160a01b0390811691160361024d5760018060a01b031680600052600160205260406000209060405161013381610f57565b60405161014b8161014481876110ef565b0382610f8d565b815260036040519261016b8461016481600189016110ef565b0385610f8d565b602083019384526101af604051956101918761018a81600285016110ef565b0388610f8d565b604085019687526101a860405180958193016110ef565b0383610f8d565b606083019182528251511561020857610204925193519451915181600052600260205260406000209160005260036020526101f76101f1604060002093611196565b92611196565b9260405196879687610e2d565b0390f35b60405162461bcd60e51b815260206004820152601960248201527f496e7374697475746520646f6573206e6f7420657869737421000000000000006044820152606490fd5b60405162461bcd60e51b815260206004820152602a60248201527f496e636f727265637420736d61727420636f6e7472616374202620617574686f60448201526972697a6174696f6e732160b01b6064820152608490fd5b6020813d6020116102e6575b816102be60209383610f8d565b810103126102e25751906001600160a01b03821682036102df5750826100fa565b80fd5b5080fd5b3d91506102b1565b6040513d6000823e3d90fd5b3461008e57602036600319011261008e576004356001600160401b03811161008e5761032a903690600401610fae565b3360005260016020526103416040600020546110b5565b1561047357336000526001602052604060002081516001600160401b03811161045d5761036e82546110b5565b601f8111610415575b50602092601f82116001146103b557928192936000926103aa575b5050600019600383901b1c191660019190911b179055005b015190508380610392565b601f1982169383600052806000209160005b8681106103fd57508360019596106103e4575b505050811b019055005b015160001960f88460031b161c191690558380806103da565b919260206001819286850151815501940192016103c7565b826000526020600020601f830160051c81019160208410610453575b601f0160051c01905b8181106104475750610377565b6000815560010161043a565b9091508190610431565b634e487b7160e01b600052604160045260246000fd5b60405162461bcd60e51b8152602060048201526013602482015272125b9cdd1a5d1d5d19481b9bdd08199bdd5b99606a1b6044820152606490fd5b3461008e5760e036600319011261008e576104c7610f41565b6024356001600160401b03811161008e576104e6903690600401610fae565b6044356001600160401b03811161008e57610505903690600401610fae565b916064356001600160401b03811161008e57610525903690600401610fae565b906084356001600160401b03811161008e57610545903690600401610fae565b60a4356001600160401b03811161008e573660238201121561008e5761057590369060248160040135910161101b565b9460c4356001600160401b03811161008e573660238201121561008e576105a690369060248160040135910161101b565b6000549093906001600160a01b03163303610c5f5760018060a01b0316938460005260016020526101446105e46040600020604051928380926110ef565b51610c0e57865115610bca57835115610b79576040519161060483610f57565b868352602083019081526040830191825260608301938452856000526001602052604060002092518051906001600160401b03821161045d57819061064986546110b5565b601f8111610b26575b50602090601f8311600114610ac157600092610ab6575b50508160011b916000199060031b1c19161783555b51805160018401916001600160401b03821161045d5781906106a084546110b5565b601f8111610a63575b50602090601f83116001146109fe576000926109f3575b50508160011b916000199060031b1c19161790555b51805160028301916001600160401b03821161045d576106f583546110b5565b601f81116109ab575b50602090601f83116001146109415760039493929160009183610936575b50508160011b9160001990861b1c19161790555b0190518051906001600160401b03821161045d57819061075084546110b5565b601f81116108e3575b50602090601f831160011461087e57600092610873575b50508160011b916000199060031b1c19161790555b60005b84518110156107da578260005260026020526040600020906107aa81876111ee565b51825490600160401b82101561045d576107ce82600195866107d495018155611218565b90611230565b01610788565b50925060005b835181101561082c5781600052600360205260406000209061080281866111ee565b51825490600160401b82101561045d576107ce826001958661082695018155611218565b016107e0565b7fcc7604fcd5c45ed3c7605e263d6c59f75739c368ef78098126fa9f54443b314f61086584604051918291602083526020830190610dec565b0390a1602060405160018152f35b015190508780610770565b60008581528281209350601f198516905b8181106108cb57509084600195949392106108b2575b505050811b019055610785565b015160001960f88460031b161c191690558780806108a5565b9293602060018192878601518155019501930161088f565b909150836000526020600020601f840160051c8101916020851061092c575b90601f859493920160051c01905b81811061091d5750610759565b60008155849350600101610910565b9091508190610902565b015190508a8061071c565b90601f1983169184600052816000209260005b81811061099357509160019391856003989796941061097b575b505050811b019055610730565b015160001983881b60f8161c191690558a808061096e565b92936020600181928786015181550195019301610954565b836000526020600020601f840160051c810191602085106109e9575b601f0160051c01905b8181106109dd57506106fe565b600081556001016109d0565b90915081906109c7565b015190508a806106c0565b60008581528281209350601f198516905b818110610a4b5750908460019594939210610a32575b505050811b0190556106d5565b015160001960f88460031b161c191690558a8080610a25565b92936020600181928786015181550195019301610a0f565b909150836000526020600020601f840160051c81019160208510610aac575b90601f859493920160051c01905b818110610a9d57506106a9565b60008155849350600101610a90565b9091508190610a82565b015190508a80610669565b60008781528281209350601f198516905b818110610b0e5750908460019594939210610af5575b505050811b01835561067e565b015160001960f88460031b161c191690558a8080610ae8565b92936020600181928786015181550195019301610ad2565b909150856000526020600020601f840160051c81019160208510610b6f575b90601f859493920160051c01905b818110610b605750610652565b60008155849350600101610b53565b9091508190610b45565b60405162461bcd60e51b8152602060048201526024808201527f41746c65617374206f6e65206465706172746d656e74206d75737420626520616044820152631919195960e21b6064820152608490fd5b606460405162461bcd60e51b815260206004820152602060248201527f41746c65617374206f6e6520646567726565206d7573742062652061646465646044820152fd5b60405162461bcd60e51b815260206004820152602360248201527f496e73746974757465207769746820746f6b656e20616c72656164792065786960448201526273747360e81b6064820152608490fd5b60405162461bcd60e51b815260206004820152603a60248201527f43616c6c6572206d75737420626520746865206f776e6572202d206f6e6c792060448201527f6f776e65722063616e2061646420616e20696e737469747574650000000000006064820152608490fd5b3461008e57600036600319011261008e57336000526001602052604060002090610cf381610f57565b604051610d048161014481866110ef565b815260405190610d1b826101a881600187016110ef565b602081019182526003610d5a60405194610d4386610d3c81600285016110ef565b0387610f8d565b6040840195865261014460405180948193016110ef565b6060820190815281515115610d9d5761020491519251935190513360005260026020526040600020903360005260036020526101f76101f1604060002093611196565b60405162461bcd60e51b815260206004820152602160248201527f496e73746974757465206163636f756e7420646f6573206e6f742065786973746044820152602160f81b6064820152608490fd5b919082519283825260005b848110610e18575050826000602080949584010152601f8019910116010190565b80602080928401015182828601015201610df7565b939192610e5a610e7694610e4c610e689460c0895260c0890190610dec565b908782036020890152610dec565b908582036040870152610dec565b908382036060850152610dec565b8181036080830152825180825260208201916020808360051b8301019501926000915b838310610f0c57505050505060a0818303910152815180825260208201916020808360051b8301019401926000915b838310610ed757505050505090565b9091929394602080610efd600193601f19868203018752828a5151918181520190610dec565b97019301930191939290610ec8565b9091929395602080610f32600193601f19868203018752828b5151918181520190610dec565b98019301930191939290610e99565b600435906001600160a01b038216820361008e57565b608081019081106001600160401b0382111761045d57604052565b602081019081106001600160401b0382111761045d57604052565b90601f801991011681019081106001600160401b0382111761045d57604052565b81601f8201121561008e578035906001600160401b03821161045d5760405192610fe2601f8401601f191660200185610f8d565b8284526020838301011161008e57816000926020809301838601378301015290565b6001600160401b03811161045d5760051b60200190565b9291909261102884611004565b936110366040519586610f8d565b602085828152019060051b82019183831161008e5780915b83831061105c575050505050565b82356001600160401b03811161008e57820160006020828803126102df57506040519161108883610f72565b8135926001600160401b03841161008e576110a888602095869501610fae565b815281520192019161104e565b90600182811c921680156110e5575b60208310146110cf57565b634e487b7160e01b600052602260045260246000fd5b91607f16916110c4565b600092918154916110ff836110b5565b8083529260018116908115611155575060011461111b57505050565b60009081526020812093945091925b83831061113b575060209250010190565b60018160209294939454838587010152019101919061112a565b915050602093945060ff929192191683830152151560051b010190565b906101a860405161118281610f72565b6111938194604051938480926110ef565b52565b9081546111a281611004565b926111b06040519485610f8d565b818452602084019060005260206000206000915b8383106111d15750505050565b6001602081926111e085611172565b8152019201920191906111c4565b80518210156112025760209160051b010190565b634e487b7160e01b600052603260045260246000fd5b80548210156112025760005260206000200190600090565b92919061134157519182516001600160401b03811161045d5761125382546110b5565b601f81116112f9575b506020601f8211600114611297578192939460009261128c575b50508160011b916000199060031b1c1916179055565b015190503880611276565b601f1982169083600052806000209160005b8181106112e1575095836001959697106112c8575b505050811b019055565b015160001960f88460031b161c191690553880806112be565b9192602060018192868b0151815501940192016112a9565b826000526020600020601f830160051c81019160208410611337575b601f0160051c01905b81811061132b575061125c565b6000815560010161131e565b9091508190611315565b634e487b7160e01b600052600060045260246000fd5b60018060a01b03166000526001602052604060002060036113d36040519261137e84610f57565b60405161138f8161014481856110ef565b84526040516113a58161014481600186016110ef565b60208501526040516113be8161014481600286016110ef565b604085015261014460405180948193016110ef565b60608201525151156113e457600190565b60009056fea2646970667358221220a4c185f36e57dafadf60a903b474f2785057265086ca877aab186e2a1484489564736f6c634300081e0033",
  "linkReferences": {},
  "deployedLinkReferences": {}
}