{
  "_format": "hh-sol-artifact-1",
  "contractName": "Institution",
  "sourceName": "contracts/Institution.sol",
  "abi": [
    {
      "inputs": [],
      "stateMutability": "nonpayable",
      "type": "constructor"
    },
    {
      "anonymous": false,
      "inputs": [
        {
          "indexed": true,
          "internalType": "address",
          "name": "institute",
          "type": "address"
        },
        {
          "indexed": false,
          "internalType": "uint256",
          "name": "index",
          "type": "uint256"
        }
      ],
      "name": "DegreeRemoved",
      "type": "event"
    },
    {
      "anonymous": false,
      "inputs": [
        {
          "indexed": true,
          "internalType": "address",
          "name": "institute",
          "type": "address"
        },
        {
          "indexed": false,
          "internalType": "uint256",
          "name": "index",
          "type": "uint256"
        },
        {
          "indexed": false,
          "internalType": "string",
          "name": "newName",
          "type": "string"
        }
      ],
      "name": "DegreeUpdated",
      "type": "event"
    },
    {
      "anonymous": false,
      "inputs": [
        {
          "indexed": true,
          "internalType": "address",
          "name": "institute",
          "type": "address"
        },
        {
          "indexed": false,
          "internalType": "uint256",
          "name": "count",
          "type": "uint256"
        }
      ],
      "name": "DegreesAdded",
      "type": "event"
    },
    {
      "anonymous": false,
      "inputs": [
        {
          "indexed": true,
          "internalType": "address",
          "name": "institute",
          "type": "address"
        }
      ],
      "name": "DegreesCleared",
      "type": "event"
    },
    {
      "anonymous": false,
      "inputs": [
        {
          "indexed": true,
          "internalType": "address",
          "name": "institute",
          "type": "address"
        },
        {
          "indexed": false,
          "internalType": "uint256",
          "name": "index",
          "type": "uint256"
        }
      ],
      "name": "DepartmentRemoved",
      "type": "event"
    },
    {
      "anonymous": false,
      "inputs": [
        {
          "indexed": true,
          "internalType": "address",
          "name": "institute",
          "type": "address"
        },
        {
          "indexed": false,
          "internalType": "uint256",
          "name": "index",
          "type": "uint256"
        },
        {
          "indexed": false,
          "internalType": "string",
          "name": "newName",
          "type": "string"
        }
      ],
      "name": "DepartmentUpdated",
      "type": "event"
    },
    {
      "anonymous": false,
      "inputs": [
        {
          "indexed": true,
          "internalType": "address",
          "name": "institute",
          "type": "address"
        },
        {
          "indexed": false,
          "internalType": "uint256",
          "name": "count",
          "type": "uint256"
        }
      ],
      "name": "DepartmentsAdded",
      "type": "event"
    },
    {
      "anonymous": false,
      "inputs": [
        {
          "indexed": true,
          "internalType": "address",
          "name": "institute",
          "type": "address"
        }
      ],
      "name": "DepartmentsCleared",
      "type": "event"
    },
    {
      "anonymous": false,
      "inputs": [
        {
          "indexed": false,
          "internalType": "string",
          "name": "_instituteName",
          "type": "string"
        }
      ],
      "name": "instituteAdded",
      "type": "event"
    },
    {
      "inputs": [
        {
          "internalType": "string[]",
          "name": "names",
          "type": "string[]"
        }
      ],
      "name": "addDegrees",
      "outputs": [],
      "stateMutability": "nonpayable",
      "type": "function"
    },
    {
      "inputs": [
        {
          "internalType": "string[]",
          "name": "names",
          "type": "string[]"
        }
      ],
      "name": "addDepartments",
      "outputs": [],
      "stateMutability": "nonpayable",
      "type": "function"
    },
    {
      "inputs": [
        {
          "internalType": "address",
          "name": "_address",
          "type": "address"
        },
        {
          "internalType": "string",
          "name": "_institute_name",
          "type": "string"
        },
        {
          "internalType": "string",
          "name": "_institute_address",
          "type": "string"
        },
        {
          "internalType": "string",
          "name": "_institute_acronym",
          "type": "string"
        },
        {
          "internalType": "string",
          "name": "_institute_link",
          "type": "string"
        },
        {
          "components": [
            {
              "internalType": "string",
              "name": "degree_name",
              "type": "string"
            }
          ],
          "internalType": "struct Institution.Degree[]",
          "name": "_institute_degrees",
          "type": "tuple[]"
        },
        {
          "components": [
            {
              "internalType": "string",
              "name": "department_name",
              "type": "string"
            }
          ],
          "internalType": "struct Institution.Department[]",
          "name": "_institute_departments",
          "type": "tuple[]"
        }
      ],
      "name": "addInstitute",
      "outputs": [
        {
          "internalType": "bool",
          "name": "",
          "type": "bool"
        }
      ],
      "stateMutability": "nonpayable",
      "type": "function"
    },
    {
      "inputs": [
        {
          "internalType": "address",
          "name": "_address",
          "type": "address"
        }
      ],
      "name": "checkInstitutePermission",
      "outputs": [
        {
          "internalType": "bool",
          "name": "",
          "type": "bool"
        }
      ],
      "stateMutability": "view",
      "type": "function"
    },
    {
      "inputs": [],
      "name": "clearDegrees",
      "outputs": [],
      "stateMutability": "nonpayable",
      "type": "function"
    },
    {
      "inputs": [],
      "name": "clearDepartments",
      "outputs": [],
      "stateMutability": "nonpayable",
      "type": "function"
    },
    {
      "inputs": [],
      "name": "getInstituteData",
      "outputs": [
        {
          "internalType": "string",
          "name": "",
          "type": "string"
        },
        {
          "internalType": "string",
          "name": "",
          "type": "string"
        },
        {
          "internalType": "string",
          "name": "",
          "type": "string"
        },
        {
          "internalType": "string",
          "name": "",
          "type": "string"
        },
        {
          "components": [
            {
              "internalType": "string",
              "name": "degree_name",
              "type": "string"
            }
          ],
          "internalType": "struct Institution.Degree[]",
          "name": "",
          "type": "tuple[]"
        },
        {
          "components": [
            {
              "internalType": "string",
              "name": "department_name",
              "type": "string"
            }
          ],
          "internalType": "struct Institution.Department[]",
          "name": "",
          "type": "tuple[]"
        }
      ],
      "stateMutability": "view",
      "type": "function"
    },
    {
      "inputs": [
        {
          "internalType": "address",
          "name": "_address",
          "type": "address"
        }
      ],
      "name": "getInstituteData",
      "outputs": [
        {
          "internalType": "string",
          "name": "",
          "type": "string"
        },
        {
          "internalType": "string",
          "name": "",
          "type": "string"
        },
        {
          "internalType": "string",
          "name": "",
          "type": "string"
        },
        {
          "internalType": "string",
          "name": "",
          "type": "string"
        },
        {
          "components": [
            {
              "internalType": "string",
              "name": "degree_name",
              "type": "string"
            }
          ],
          "internalType": "struct Institution.Degree[]",
          "name": "",
          "type": "tuple[]"
        },
        {
          "components": [
            {
              "internalType": "string",
              "name": "department_name",
              "type": "string"
            }
          ],
          "internalType": "struct Institution.Department[]",
          "name": "",
          "type": "tuple[]"
        }
      ],
      "stateMutability": "view",
      "type": "function"
    },
    {
      "inputs": [],
      "name": "owner",
      "outputs": [
        {
          "internalType": "address",
          "name": "",
          "type": "address"
        }
      ],
      "stateMutability": "view",
      "type": "function"
    },
    {
      "inputs": [
        {
          "internalType": "uint256",
          "name": "index",
          "type": "uint256"
        }
      ],
      "name": "removeDegree",
      "outputs": [],
      "stateMutability": "nonpayable",
      "type": "function"
    },
    {
      "inputs": [
        {
          "internalType": "uint256",
          "name": "index",
          "type": "uint256"
        }
      ],
      "name": "removeDepartment",
      "outputs": [],
      "stateMutability": "nonpayable",
      "type": "function"
    },
    {
      "inputs": [
        {
          "internalType": "uint256",
          "name": "index",
          "type": "uint256"
        },
        {
          "internalType": "string",
          "name": "newName",
          "type": "string"
        }
      ],
      "name": "updateDegree",
      "outputs": [],
      "stateMutability": "nonpayable",
      "type": "function"
    },
    {
      "inputs": [
        {
          "internalType": "uint256",
          "name": "index",
          "type": "uint256"
        },
        {
          "internalType": "string",
          "name": "newName",
          "type": "string"
        }
      ],
      "name": "updateDepartment",
      "outputs": [],
      "stateMutability": "nonpayable",
      "type": "function"
    },
    {
      "inputs": [
        {
          "internalType": "string",
          "name": "_newAcronym",
          "type": "string"
        }
      ],
      "name": "updateInstituteAcronym",
      "outputs": [],
      "stateMutability": "nonpayable",
      "type": "function"
    },
    {
      "inputs": [
        {
          "internalType": "string",
          "name": "_newAddress",
          "type": "string"
        }
      ],
      "name": "updateInstituteAddress",
      "outputs": [],
      "stateMutability": "nonpayable",
      "type": "function"
    },
    {
      "inputs": [
        {
          "internalType": "string",
          "name": "_newLink",
          "type": "string"
        }
      ],
      "name": "updateInstituteLink",
      "outputs": [],
      "stateMutability": "nonpayable",
      "type": "function"
    },
    {
      "inputs": [
        {
          "internalType": "string",
          "name": "_newName",
          "type": "string"
        }
      ],
      "name": "updateInstituteName",
      "outputs": [],
      "stateMutability": "nonpayable",
      "type": "function"
    }
  ],
  "bytecode": "0x60808060405234602757600080546001600160a01b03191633179055611fab908161002d8239f35b600080fdfe6080604052600436101561001257600080fd5b60003560e01c806303b76cb61461169c578063086f5a14146115785780632696c23b14610edd578063298b55fa14610ded57806335ed681114610cec5780636bc344b614610bfc5780636dc8056914610aeb5780637c0edcdf146108b4578063864afd271461077b5780638aff2c34146106e65780638da5cb5b146106bd5780638f8b3a151461057d578063a0576628146104e8578063b350ce3c14610439578063c3b7180d1461039b578063e4bf3f1f146102195763f574bb4a146100d757600080fd5b34610214576020366003190112610214576004356001600160401b03811161021457610107903690600401611792565b336000526001602052610128610121604060002054611abf565b1515611af9565b336000526001602052600260406000200181516001600160401b0381116101fe5761015d816101578454611abf565b84611b94565b602092601f821160011461019e5761018f92938291600092610193575b50508160011b916000199060031b1c19161790565b9055005b01519050388061017a565b601f1982169383600052806000209160005b8681106101e657508360019596106101cd575b505050811b019055005b015160001960f88460031b161c191690553880806101c3565b919260206001819286850151815501940192016101b0565b634e487b7160e01b600052604160045260246000fd5b600080fd5b346102145761022736611a8d565b90336000526001602052610242610121604060002054611abf565b33600052600260205261025b6040600020548210611dd3565b336000526002602052610272816040600020611b65565b50918051926001600160401b0384116101fe57610299846102938354611abf565b83611b94565b602093601f811160011461031157906102f08261030194937fbed4df188d56034cb11343df2287eab4185437cb4ca35718cfa7b09bc20216449697600091610306575b508160011b916000199060031b1c19161790565b90555b604051918291339583611f5e565b0390a2005b9050840151886102dc565b601f19811682600052856000209060005b8181106103835750916001917fbed4df188d56034cb11343df2287eab4185437cb4ca35718cfa7b09bc20216449697826103019796951061036a575b5050811b0190556102f3565b85015160001960f88460031b161c19169055878061035e565b85880151835560209788019760019093019201610322565b34610214576103a9366117e8565b3360005260016020526103c3610121604060002054611abf565b60005b81518110156104095760019033600052600260205261040360406000206103ed8386611b3b565b5190604051916103fc83611724565b8252611bdb565b016103c6565b50516040519081527fc94a0c7636f3f4e3b99f764f5366c566bfaec46780ed56d799b4d9c3c3b860ec60203392a2005b34610214576020366003190112610214576001600160a01b0361045a6119dd565b1660005260016020526020604060002060036104d76040519261047c8461173f565b6040516104948161048d8185611cd4565b038261175a565b84526040516104aa8161048d8160018601611cd4565b858501526040516104c28161048d8160028601611cd4565b604085015261048d6040518094819301611cd4565b606082015251511515604051908152f35b3461021457600036600319011261021457336000526001602052610513610121604060002054611abf565b33600052600360205260406000208054906000815581610556575b337f69533229bef995d1ab2ae602c0fd82885181bd4478e7903f561f7ca688fa71a3600080a2005b6000526020600020908101905b8181101561052e5780610577600192611f00565b01610563565b346102145761058b36611a8d565b903360005260016020526105a6610121604060002054611abf565b3360005260036020526105bf6040600020548210611dd3565b3360005260036020526105d6816040600020611b65565b50918051926001600160401b0384116101fe576105f7846102938354611abf565b602093601f811160011461064d57906102f08261030194937f1228ea25561defb1dc81b9f1872f09cbc8410057496460115308fcb1b0178e56969760009161030657508160011b916000199060031b1c19161790565b601f19811682600052856000209060005b8181106106a55750916001917f1228ea25561defb1dc81b9f1872f09cbc8410057496460115308fcb1b0178e569697826103019796951061036a575050811b0190556102f3565b8588015183556020978801976001909301920161065e565b34610214576000366003190112610214576000546040516001600160a01b039091168152602090f35b3461021457600036600319011261021457336000526001602052610711610121604060002054611abf565b33600052600260205260406000208054906000815581610754575b337f2bff1de2a6fc28629350ae15406b18f0ccfa9282c2433267410e5d3a8c6ba72d600080a2005b6000526020600020908101905b8181101561072c5780610775600192611f00565b01610761565b34610214576020366003190112610214576004353360005260016020526107a9610121604060002054611abf565b336000526003602052604060002054906107c4828210611dd3565b60001982019182119181835b61082a5781811015610840573360005260036020526040600020906001810180821161082a5761080561082391600194611b65565b5033600052600360205261081d836040600020611b65565b90611ee6565b01836107d0565b634e487b7160e01b600052601160045260246000fd5b8233600052600360205260406000208054801561089e57600019019061086f6108698383611b65565b90611f4f565b556040519081527f1250de7e9a8911a5dab804859122b823974c7db8740239620a4e0383e84cee1b60203392a2005b634e487b7160e01b600052603160045260246000fd5b34610214576020366003190112610214576108cd6119dd565b604051638da5cb5b60e01b8152602081600481335afa908115610adf57600091610a96575b506000546001600160a01b03908116911603610a3e5760018060a01b031680600052600160205260406000209060405161092b8161173f565b60405161093c8161048d8187611cd4565b815260036040519261095c846109558160018901611cd4565b038561175a565b602083019384526109a0604051956109828761097b8160028501611cd4565b038861175a565b604085019687526109996040518095819301611cd4565b038361175a565b60608301918252825151156109f9576109f5925193519451915181600052600260205260406000209160005260036020526109e86109e2604060002093611d7b565b92611d7b565b92604051968796876118c9565b0390f35b60405162461bcd60e51b815260206004820152601960248201527f496e7374697475746520646f6573206e6f7420657869737421000000000000006044820152606490fd5b60405162461bcd60e51b815260206004820152602a60248201527f496e636f727265637420736d61727420636f6e7472616374202620617574686f60448201526972697a6174696f6e732160b01b6064820152608490fd5b6020813d602011610ad7575b81610aaf6020938361175a565b81010312610ad35751906001600160a01b0382168203610ad05750826108f2565b80fd5b5080fd5b3d9150610aa2565b6040513d6000823e3d90fd5b34610214576020366003190112610214576004356001600160401b03811161021457610b1b903690600401611792565b336000526001602052610b35610121604060002054611abf565b336000526001602052604060002081516001600160401b0381116101fe57610b61816101578454611abf565b602092601f8211600114610b9d5761018f92938291600092610b925750508160011b916000199060031b1c19161790565b01519050848061017a565b601f1982169383600052806000209160005b868110610be45750836001959610610bcb57505050811b019055005b015160001960f88460031b161c191690558380806101c3565b91926020600181928685015181550194019201610baf565b34610214576020366003190112610214576004356001600160401b03811161021457610c2c903690600401611792565b336000526001602052610c46610121604060002054611abf565b336000526001602052600360406000200181516001600160401b0381116101fe57610c75816101578454611abf565b602092601f8211600114610ca65761018f92938291600092610b925750508160011b916000199060031b1c19161790565b601f1982169383600052806000209160005b868110610cd45750836001959610610bcb57505050811b019055005b91926020600181928685015181550194019201610cb8565b3461021457602036600319011261021457600435336000526001602052610d1a610121604060002054611abf565b33600052600260205260406000205490610d35828210611dd3565b60001982019182119181835b61082a5781811015610d95573360005260026020526040600020906001810180821161082a57610d76610d8e91600194611b65565b5033600052600260205261081d836040600020611b65565b0183610d41565b8233600052600260205260406000208054801561089e576000190190610dbe6108698383611b65565b556040519081527f86e2808743ae9329412004923e34df6cf2e7eda11b184bfdfb6f9eb82438216260203392a2005b34610214576020366003190112610214576004356001600160401b03811161021457610e1d903690600401611792565b336000526001602052610e37610121604060002054611abf565b336000526001602052600160406000200181516001600160401b0381116101fe57610e66816101578454611abf565b602092601f8211600114610e975761018f92938291600092610b925750508160011b916000199060031b1c19161790565b601f1982169383600052806000209160005b868110610ec55750836001959610610bcb57505050811b019055005b91926020600181928685015181550194019201610ea9565b346102145760e036600319011261021457610ef66119dd565b6024356001600160401b03811161021457610f15903690600401611792565b906044356001600160401b03811161021457610f35903690600401611792565b916064356001600160401b03811161021457610f55903690600401611792565b906084356001600160401b03811161021457610f75903690600401611792565b60a4356001600160401b038111610214573660238201121561021457610fa59036906024816004013591016119f3565b9460c4356001600160401b038111610214573660238201121561021457610fd69036906024816004013591016119f3565b6000549095906001600160a01b0316330361150d5760018060a01b03169384600052600160205261048d611014604060002060405192838092611cd4565b516114bc578651156114785785511561142757604051916110348361173f565b848352602083019081526040830191825260608301938452856000526001602052604060002092518051906001600160401b0382116101fe576110818261107b8754611abf565b87611b94565b602090601f83116001146113c0576110b19291600091836112e45750508160011b916000199060031b1c19161790565b83555b51805160018401916001600160401b0382116101fe576110de826110d88554611abf565b85611b94565b602090601f83116001146113595761110e9291600091836112e45750508160011b916000199060031b1c19161790565b90555b51805160028301916001600160401b0382116101fe57611135826110d88554611abf565b602090601f83116001146112ef57918061116a9260039695946000926112e45750508160011b916000199060031b1c19161790565b90555b0190518051906001600160401b0382116101fe5761118f826110d88554611abf565b602090601f831160011461127d576111bf9291600091836112725750508160011b916000199060031b1c19161790565b90555b60005b84518110156111f9576001908360005260026020526111f360406000206111ec8389611b3b565b5190611bdb565b016111c5565b509160005b815181101561122b5760019083600052600360205261122560406000206111ec8386611b3b565b016111fe565b7fcc7604fcd5c45ed3c7605e263d6c59f75739c368ef78098126fa9f54443b314f61126485604051918291602083526020830190611888565b0390a1602060405160018152f35b01519050888061017a565b90601f1983169184600052816000209260005b8181106112cc57509084600195949392106112b3575b505050811b0190556111c2565b015160001960f88460031b161c191690558780806112a6565b92936020600181928786015181550195019301611290565b015190508b8061017a565b90601f1983169184600052816000209260005b818110611341575091600193918560039897969410611329575b505050811b01905561116d565b015160001983881b60f8161c191690558a808061131c565b92936020600181928786015181550195019301611302565b90601f1983169184600052816000209260005b8181106113a8575090846001959493921061138f575b505050811b019055611111565b015160001960f88460031b161c191690558a8080611382565b9293602060018192878601518155019501930161136c565b90601f1983169186600052816000209260005b81811061140f57509084600195949392106113f6575b505050811b0183556110b4565b015160001960f88460031b161c191690558a80806113e9565b929360206001819287860151815501950193016113d3565b60405162461bcd60e51b8152602060048201526024808201527f41746c65617374206f6e65206465706172746d656e74206d75737420626520616044820152631919195960e21b6064820152608490fd5b606460405162461bcd60e51b815260206004820152602060248201527f41746c65617374206f6e6520646567726565206d7573742062652061646465646044820152fd5b60405162461bcd60e51b815260206004820152602360248201527f496e73746974757465207769746820746f6b656e20616c72656164792065786960448201526273747360e81b6064820152608490fd5b60405162461bcd60e51b815260206004820152603a60248201527f43616c6c6572206d75737420626520746865206f776e6572202d206f6e6c792060448201527f6f776e65722063616e2061646420616e20696e737469747574650000000000006064820152608490fd5b346102145760003660031901126102145733600052600160205260406000206040516115a38161173f565b6040516115b48161048d8186611cd4565b8152604051906115cb826109998160018701611cd4565b60208101918252600361160a604051946115f3866115ec8160028501611cd4565b038761175a565b6040840195865261048d6040518094819301611cd4565b606082019081528151511561164d576109f591519251935190513360005260026020526040600020903360005260036020526109e86109e2604060002093611d7b565b60405162461bcd60e51b815260206004820152602160248201527f496e73746974757465206163636f756e7420646f6573206e6f742065786973746044820152602160f81b6064820152608490fd5b34610214576116aa366117e8565b3360005260016020526116c4610121604060002054611abf565b60005b81518110156116f4576001903360005260036020526116ee60406000206103ed8386611b3b565b016116c7565b50516040519081527f26dceaa229d122fc5998fe676095a2e85ad43718efc9acdec74512e6682144fc60203392a2005b602081019081106001600160401b038211176101fe57604052565b608081019081106001600160401b038211176101fe57604052565b90601f801991011681019081106001600160401b038211176101fe57604052565b6001600160401b0381116101fe5760051b60200190565b81601f82011215610214578035906001600160401b0382116101fe57604051926117c6601f8401601f19166020018561175a565b8284526020838301011161021457816000926020809301838601378301015290565b602060031982011261021457600435906001600160401b038211610214578060238301121561021457816004013561181f8161177b565b9261182d604051948561175a565b8184526024602085019260051b820101918383116102145760248201905b83821061185a57505050505090565b81356001600160401b0381116102145760209161187d8760248594880101611792565b81520191019061184b565b919082519283825260005b8481106118b4575050826000602080949584010152601f8019910116010190565b80602080928401015182828601015201611893565b9391926118f6611912946118e86119049460c0895260c0890190611888565b908782036020890152611888565b908582036040870152611888565b908382036060850152611888565b8181036080830152825180825260208201916020808360051b8301019501926000915b8383106119a857505050505060a0818303910152815180825260208201916020808360051b8301019401926000915b83831061197357505050505090565b9091929394602080611999600193601f19868203018752828a5151918181520190611888565b97019301930191939290611964565b90919293956020806119ce600193601f19868203018752828b5151918181520190611888565b98019301930191939290611935565b600435906001600160a01b038216820361021457565b92919092611a008461177b565b93611a0e604051958661175a565b602085828152019060051b8201918383116102145780915b838310611a34575050505050565b82356001600160401b0381116102145782016000602082880312610ad0575060405191611a6083611724565b8135926001600160401b03841161021457611a8088602095869501611792565b8152815201920191611a26565b9060406003198301126102145760043591602435906001600160401b03821161021457611abc91600401611792565b90565b90600182811c92168015611aef575b6020831014611ad957565b634e487b7160e01b600052602260045260246000fd5b91607f1691611ace565b15611b0057565b60405162461bcd60e51b8152602060048201526013602482015272125b9cdd1a5d1d5d19481b9bdd08199bdd5b99606a1b6044820152606490fd5b8051821015611b4f5760209160051b010190565b634e487b7160e01b600052603260045260246000fd5b8054821015611b4f5760005260206000200190600090565b818110611b88575050565b60008155600101611b7d565b9190601f8111611ba357505050565b611bcf926000526020600020906020601f840160051c83019310611bd1575b601f0160051c0190611b7d565b565b9091508190611bc2565b9190918054680100000000000000008110156101fe57611c0091600182018155611b65565b929092611cbe57519182516001600160401b0381116101fe57611c27816101578454611abf565b6020601f8211600114611c5c578190611c589394956000926101935750508160011b916000199060031b1c19161790565b9055565b601f1982169083600052806000209160005b818110611ca657509583600195969710611c8d575b505050811b019055565b015160001960f88460031b161c19169055388080611c83565b9192602060018192868b015181550194019201611c6e565b634e487b7160e01b600052600060045260246000fd5b60009291815491611ce483611abf565b8083529260018116908115611d3a5750600114611d0057505050565b60009081526020812093945091925b838310611d20575060209250010190565b600181602092949394548385870101520191019190611d0f565b915050602093945060ff929192191683830152151560051b010190565b90610999604051611d6781611724565b611d78819460405193848092611cd4565b52565b908154611d878161177b565b92611d95604051948561175a565b818452602084019060005260206000206000915b838310611db65750505050565b600160208192611dc585611d57565b815201920192019190611da9565b15611dda57565b60405162461bcd60e51b815260206004820152600d60248201526c092dcecc2d8d2c840d2dcc8caf609b1b6044820152606490fd5b919091828114611ee157611e238354611abf565b6001600160401b0381116101fe57611e3f816101578454611abf565b600093601f8211600114611e7c57611c589293948291600092611e715750508160011b916000199060031b1c19161790565b01549050388061017a565b845260208085208386529085209094601f198316815b818110611ec957509583600195969710611eb057505050811b019055565b015460001960f88460031b161c19169055388080611c83565b9192600180602092868b015481550194019201611e92565b509050565b9190611cbe57808203611ef7575050565b611bcf91611e0f565b611f0a8154611abf565b9081611f14575050565b81601f60009311600114611f26575055565b81835260208320611f4291601f0160051c810190600101611b7d565b8082528160208120915555565b90611cbe57611f0a8154611abf565b604090611abc93928152816020820152019061188856fea26469706673582212209e91f463e2811c89ddd7d86a229b7be7608ce23a49f9649b1804c7b4eae251f364736f6c634300081e0033",
  "linkReferences": {},
  "deployedLinkReferences": {}
}